{
	"contracts/Token.sol": {
		"investalog": {
			"abi": [
				{
					"inputs": [],
					"stateMutability": "nonpayable",
					"type": "constructor"
				},
				{
					"anonymous": false,
					"inputs": [
						{
							"indexed": true,
							"internalType": "address",
							"name": "owner",
							"type": "address"
						},
						{
							"indexed": true,
							"internalType": "address",
							"name": "approved",
							"type": "address"
						},
						{
							"indexed": true,
							"internalType": "uint256",
							"name": "tokenId",
							"type": "uint256"
						}
					],
					"name": "Approval",
					"type": "event"
				},
				{
					"anonymous": false,
					"inputs": [
						{
							"indexed": true,
							"internalType": "address",
							"name": "owner",
							"type": "address"
						},
						{
							"indexed": true,
							"internalType": "address",
							"name": "operator",
							"type": "address"
						},
						{
							"indexed": false,
							"internalType": "bool",
							"name": "approved",
							"type": "bool"
						}
					],
					"name": "ApprovalForAll",
					"type": "event"
				},
				{
					"anonymous": false,
					"inputs": [
						{
							"indexed": true,
							"internalType": "address",
							"name": "previousOwner",
							"type": "address"
						},
						{
							"indexed": true,
							"internalType": "address",
							"name": "newOwner",
							"type": "address"
						}
					],
					"name": "OwnershipTransferred",
					"type": "event"
				},
				{
					"anonymous": false,
					"inputs": [
						{
							"indexed": true,
							"internalType": "address",
							"name": "from",
							"type": "address"
						},
						{
							"indexed": true,
							"internalType": "address",
							"name": "to",
							"type": "address"
						},
						{
							"indexed": true,
							"internalType": "uint256",
							"name": "tokenId",
							"type": "uint256"
						}
					],
					"name": "Transfer",
					"type": "event"
				},
				{
					"inputs": [],
					"name": "Presale_status",
					"outputs": [
						{
							"internalType": "bool",
							"name": "",
							"type": "bool"
						}
					],
					"stateMutability": "view",
					"type": "function"
				},
				{
					"inputs": [
						{
							"internalType": "address[]",
							"name": "_wallets",
							"type": "address[]"
						}
					],
					"name": "addPresaleList",
					"outputs": [],
					"stateMutability": "nonpayable",
					"type": "function"
				},
				{
					"inputs": [
						{
							"internalType": "address",
							"name": "to",
							"type": "address"
						},
						{
							"internalType": "uint256",
							"name": "tokenId",
							"type": "uint256"
						}
					],
					"name": "approve",
					"outputs": [],
					"stateMutability": "nonpayable",
					"type": "function"
				},
				{
					"inputs": [
						{
							"internalType": "address",
							"name": "owner",
							"type": "address"
						}
					],
					"name": "balanceOf",
					"outputs": [
						{
							"internalType": "uint256",
							"name": "",
							"type": "uint256"
						}
					],
					"stateMutability": "view",
					"type": "function"
				},
				{
					"inputs": [],
					"name": "baseURI",
					"outputs": [
						{
							"internalType": "string",
							"name": "",
							"type": "string"
						}
					],
					"stateMutability": "view",
					"type": "function"
				},
				{
					"inputs": [
						{
							"internalType": "uint256",
							"name": "_count",
							"type": "uint256"
						}
					],
					"name": "buy",
					"outputs": [],
					"stateMutability": "payable",
					"type": "function"
				},
				{
					"inputs": [
						{
							"internalType": "uint256",
							"name": "_count",
							"type": "uint256"
						}
					],
					"name": "buy_presale",
					"outputs": [],
					"stateMutability": "payable",
					"type": "function"
				},
				{
					"inputs": [],
					"name": "checkPresale",
					"outputs": [
						{
							"internalType": "bool",
							"name": "",
							"type": "bool"
						}
					],
					"stateMutability": "view",
					"type": "function"
				},
				{
					"inputs": [
						{
							"internalType": "uint256",
							"name": "tokenId",
							"type": "uint256"
						}
					],
					"name": "getApproved",
					"outputs": [
						{
							"internalType": "address",
							"name": "",
							"type": "address"
						}
					],
					"stateMutability": "view",
					"type": "function"
				},
				{
					"inputs": [
						{
							"internalType": "address",
							"name": "owner",
							"type": "address"
						},
						{
							"internalType": "address",
							"name": "operator",
							"type": "address"
						}
					],
					"name": "isApprovedForAll",
					"outputs": [
						{
							"internalType": "bool",
							"name": "",
							"type": "bool"
						}
					],
					"stateMutability": "view",
					"type": "function"
				},
				{
					"inputs": [],
					"name": "is_presale_active",
					"outputs": [
						{
							"internalType": "uint256",
							"name": "",
							"type": "uint256"
						}
					],
					"stateMutability": "view",
					"type": "function"
				},
				{
					"inputs": [],
					"name": "is_sale_active",
					"outputs": [
						{
							"internalType": "uint256",
							"name": "",
							"type": "uint256"
						}
					],
					"stateMutability": "view",
					"type": "function"
				},
				{
					"inputs": [],
					"name": "maxPerTransaction",
					"outputs": [
						{
							"internalType": "uint256",
							"name": "",
							"type": "uint256"
						}
					],
					"stateMutability": "view",
					"type": "function"
				},
				{
					"inputs": [],
					"name": "maxPerWalletPresale",
					"outputs": [
						{
							"internalType": "uint256",
							"name": "",
							"type": "uint256"
						}
					],
					"stateMutability": "view",
					"type": "function"
				},
				{
					"inputs": [],
					"name": "maxPerWalletPublicsale",
					"outputs": [
						{
							"internalType": "uint256",
							"name": "",
							"type": "uint256"
						}
					],
					"stateMutability": "view",
					"type": "function"
				},
				{
					"inputs": [],
					"name": "name",
					"outputs": [
						{
							"internalType": "string",
							"name": "",
							"type": "string"
						}
					],
					"stateMutability": "view",
					"type": "function"
				},
				{
					"inputs": [],
					"name": "owner",
					"outputs": [
						{
							"internalType": "address",
							"name": "",
							"type": "address"
						}
					],
					"stateMutability": "view",
					"type": "function"
				},
				{
					"inputs": [
						{
							"internalType": "uint256",
							"name": "tokenId",
							"type": "uint256"
						}
					],
					"name": "ownerOf",
					"outputs": [
						{
							"internalType": "address",
							"name": "",
							"type": "address"
						}
					],
					"stateMutability": "view",
					"type": "function"
				},
				{
					"inputs": [
						{
							"internalType": "bool",
							"name": "temp",
							"type": "bool"
						}
					],
					"name": "pre_Sale_status",
					"outputs": [],
					"stateMutability": "nonpayable",
					"type": "function"
				},
				{
					"inputs": [],
					"name": "presale_price",
					"outputs": [
						{
							"internalType": "uint256",
							"name": "",
							"type": "uint256"
						}
					],
					"stateMutability": "view",
					"type": "function"
				},
				{
					"inputs": [
						{
							"internalType": "bool",
							"name": "temp",
							"type": "bool"
						}
					],
					"name": "publicSale_status",
					"outputs": [],
					"stateMutability": "nonpayable",
					"type": "function"
				},
				{
					"inputs": [],
					"name": "public_sale_status",
					"outputs": [
						{
							"internalType": "bool",
							"name": "",
							"type": "bool"
						}
					],
					"stateMutability": "view",
					"type": "function"
				},
				{
					"inputs": [],
					"name": "renounceOwnership",
					"outputs": [],
					"stateMutability": "nonpayable",
					"type": "function"
				},
				{
					"inputs": [
						{
							"internalType": "address",
							"name": "from",
							"type": "address"
						},
						{
							"internalType": "address",
							"name": "to",
							"type": "address"
						},
						{
							"internalType": "uint256",
							"name": "tokenId",
							"type": "uint256"
						}
					],
					"name": "safeTransferFrom",
					"outputs": [],
					"stateMutability": "nonpayable",
					"type": "function"
				},
				{
					"inputs": [
						{
							"internalType": "address",
							"name": "from",
							"type": "address"
						},
						{
							"internalType": "address",
							"name": "to",
							"type": "address"
						},
						{
							"internalType": "uint256",
							"name": "tokenId",
							"type": "uint256"
						},
						{
							"internalType": "bytes",
							"name": "_data",
							"type": "bytes"
						}
					],
					"name": "safeTransferFrom",
					"outputs": [],
					"stateMutability": "nonpayable",
					"type": "function"
				},
				{
					"inputs": [
						{
							"internalType": "address[]",
							"name": "_wallets",
							"type": "address[]"
						}
					],
					"name": "sendGifts",
					"outputs": [],
					"stateMutability": "nonpayable",
					"type": "function"
				},
				{
					"inputs": [
						{
							"internalType": "address",
							"name": "operator",
							"type": "address"
						},
						{
							"internalType": "bool",
							"name": "approved",
							"type": "bool"
						}
					],
					"name": "setApprovalForAll",
					"outputs": [],
					"stateMutability": "nonpayable",
					"type": "function"
				},
				{
					"inputs": [
						{
							"internalType": "string",
							"name": "_uri",
							"type": "string"
						}
					],
					"name": "setBaseUri",
					"outputs": [],
					"stateMutability": "nonpayable",
					"type": "function"
				},
				{
					"inputs": [
						{
							"internalType": "bytes4",
							"name": "interfaceId",
							"type": "bytes4"
						}
					],
					"name": "supportsInterface",
					"outputs": [
						{
							"internalType": "bool",
							"name": "",
							"type": "bool"
						}
					],
					"stateMutability": "view",
					"type": "function"
				},
				{
					"inputs": [],
					"name": "symbol",
					"outputs": [
						{
							"internalType": "string",
							"name": "",
							"type": "string"
						}
					],
					"stateMutability": "view",
					"type": "function"
				},
				{
					"inputs": [],
					"name": "tokenPrice",
					"outputs": [
						{
							"internalType": "uint256",
							"name": "",
							"type": "uint256"
						}
					],
					"stateMutability": "view",
					"type": "function"
				},
				{
					"inputs": [
						{
							"internalType": "uint256",
							"name": "tokenId",
							"type": "uint256"
						}
					],
					"name": "tokenURI",
					"outputs": [
						{
							"internalType": "string",
							"name": "",
							"type": "string"
						}
					],
					"stateMutability": "view",
					"type": "function"
				},
				{
					"inputs": [],
					"name": "totalSupply",
					"outputs": [
						{
							"internalType": "uint256",
							"name": "",
							"type": "uint256"
						}
					],
					"stateMutability": "view",
					"type": "function"
				},
				{
					"inputs": [
						{
							"internalType": "address",
							"name": "from",
							"type": "address"
						},
						{
							"internalType": "address",
							"name": "to",
							"type": "address"
						},
						{
							"internalType": "uint256",
							"name": "tokenId",
							"type": "uint256"
						}
					],
					"name": "transferFrom",
					"outputs": [],
					"stateMutability": "nonpayable",
					"type": "function"
				},
				{
					"inputs": [
						{
							"internalType": "address",
							"name": "newOwner",
							"type": "address"
						}
					],
					"name": "transferOwnership",
					"outputs": [],
					"stateMutability": "nonpayable",
					"type": "function"
				},
				{
					"inputs": [
						{
							"internalType": "uint256",
							"name": "price",
							"type": "uint256"
						}
					],
					"name": "update_preSale_price",
					"outputs": [],
					"stateMutability": "nonpayable",
					"type": "function"
				},
				{
					"inputs": [
						{
							"internalType": "uint256",
							"name": "price",
							"type": "uint256"
						}
					],
					"name": "update_public_price",
					"outputs": [],
					"stateMutability": "nonpayable",
					"type": "function"
				},
				{
					"inputs": [],
					"name": "withdraw",
					"outputs": [],
					"stateMutability": "nonpayable",
					"type": "function"
				}
			],
			"devdoc": {
				"kind": "dev",
				"methods": {
					"approve(address,uint256)": {
						"details": "See {IERC721-approve}."
					},
					"balanceOf(address)": {
						"details": "See {IERC721-balanceOf}."
					},
					"getApproved(uint256)": {
						"details": "See {IERC721-getApproved}."
					},
					"isApprovedForAll(address,address)": {
						"details": "See {IERC721-isApprovedForAll}."
					},
					"name()": {
						"details": "See {IERC721Metadata-name}."
					},
					"owner()": {
						"details": "Returns the address of the current owner."
					},
					"ownerOf(uint256)": {
						"details": "See {IERC721-ownerOf}."
					},
					"renounceOwnership()": {
						"details": "Leaves the contract without owner. It will not be possible to call `onlyOwner` functions anymore. Can only be called by the current owner. NOTE: Renouncing ownership will leave the contract without an owner, thereby removing any functionality that is only available to the owner."
					},
					"safeTransferFrom(address,address,uint256)": {
						"details": "See {IERC721-safeTransferFrom}."
					},
					"safeTransferFrom(address,address,uint256,bytes)": {
						"details": "See {IERC721-safeTransferFrom}."
					},
					"setApprovalForAll(address,bool)": {
						"details": "See {IERC721-setApprovalForAll}."
					},
					"supportsInterface(bytes4)": {
						"details": "See {IERC165-supportsInterface}."
					},
					"symbol()": {
						"details": "See {IERC721Metadata-symbol}."
					},
					"tokenURI(uint256)": {
						"details": "See {IERC721Metadata-tokenURI}."
					},
					"transferFrom(address,address,uint256)": {
						"details": "See {IERC721-transferFrom}."
					},
					"transferOwnership(address)": {
						"details": "Transfers ownership of the contract to a new account (`newOwner`). Can only be called by the current owner."
					}
				},
				"version": 1
			},
			"evm": {
				"assembly": "    /* \"contracts/Token.sol\":33442:37244  contract investalog is Ownable, ERC721 {... */\n  mstore(0x40, 0x80)\n    /* \"contracts/Token.sol\":33517:33525  .1 ether */\n  0x016345785d8a0000\n    /* \"contracts/Token.sol\":33492:33525  uint public tokenPrice = .1 ether */\n  0x07\n  dup2\n  swap1\n  sstore\n    /* \"contracts/Token.sol\":33568:33604  uint public presale_price = .1 ether */\n  0x08\n  sstore\n  0x00\n    /* \"contracts/Token.sol\":33610:33637  uint public totalSupply = 0 */\n  0x09\n  sstore\n    /* \"contracts/Token.sol\":33644:33678  bool public Presale_status = false */\n  0x0a\n  dup1\n  sload\n  not(0xffff)\n    /* \"contracts/Token.sol\":33684:33722  bool public public_sale_status = false */\n  and\n  swap1\n  sstore\n    /* \"contracts/Token.sol\":33842:33844  20 */\n  0x14\n    /* \"contracts/Token.sol\":33810:33844  uint public maxPerTransaction = 20 */\n  0x0d\n  sstore\n    /* \"contracts/Token.sol\":33906:33907  5 */\n  0x05\n    /* \"contracts/Token.sol\":33872:33907  uint public maxPerWalletPresale = 5 */\n  0x0e\n  dup2\n  swap1\n  sstore\n    /* \"contracts/Token.sol\":33937:33975  uint public maxPerWalletPublicsale = 5 */\n  0x0f\n  sstore\n    /* \"contracts/Token.sol\":34021:34064  constructor() ERC721(\"Investalog\", \"IVG\"){} */\n  callvalue\n  dup1\n  iszero\n  tag_1\n  jumpi\n  0x00\n  dup1\n  revert\ntag_1:\n  pop\n    /* \"contracts/Token.sol\":21471:21584  constructor(string memory name_, string memory symbol_) {... */\n  mload(0x40)\n  dup1\n  0x40\n  add\n  0x40\n  mstore\n  dup1\n  0x0a\n  dup2\n  mstore\n  0x20\n  add\n  shl(0xb0, 0x496e76657374616c6f67)\n  dup2\n  mstore\n  pop\n  mload(0x40)\n  dup1\n  0x40\n  add\n  0x40\n  mstore\n  dup1\n  0x03\n  dup2\n  mstore\n  0x20\n  add\n  shl(0xe8, 0x495647)\n  dup2\n  mstore\n  pop\n    /* \"contracts/Token.sol\":12995:13018  _setOwner(_msgSender()) */\n  tag_6\n    /* \"contracts/Token.sol\":13005:13017  _msgSender() */\n  tag_7\n    /* \"contracts/Token.sol\":13005:13015  _msgSender */\n  shl(0x20, tag_8)\n    /* \"contracts/Token.sol\":13005:13017  _msgSender() */\n  0x20\n  shr\n  jump\t// in\ntag_7:\n    /* \"contracts/Token.sol\":12995:13004  _setOwner */\n  tag_9\n    /* \"contracts/Token.sol\":12995:13018  _setOwner(_msgSender()) */\n  jump\t// in\ntag_6:\n    /* \"contracts/Token.sol\":21537:21550  _name = name_ */\n  dup2\n  mload\n  tag_11\n  swap1\n    /* \"contracts/Token.sol\":21537:21542  _name */\n  0x01\n  swap1\n    /* \"contracts/Token.sol\":21537:21550  _name = name_ */\n  0x20\n  dup6\n  add\n  swap1\n  tag_12\n  jump\t// in\ntag_11:\n  pop\n    /* \"contracts/Token.sol\":21560:21577  _symbol = symbol_ */\n  dup1\n  mload\n  tag_13\n  swap1\n    /* \"contracts/Token.sol\":21560:21567  _symbol */\n  0x02\n  swap1\n    /* \"contracts/Token.sol\":21560:21577  _symbol = symbol_ */\n  0x20\n  dup5\n  add\n  swap1\n  tag_12\n  jump\t// in\ntag_13:\n  pop\n    /* \"contracts/Token.sol\":21471:21584  constructor(string memory name_, string memory symbol_) {... */\n  pop\n  pop\n    /* \"contracts/Token.sol\":33442:37244  contract investalog is Ownable, ERC721 {... */\n  jump(tag_29)\n    /* \"contracts/Token.sol\":587:683  function _msgSender() internal view virtual returns (address) {... */\ntag_8:\n    /* \"contracts/Token.sol\":666:676  msg.sender */\n  caller\n    /* \"contracts/Token.sol\":587:683  function _msgSender() internal view virtual returns (address) {... */\n  swap1\n  jump\t// out\n    /* \"contracts/Token.sol\":14169:14338  function _setOwner(address newOwner) private {... */\ntag_9:\n    /* \"contracts/Token.sol\":14224:14240  address oldOwner */\n  0x00\n    /* \"contracts/Token.sol\":14243:14249  _owner */\n  dup1\n  sload\n  sub(shl(0xa0, 0x01), 0x01)\n    /* \"contracts/Token.sol\":14259:14276  _owner = newOwner */\n  dup4\n  dup2\n  and\n  not(sub(shl(0xa0, 0x01), 0x01))\n  dup4\n  and\n  dup2\n  or\n  dup5\n  sstore\n    /* \"contracts/Token.sol\":14291:14331  OwnershipTransferred(oldOwner, newOwner) */\n  mload(0x40)\n    /* \"contracts/Token.sol\":14243:14249  _owner */\n  swap2\n  swap1\n  swap3\n  and\n  swap3\n  dup4\n  swap2\n    /* \"contracts/Token.sol\":14291:14331  OwnershipTransferred(oldOwner, newOwner) */\n  0x8be0079c531659141344cd1fd0a4f28419497f9722a3daafe3b4186f6b6457e0\n  swap2\n    /* \"contracts/Token.sol\":14224:14240  address oldOwner */\n  swap1\n    /* \"contracts/Token.sol\":14291:14331  OwnershipTransferred(oldOwner, newOwner) */\n  log3\n    /* \"contracts/Token.sol\":14169:14338  function _setOwner(address newOwner) private {... */\n  pop\n  pop\n  jump\t// out\n    /* \"contracts/Token.sol\":33442:37244  contract investalog is Ownable, ERC721 {... */\ntag_12:\n  dup3\n  dup1\n  sload\n  tag_18\n  swap1\n  tag_19\n  jump\t// in\ntag_18:\n  swap1\n  0x00\n  mstore\n  keccak256(0x00, 0x20)\n  swap1\n  0x1f\n  add\n  0x20\n  swap1\n  div\n  dup2\n  add\n  swap3\n  dup3\n  tag_21\n  jumpi\n  0x00\n  dup6\n  sstore\n  jump(tag_24)\ntag_21:\n  dup3\n  0x1f\n  lt\n  tag_22\n  jumpi\n  dup1\n  mload\n  not(0xff)\n  and\n  dup4\n  dup1\n  add\n  or\n  dup6\n  sstore\n  jump(tag_24)\ntag_22:\n  dup3\n  dup1\n  add\n  0x01\n  add\n  dup6\n  sstore\n  dup3\n  iszero\n  tag_24\n  jumpi\n  swap2\n  dup3\n  add\ntag_23:\n  dup3\n  dup2\n  gt\n  iszero\n  tag_24\n  jumpi\n  dup3\n  mload\n  dup3\n  sstore\n  swap2\n  0x20\n  add\n  swap2\n  swap1\n  0x01\n  add\n  swap1\n  jump(tag_23)\ntag_24:\n  pop\n  tag_25\n  swap3\n  swap2\n  pop\n  tag_26\n  jump\t// in\ntag_25:\n  pop\n  swap1\n  jump\t// out\ntag_26:\ntag_27:\n  dup1\n  dup3\n  gt\n  iszero\n  tag_25\n  jumpi\n  0x00\n  dup2\n  sstore\n  0x01\n  add\n  jump(tag_27)\n    /* \"#utility.yul\":14:394   */\ntag_19:\n    /* \"#utility.yul\":99:100   */\n  0x02\n    /* \"#utility.yul\":89:101   */\n  dup2\n  div\n    /* \"#utility.yul\":146:147   */\n  0x01\n    /* \"#utility.yul\":136:148   */\n  dup3\n  and\n  dup1\n    /* \"#utility.yul\":157:159   */\n  tag_31\n  jumpi\n    /* \"#utility.yul\":211:215   */\n  0x7f\n    /* \"#utility.yul\":203:209   */\n  dup3\n    /* \"#utility.yul\":199:216   */\n  and\n    /* \"#utility.yul\":189:216   */\n  swap2\n  pop\n    /* \"#utility.yul\":157:159   */\ntag_31:\n    /* \"#utility.yul\":264:266   */\n  0x20\n    /* \"#utility.yul\":256:262   */\n  dup3\n    /* \"#utility.yul\":253:267   */\n  lt\n    /* \"#utility.yul\":233:251   */\n  dup2\n    /* \"#utility.yul\":230:268   */\n  eq\n    /* \"#utility.yul\":227:229   */\n  iszero\n  tag_32\n  jumpi\n    /* \"#utility.yul\":310:320   */\n  0x4e487b71\n    /* \"#utility.yul\":305:308   */\n  0xe0\n    /* \"#utility.yul\":301:321   */\n  shl\n    /* \"#utility.yul\":298:299   */\n  0x00\n    /* \"#utility.yul\":291:322   */\n  mstore\n    /* \"#utility.yul\":345:349   */\n  0x22\n    /* \"#utility.yul\":342:343   */\n  0x04\n    /* \"#utility.yul\":335:350   */\n  mstore\n    /* \"#utility.yul\":373:377   */\n  0x24\n    /* \"#utility.yul\":370:371   */\n  0x00\n    /* \"#utility.yul\":363:378   */\n  revert\n    /* \"#utility.yul\":227:229   */\ntag_32:\n  pop\n    /* \"#utility.yul\":69:394   */\n  swap2\n  swap1\n  pop\n  jump\t// out\ntag_29:\n    /* \"contracts/Token.sol\":33442:37244  contract investalog is Ownable, ERC721 {... */\n  dataSize(sub_0)\n  dup1\n  dataOffset(sub_0)\n  0x00\n  codecopy\n  0x00\n  return\nstop\n\nsub_0: assembly {\n        /* \"contracts/Token.sol\":33442:37244  contract investalog is Ownable, ERC721 {... */\n      mstore(0x40, 0x80)\n      jumpi(tag_1, lt(calldatasize, 0x04))\n      shr(0xe0, calldataload(0x00))\n      dup1\n      0x7ff9b596\n      gt\n      tag_40\n      jumpi\n      dup1\n      0xba6dd6f0\n      gt\n      tag_41\n      jumpi\n      dup1\n      0xe2a70eaf\n      gt\n      tag_42\n      jumpi\n      dup1\n      0xe2a70eaf\n      eq\n      tag_35\n      jumpi\n      dup1\n      0xe985e9c5\n      eq\n      tag_36\n      jumpi\n      dup1\n      0xebb31510\n      eq\n      tag_37\n      jumpi\n      dup1\n      0xef5f1985\n      eq\n      tag_38\n      jumpi\n      dup1\n      0xf2fde38b\n      eq\n      tag_39\n      jumpi\n      jump(tag_1)\n    tag_42:\n      dup1\n      0xba6dd6f0\n      eq\n      tag_30\n      jumpi\n      dup1\n      0xbb2841c5\n      eq\n      tag_31\n      jumpi\n      dup1\n      0xc87b56dd\n      eq\n      tag_32\n      jumpi\n      dup1\n      0xcd7de458\n      eq\n      tag_33\n      jumpi\n      dup1\n      0xd96a094a\n      eq\n      tag_34\n      jumpi\n      jump(tag_1)\n    tag_41:\n      dup1\n      0x969745e8\n      gt\n      tag_43\n      jumpi\n      dup1\n      0x969745e8\n      eq\n      tag_25\n      jumpi\n      dup1\n      0x996953fc\n      eq\n      tag_26\n      jumpi\n      dup1\n      0xa0bcfc7f\n      eq\n      tag_27\n      jumpi\n      dup1\n      0xa22cb465\n      eq\n      tag_28\n      jumpi\n      dup1\n      0xb88d4fde\n      eq\n      tag_29\n      jumpi\n      jump(tag_1)\n    tag_43:\n      dup1\n      0x7ff9b596\n      eq\n      tag_21\n      jumpi\n      dup1\n      0x8da5cb5b\n      eq\n      tag_22\n      jumpi\n      dup1\n      0x95d89b41\n      eq\n      tag_23\n      jumpi\n      dup1\n      0x95ea5e67\n      eq\n      tag_24\n      jumpi\n      jump(tag_1)\n    tag_40:\n      dup1\n      0x3ccfd60b\n      gt\n      tag_44\n      jumpi\n      dup1\n      0x63adc5a5\n      gt\n      tag_45\n      jumpi\n      dup1\n      0x63adc5a5\n      eq\n      tag_16\n      jumpi\n      dup1\n      0x6c0360eb\n      eq\n      tag_17\n      jumpi\n      dup1\n      0x70a08231\n      eq\n      tag_18\n      jumpi\n      dup1\n      0x715018a6\n      eq\n      tag_19\n      jumpi\n      dup1\n      0x7c8255db\n      eq\n      tag_20\n      jumpi\n      jump(tag_1)\n    tag_45:\n      dup1\n      0x3ccfd60b\n      eq\n      tag_11\n      jumpi\n      dup1\n      0x4235f70b\n      eq\n      tag_12\n      jumpi\n      dup1\n      0x42842e0e\n      eq\n      tag_13\n      jumpi\n      dup1\n      0x4b980d67\n      eq\n      tag_14\n      jumpi\n      dup1\n      0x6352211e\n      eq\n      tag_15\n      jumpi\n      jump(tag_1)\n    tag_44:\n      dup1\n      0x095ea7b3\n      gt\n      tag_46\n      jumpi\n      dup1\n      0x095ea7b3\n      eq\n      tag_6\n      jumpi\n      dup1\n      0x18160ddd\n      eq\n      tag_7\n      jumpi\n      dup1\n      0x1cef37e4\n      eq\n      tag_8\n      jumpi\n      dup1\n      0x230a9b8d\n      eq\n      tag_9\n      jumpi\n      dup1\n      0x23b872dd\n      eq\n      tag_10\n      jumpi\n      jump(tag_1)\n    tag_46:\n      dup1\n      0x01ffc9a7\n      eq\n      tag_2\n      jumpi\n      dup1\n      0x02689663\n      eq\n      tag_3\n      jumpi\n      dup1\n      0x06fdde03\n      eq\n      tag_4\n      jumpi\n      dup1\n      0x081812fc\n      eq\n      tag_5\n      jumpi\n    tag_1:\n      0x00\n      dup1\n      revert\n        /* \"contracts/Token.sol\":21651:21951  function supportsInterface(bytes4 interfaceId) public view virtual override(ERC165, IERC165) returns (bool) {... */\n    tag_2:\n      callvalue\n      dup1\n      iszero\n      tag_47\n      jumpi\n      0x00\n      dup1\n      revert\n    tag_47:\n      pop\n      tag_48\n      tag_49\n      calldatasize\n      0x04\n      tag_50\n      jump\t// in\n    tag_49:\n      tag_51\n      jump\t// in\n    tag_48:\n      mload(0x40)\n      tag_52\n      swap2\n      swap1\n      tag_53\n      jump\t// in\n    tag_52:\n      mload(0x40)\n      dup1\n      swap2\n      sub\n      swap1\n      return\n        /* \"contracts/Token.sol\":36411:36507  function checkPresale() public view returns(bool){... */\n    tag_3:\n      callvalue\n      dup1\n      iszero\n      tag_54\n      jumpi\n      0x00\n      dup1\n      revert\n    tag_54:\n      pop\n      tag_48\n      tag_56\n      jump\t// in\n        /* \"contracts/Token.sol\":22569:22667  function name() public view virtual override returns (string memory) {... */\n    tag_4:\n      callvalue\n      dup1\n      iszero\n      tag_58\n      jumpi\n      0x00\n      dup1\n      revert\n    tag_58:\n      pop\n      tag_59\n      tag_60\n      jump\t// in\n    tag_59:\n      mload(0x40)\n      tag_52\n      swap2\n      swap1\n      tag_62\n      jump\t// in\n        /* \"contracts/Token.sol\":24080:24297  function getApproved(uint256 tokenId) public view virtual override returns (address) {... */\n    tag_5:\n      callvalue\n      dup1\n      iszero\n      tag_63\n      jumpi\n      0x00\n      dup1\n      revert\n    tag_63:\n      pop\n      tag_64\n      tag_65\n      calldatasize\n      0x04\n      tag_66\n      jump\t// in\n    tag_65:\n      tag_67\n      jump\t// in\n    tag_64:\n      mload(0x40)\n      tag_52\n      swap2\n      swap1\n      tag_69\n      jump\t// in\n        /* \"contracts/Token.sol\":23618:24019  function approve(address to, uint256 tokenId) public virtual override {... */\n    tag_6:\n      callvalue\n      dup1\n      iszero\n      tag_70\n      jumpi\n      0x00\n      dup1\n      revert\n    tag_70:\n      pop\n      tag_71\n      tag_72\n      calldatasize\n      0x04\n      tag_73\n      jump\t// in\n    tag_72:\n      tag_74\n      jump\t// in\n    tag_71:\n      stop\n        /* \"contracts/Token.sol\":33610:33637  uint public totalSupply = 0 */\n    tag_7:\n      callvalue\n      dup1\n      iszero\n      tag_75\n      jumpi\n      0x00\n      dup1\n      revert\n    tag_75:\n      pop\n      tag_76\n      tag_77\n      jump\t// in\n    tag_76:\n      mload(0x40)\n      tag_52\n      swap2\n      swap1\n      tag_79\n      jump\t// in\n        /* \"contracts/Token.sol\":36706:36805  function publicSale_status(bool temp) external onlyOwner {... */\n    tag_8:\n      callvalue\n      dup1\n      iszero\n      tag_80\n      jumpi\n      0x00\n      dup1\n      revert\n    tag_80:\n      pop\n      tag_71\n      tag_82\n      calldatasize\n      0x04\n      tag_83\n      jump\t// in\n    tag_82:\n      tag_84\n      jump\t// in\n        /* \"contracts/Token.sol\":33872:33907  uint public maxPerWalletPresale = 5 */\n    tag_9:\n      callvalue\n      dup1\n      iszero\n      tag_85\n      jumpi\n      0x00\n      dup1\n      revert\n    tag_85:\n      pop\n      tag_76\n      tag_87\n      jump\t// in\n        /* \"contracts/Token.sol\":24944:25274  function transferFrom(... */\n    tag_10:\n      callvalue\n      dup1\n      iszero\n      tag_89\n      jumpi\n      0x00\n      dup1\n      revert\n    tag_89:\n      pop\n      tag_71\n      tag_91\n      calldatasize\n      0x04\n      tag_92\n      jump\t// in\n    tag_91:\n      tag_93\n      jump\t// in\n        /* \"contracts/Token.sol\":37137:37241  function withdraw() external onlyOwner {... */\n    tag_11:\n      callvalue\n      dup1\n      iszero\n      tag_94\n      jumpi\n      0x00\n      dup1\n      revert\n    tag_94:\n      pop\n      tag_71\n      tag_96\n      jump\t// in\n        /* \"contracts/Token.sol\":33937:33975  uint public maxPerWalletPublicsale = 5 */\n    tag_12:\n      callvalue\n      dup1\n      iszero\n      tag_97\n      jumpi\n      0x00\n      dup1\n      revert\n    tag_97:\n      pop\n      tag_76\n      tag_99\n      jump\t// in\n        /* \"contracts/Token.sol\":25340:25519  function safeTransferFrom(... */\n    tag_13:\n      callvalue\n      dup1\n      iszero\n      tag_101\n      jumpi\n      0x00\n      dup1\n      revert\n    tag_101:\n      pop\n      tag_71\n      tag_103\n      calldatasize\n      0x04\n      tag_92\n      jump\t// in\n    tag_103:\n      tag_104\n      jump\t// in\n        /* \"contracts/Token.sol\":33810:33844  uint public maxPerTransaction = 20 */\n    tag_14:\n      callvalue\n      dup1\n      iszero\n      tag_105\n      jumpi\n      0x00\n      dup1\n      revert\n    tag_105:\n      pop\n      tag_76\n      tag_107\n      jump\t// in\n        /* \"contracts/Token.sol\":22272:22507  function ownerOf(uint256 tokenId) public view virtual override returns (address) {... */\n    tag_15:\n      callvalue\n      dup1\n      iszero\n      tag_109\n      jumpi\n      0x00\n      dup1\n      revert\n    tag_109:\n      pop\n      tag_64\n      tag_111\n      calldatasize\n      0x04\n      tag_66\n      jump\t// in\n    tag_111:\n      tag_112\n      jump\t// in\n        /* \"contracts/Token.sol\":36914:37013  function update_preSale_price(uint price) external onlyOwner {... */\n    tag_16:\n      callvalue\n      dup1\n      iszero\n      tag_114\n      jumpi\n      0x00\n      dup1\n      revert\n    tag_114:\n      pop\n      tag_71\n      tag_116\n      calldatasize\n      0x04\n      tag_66\n      jump\t// in\n    tag_116:\n      tag_117\n      jump\t// in\n        /* \"contracts/Token.sol\":33783:33804  string public baseURI */\n    tag_17:\n      callvalue\n      dup1\n      iszero\n      tag_118\n      jumpi\n      0x00\n      dup1\n      revert\n    tag_118:\n      pop\n      tag_59\n      tag_120\n      jump\t// in\n        /* \"contracts/Token.sol\":22010:22215  function balanceOf(address owner) public view virtual override returns (uint256) {... */\n    tag_18:\n      callvalue\n      dup1\n      iszero\n      tag_122\n      jumpi\n      0x00\n      dup1\n      revert\n    tag_122:\n      pop\n      tag_76\n      tag_124\n      calldatasize\n      0x04\n      tag_125\n      jump\t// in\n    tag_124:\n      tag_126\n      jump\t// in\n        /* \"contracts/Token.sol\":13733:13825  function renounceOwnership() public virtual onlyOwner {... */\n    tag_19:\n      callvalue\n      dup1\n      iszero\n      tag_128\n      jumpi\n      0x00\n      dup1\n      revert\n    tag_128:\n      pop\n      tag_71\n      tag_130\n      jump\t// in\n        /* \"contracts/Token.sol\":35475:35924  function sendGifts(address[] memory _wallets) public onlyOwner{... */\n    tag_20:\n      callvalue\n      dup1\n      iszero\n      tag_131\n      jumpi\n      0x00\n      dup1\n      revert\n    tag_131:\n      pop\n      tag_71\n      tag_133\n      calldatasize\n      0x04\n      tag_134\n      jump\t// in\n    tag_133:\n      tag_135\n      jump\t// in\n        /* \"contracts/Token.sol\":33492:33525  uint public tokenPrice = .1 ether */\n    tag_21:\n      callvalue\n      dup1\n      iszero\n      tag_136\n      jumpi\n      0x00\n      dup1\n      revert\n    tag_136:\n      pop\n      tag_76\n      tag_138\n      jump\t// in\n        /* \"contracts/Token.sol\":13101:13186  function owner() public view virtual returns (address) {... */\n    tag_22:\n      callvalue\n      dup1\n      iszero\n      tag_140\n      jumpi\n      0x00\n      dup1\n      revert\n    tag_140:\n      pop\n      tag_64\n      tag_142\n      jump\t// in\n        /* \"contracts/Token.sol\":22731:22833  function symbol() public view virtual override returns (string memory) {... */\n    tag_23:\n      callvalue\n      dup1\n      iszero\n      tag_144\n      jumpi\n      0x00\n      dup1\n      revert\n    tag_144:\n      pop\n      tag_59\n      tag_146\n      jump\t// in\n        /* \"contracts/Token.sol\":33684:33722  bool public public_sale_status = false */\n    tag_24:\n      callvalue\n      dup1\n      iszero\n      tag_148\n      jumpi\n      0x00\n      dup1\n      revert\n    tag_148:\n      pop\n      tag_48\n      tag_150\n      jump\t// in\n        /* \"contracts/Token.sol\":33568:33604  uint public presale_price = .1 ether */\n    tag_25:\n      callvalue\n      dup1\n      iszero\n      tag_152\n      jumpi\n      0x00\n      dup1\n      revert\n    tag_152:\n      pop\n      tag_76\n      tag_154\n      jump\t// in\n        /* \"contracts/Token.sol\":36109:36254  function is_presale_active() public view returns(uint){... */\n    tag_26:\n      callvalue\n      dup1\n      iszero\n      tag_156\n      jumpi\n      0x00\n      dup1\n      revert\n    tag_156:\n      pop\n      tag_76\n      tag_158\n      jump\t// in\n        /* \"contracts/Token.sol\":36512:36602  function setBaseUri(string memory _uri) external onlyOwner {... */\n    tag_27:\n      callvalue\n      dup1\n      iszero\n      tag_160\n      jumpi\n      0x00\n      dup1\n      revert\n    tag_160:\n      pop\n      tag_71\n      tag_162\n      calldatasize\n      0x04\n      tag_163\n      jump\t// in\n    tag_162:\n      tag_164\n      jump\t// in\n        /* \"contracts/Token.sol\":24364:24654  function setApprovalForAll(address operator, bool approved) public virtual override {... */\n    tag_28:\n      callvalue\n      dup1\n      iszero\n      tag_165\n      jumpi\n      0x00\n      dup1\n      revert\n    tag_165:\n      pop\n      tag_71\n      tag_167\n      calldatasize\n      0x04\n      tag_168\n      jump\t// in\n    tag_167:\n      tag_169\n      jump\t// in\n        /* \"contracts/Token.sol\":25585:25905  function safeTransferFrom(... */\n    tag_29:\n      callvalue\n      dup1\n      iszero\n      tag_170\n      jumpi\n      0x00\n      dup1\n      revert\n    tag_170:\n      pop\n      tag_71\n      tag_172\n      calldatasize\n      0x04\n      tag_173\n      jump\t// in\n    tag_172:\n      tag_174\n      jump\t// in\n        /* \"contracts/Token.sol\":33644:33678  bool public Presale_status = false */\n    tag_30:\n      callvalue\n      dup1\n      iszero\n      tag_175\n      jumpi\n      0x00\n      dup1\n      revert\n    tag_175:\n      pop\n      tag_48\n      tag_177\n      jump\t// in\n        /* \"contracts/Token.sol\":34754:35469  function buy_presale(uint _count) public payable{ ... */\n    tag_31:\n      tag_71\n      tag_180\n      calldatasize\n      0x04\n      tag_66\n      jump\t// in\n    tag_180:\n      tag_181\n      jump\t// in\n        /* \"contracts/Token.sol\":22899:23228  function tokenURI(uint256 tokenId) public view virtual override returns (string memory) {... */\n    tag_32:\n      callvalue\n      dup1\n      iszero\n      tag_182\n      jumpi\n      0x00\n      dup1\n      revert\n    tag_182:\n      pop\n      tag_59\n      tag_184\n      calldatasize\n      0x04\n      tag_66\n      jump\t// in\n    tag_184:\n      tag_185\n      jump\t// in\n        /* \"contracts/Token.sol\":36261:36405  function is_sale_active() public view returns(uint){... */\n    tag_33:\n      callvalue\n      dup1\n      iszero\n      tag_187\n      jumpi\n      0x00\n      dup1\n      revert\n    tag_187:\n      pop\n      tag_76\n      tag_189\n      jump\t// in\n        /* \"contracts/Token.sol\":34069:34718  function buy(uint _count) public payable{... */\n    tag_34:\n      tag_71\n      tag_192\n      calldatasize\n      0x04\n      tag_66\n      jump\t// in\n    tag_192:\n      tag_193\n      jump\t// in\n        /* \"contracts/Token.sol\":36811:36906  function update_public_price(uint price) external onlyOwner {... */\n    tag_35:\n      callvalue\n      dup1\n      iszero\n      tag_194\n      jumpi\n      0x00\n      dup1\n      revert\n    tag_194:\n      pop\n      tag_71\n      tag_196\n      calldatasize\n      0x04\n      tag_66\n      jump\t// in\n    tag_196:\n      tag_197\n      jump\t// in\n        /* \"contracts/Token.sol\":24720:24882  function isApprovedForAll(address owner, address operator) public view virtual override returns (bool) {... */\n    tag_36:\n      callvalue\n      dup1\n      iszero\n      tag_198\n      jumpi\n      0x00\n      dup1\n      revert\n    tag_198:\n      pop\n      tag_48\n      tag_200\n      calldatasize\n      0x04\n      tag_201\n      jump\t// in\n    tag_200:\n      tag_202\n      jump\t// in\n        /* \"contracts/Token.sol\":35934:36099  function addPresaleList(address[] memory _wallets) public onlyOwner{... */\n    tag_37:\n      callvalue\n      dup1\n      iszero\n      tag_204\n      jumpi\n      0x00\n      dup1\n      revert\n    tag_204:\n      pop\n      tag_71\n      tag_206\n      calldatasize\n      0x04\n      tag_134\n      jump\t// in\n    tag_206:\n      tag_207\n      jump\t// in\n        /* \"contracts/Token.sol\":36608:36701  function pre_Sale_status(bool temp) external onlyOwner {... */\n    tag_38:\n      callvalue\n      dup1\n      iszero\n      tag_208\n      jumpi\n      0x00\n      dup1\n      revert\n    tag_208:\n      pop\n      tag_71\n      tag_210\n      calldatasize\n      0x04\n      tag_83\n      jump\t// in\n    tag_210:\n      tag_211\n      jump\t// in\n        /* \"contracts/Token.sol\":13974:14163  function transferOwnership(address newOwner) public virtual onlyOwner {... */\n    tag_39:\n      callvalue\n      dup1\n      iszero\n      tag_212\n      jumpi\n      0x00\n      dup1\n      revert\n    tag_212:\n      pop\n      tag_71\n      tag_214\n      calldatasize\n      0x04\n      tag_125\n      jump\t// in\n    tag_214:\n      tag_215\n      jump\t// in\n        /* \"contracts/Token.sol\":21651:21951  function supportsInterface(bytes4 interfaceId) public view virtual override(ERC165, IERC165) returns (bool) {... */\n    tag_51:\n        /* \"contracts/Token.sol\":21753:21757  bool */\n      0x00\n      not(sub(shl(0xe0, 0x01), 0x01))\n        /* \"contracts/Token.sol\":21788:21828  interfaceId == type(IERC721).interfaceId */\n      dup3\n      and\n      shl(0xe0, 0x80ac58cd)\n      eq\n      dup1\n        /* \"contracts/Token.sol\":21788:21892  interfaceId == type(IERC721).interfaceId ||... */\n      tag_217\n      jumpi\n      pop\n      not(sub(shl(0xe0, 0x01), 0x01))\n        /* \"contracts/Token.sol\":21844:21892  interfaceId == type(IERC721Metadata).interfaceId */\n      dup3\n      and\n      shl(0xe0, 0x5b5e139f)\n      eq\n        /* \"contracts/Token.sol\":21788:21892  interfaceId == type(IERC721).interfaceId ||... */\n    tag_217:\n        /* \"contracts/Token.sol\":21788:21944  interfaceId == type(IERC721).interfaceId ||... */\n      dup1\n      tag_219\n      jumpi\n      pop\n        /* \"contracts/Token.sol\":21908:21944  super.supportsInterface(interfaceId) */\n      tag_219\n        /* \"contracts/Token.sol\":21932:21943  interfaceId */\n      dup3\n        /* \"contracts/Token.sol\":21908:21931  super.supportsInterface */\n      tag_220\n        /* \"contracts/Token.sol\":21908:21944  super.supportsInterface(interfaceId) */\n      jump\t// in\n    tag_219:\n        /* \"contracts/Token.sol\":21769:21944  return... */\n      swap1\n      pop\n        /* \"contracts/Token.sol\":21651:21951  function supportsInterface(bytes4 interfaceId) public view virtual override(ERC165, IERC165) returns (bool) {... */\n    tag_216:\n      swap2\n      swap1\n      pop\n      jump\t// out\n        /* \"contracts/Token.sol\":36411:36507  function checkPresale() public view returns(bool){... */\n    tag_56:\n        /* \"contracts/Token.sol\":36489:36499  msg.sender */\n      caller\n        /* \"contracts/Token.sol\":36455:36459  bool */\n      0x00\n        /* \"contracts/Token.sol\":36477:36500  presaleList[msg.sender] */\n      swap1\n      dup2\n      mstore\n        /* \"contracts/Token.sol\":36477:36488  presaleList */\n      0x0b\n        /* \"contracts/Token.sol\":36477:36500  presaleList[msg.sender] */\n      0x20\n      mstore\n      0x40\n      swap1\n      keccak256\n      sload\n      0xff\n      and\n        /* \"contracts/Token.sol\":36411:36507  function checkPresale() public view returns(bool){... */\n      swap1\n      jump\t// out\n        /* \"contracts/Token.sol\":22569:22667  function name() public view virtual override returns (string memory) {... */\n    tag_60:\n        /* \"contracts/Token.sol\":22623:22636  string memory */\n      0x60\n        /* \"contracts/Token.sol\":22655:22660  _name */\n      0x01\n        /* \"contracts/Token.sol\":22648:22660  return _name */\n      dup1\n      sload\n      tag_223\n      swap1\n      tag_224\n      jump\t// in\n    tag_223:\n      dup1\n      0x1f\n      add\n      0x20\n      dup1\n      swap2\n      div\n      mul\n      0x20\n      add\n      mload(0x40)\n      swap1\n      dup2\n      add\n      0x40\n      mstore\n      dup1\n      swap3\n      swap2\n      swap1\n      dup2\n      dup2\n      mstore\n      0x20\n      add\n      dup3\n      dup1\n      sload\n      tag_225\n      swap1\n      tag_224\n      jump\t// in\n    tag_225:\n      dup1\n      iszero\n      tag_226\n      jumpi\n      dup1\n      0x1f\n      lt\n      tag_227\n      jumpi\n      0x0100\n      dup1\n      dup4\n      sload\n      div\n      mul\n      dup4\n      mstore\n      swap2\n      0x20\n      add\n      swap2\n      jump(tag_226)\n    tag_227:\n      dup3\n      add\n      swap2\n      swap1\n      0x00\n      mstore\n      keccak256(0x00, 0x20)\n      swap1\n    tag_228:\n      dup2\n      sload\n      dup2\n      mstore\n      swap1\n      0x01\n      add\n      swap1\n      0x20\n      add\n      dup1\n      dup4\n      gt\n      tag_228\n      jumpi\n      dup3\n      swap1\n      sub\n      0x1f\n      and\n      dup3\n      add\n      swap2\n    tag_226:\n      pop\n      pop\n      pop\n      pop\n      pop\n      swap1\n      pop\n        /* \"contracts/Token.sol\":22569:22667  function name() public view virtual override returns (string memory) {... */\n      swap1\n      jump\t// out\n        /* \"contracts/Token.sol\":24080:24297  function getApproved(uint256 tokenId) public view virtual override returns (address) {... */\n    tag_67:\n        /* \"contracts/Token.sol\":24156:24163  address */\n      0x00\n        /* \"contracts/Token.sol\":24183:24199  _exists(tokenId) */\n      tag_230\n        /* \"contracts/Token.sol\":24191:24198  tokenId */\n      dup3\n        /* \"contracts/Token.sol\":24183:24190  _exists */\n      tag_231\n        /* \"contracts/Token.sol\":24183:24199  _exists(tokenId) */\n      jump\t// in\n    tag_230:\n        /* \"contracts/Token.sol\":24175:24248  require(_exists(tokenId), \"ERC721: approved query for nonexistent token\") */\n      tag_232\n      jumpi\n      mload(0x40)\n      shl(0xe5, 0x461bcd)\n      dup2\n      mstore\n      0x04\n      add\n      tag_233\n      swap1\n      tag_234\n      jump\t// in\n    tag_233:\n      mload(0x40)\n      dup1\n      swap2\n      sub\n      swap1\n      revert\n    tag_232:\n      pop\n        /* \"contracts/Token.sol\":24266:24290  _tokenApprovals[tokenId] */\n      0x00\n      swap1\n      dup2\n      mstore\n        /* \"contracts/Token.sol\":24266:24281  _tokenApprovals */\n      0x05\n        /* \"contracts/Token.sol\":24266:24290  _tokenApprovals[tokenId] */\n      0x20\n      mstore\n      0x40\n      swap1\n      keccak256\n      sload\n      sub(shl(0xa0, 0x01), 0x01)\n      and\n      swap1\n        /* \"contracts/Token.sol\":24080:24297  function getApproved(uint256 tokenId) public view virtual override returns (address) {... */\n      jump\t// out\n        /* \"contracts/Token.sol\":23618:24019  function approve(address to, uint256 tokenId) public virtual override {... */\n    tag_74:\n        /* \"contracts/Token.sol\":23698:23711  address owner */\n      0x00\n        /* \"contracts/Token.sol\":23714:23737  ERC721.ownerOf(tokenId) */\n      tag_236\n        /* \"contracts/Token.sol\":23729:23736  tokenId */\n      dup3\n        /* \"contracts/Token.sol\":23714:23728  ERC721.ownerOf */\n      tag_112\n        /* \"contracts/Token.sol\":23714:23737  ERC721.ownerOf(tokenId) */\n      jump\t// in\n    tag_236:\n        /* \"contracts/Token.sol\":23698:23737  address owner = ERC721.ownerOf(tokenId) */\n      swap1\n      pop\n        /* \"contracts/Token.sol\":23761:23766  owner */\n      dup1\n      sub(shl(0xa0, 0x01), 0x01)\n        /* \"contracts/Token.sol\":23755:23766  to != owner */\n      and\n        /* \"contracts/Token.sol\":23755:23757  to */\n      dup4\n      sub(shl(0xa0, 0x01), 0x01)\n        /* \"contracts/Token.sol\":23755:23766  to != owner */\n      and\n      eq\n      iszero\n        /* \"contracts/Token.sol\":23747:23804  require(to != owner, \"ERC721: approval to current owner\") */\n      tag_237\n      jumpi\n      mload(0x40)\n      shl(0xe5, 0x461bcd)\n      dup2\n      mstore\n      0x04\n      add\n      tag_233\n      swap1\n      tag_239\n      jump\t// in\n    tag_237:\n        /* \"contracts/Token.sol\":23852:23857  owner */\n      dup1\n      sub(shl(0xa0, 0x01), 0x01)\n        /* \"contracts/Token.sol\":23836:23857  _msgSender() == owner */\n      and\n        /* \"contracts/Token.sol\":23836:23848  _msgSender() */\n      tag_240\n        /* \"contracts/Token.sol\":23836:23846  _msgSender */\n      tag_241\n        /* \"contracts/Token.sol\":23836:23848  _msgSender() */\n      jump\t// in\n    tag_240:\n      sub(shl(0xa0, 0x01), 0x01)\n        /* \"contracts/Token.sol\":23836:23857  _msgSender() == owner */\n      and\n      eq\n        /* \"contracts/Token.sol\":23836:23898  _msgSender() == owner || isApprovedForAll(owner, _msgSender()) */\n      dup1\n      tag_243\n      jumpi\n      pop\n        /* \"contracts/Token.sol\":23861:23898  isApprovedForAll(owner, _msgSender()) */\n      tag_243\n        /* \"contracts/Token.sol\":23878:23883  owner */\n      dup2\n        /* \"contracts/Token.sol\":23885:23897  _msgSender() */\n      tag_200\n        /* \"contracts/Token.sol\":23885:23895  _msgSender */\n      tag_241\n        /* \"contracts/Token.sol\":23885:23897  _msgSender() */\n      jump\t// in\n        /* \"contracts/Token.sol\":23861:23898  isApprovedForAll(owner, _msgSender()) */\n    tag_243:\n        /* \"contracts/Token.sol\":23815:23980  require(... */\n      tag_245\n      jumpi\n      mload(0x40)\n      shl(0xe5, 0x461bcd)\n      dup2\n      mstore\n      0x04\n      add\n      tag_233\n      swap1\n      tag_247\n      jump\t// in\n    tag_245:\n        /* \"contracts/Token.sol\":23991:24012  _approve(to, tokenId) */\n      tag_248\n        /* \"contracts/Token.sol\":24000:24002  to */\n      dup4\n        /* \"contracts/Token.sol\":24004:24011  tokenId */\n      dup4\n        /* \"contracts/Token.sol\":23991:23999  _approve */\n      tag_249\n        /* \"contracts/Token.sol\":23991:24012  _approve(to, tokenId) */\n      jump\t// in\n    tag_248:\n        /* \"contracts/Token.sol\":23618:24019  function approve(address to, uint256 tokenId) public virtual override {... */\n      pop\n      pop\n      pop\n      jump\t// out\n        /* \"contracts/Token.sol\":33610:33637  uint public totalSupply = 0 */\n    tag_77:\n      sload(0x09)\n      dup2\n      jump\t// out\n        /* \"contracts/Token.sol\":36706:36805  function publicSale_status(bool temp) external onlyOwner {... */\n    tag_84:\n        /* \"contracts/Token.sol\":13324:13336  _msgSender() */\n      tag_251\n        /* \"contracts/Token.sol\":13324:13334  _msgSender */\n      tag_241\n        /* \"contracts/Token.sol\":13324:13336  _msgSender() */\n      jump\t// in\n    tag_251:\n      sub(shl(0xa0, 0x01), 0x01)\n        /* \"contracts/Token.sol\":13313:13336  owner() == _msgSender() */\n      and\n        /* \"contracts/Token.sol\":13313:13320  owner() */\n      tag_252\n        /* \"contracts/Token.sol\":13313:13318  owner */\n      tag_142\n        /* \"contracts/Token.sol\":13313:13320  owner() */\n      jump\t// in\n    tag_252:\n      sub(shl(0xa0, 0x01), 0x01)\n        /* \"contracts/Token.sol\":13313:13336  owner() == _msgSender() */\n      and\n      eq\n        /* \"contracts/Token.sol\":13305:13373  require(owner() == _msgSender(), \"Ownable: caller is not the owner\") */\n      tag_253\n      jumpi\n      mload(0x40)\n      shl(0xe5, 0x461bcd)\n      dup2\n      mstore\n      0x04\n      add\n      tag_233\n      swap1\n      tag_255\n      jump\t// in\n    tag_253:\n        /* \"contracts/Token.sol\":36773:36791  public_sale_status */\n      0x0a\n        /* \"contracts/Token.sol\":36773:36798  public_sale_status = temp */\n      dup1\n      sload\n      swap2\n      iszero\n      iszero\n      0x0100\n      mul\n      not(0xff00)\n      swap1\n      swap3\n      and\n      swap2\n      swap1\n      swap2\n      or\n      swap1\n      sstore\n        /* \"contracts/Token.sol\":36706:36805  function publicSale_status(bool temp) external onlyOwner {... */\n      jump\t// out\n        /* \"contracts/Token.sol\":33872:33907  uint public maxPerWalletPresale = 5 */\n    tag_87:\n      sload(0x0e)\n      dup2\n      jump\t// out\n        /* \"contracts/Token.sol\":24944:25274  function transferFrom(... */\n    tag_93:\n        /* \"contracts/Token.sol\":25133:25174  _isApprovedOrOwner(_msgSender(), tokenId) */\n      tag_258\n        /* \"contracts/Token.sol\":25152:25164  _msgSender() */\n      tag_259\n        /* \"contracts/Token.sol\":25152:25162  _msgSender */\n      tag_241\n        /* \"contracts/Token.sol\":25152:25164  _msgSender() */\n      jump\t// in\n    tag_259:\n        /* \"contracts/Token.sol\":25166:25173  tokenId */\n      dup3\n        /* \"contracts/Token.sol\":25133:25151  _isApprovedOrOwner */\n      tag_260\n        /* \"contracts/Token.sol\":25133:25174  _isApprovedOrOwner(_msgSender(), tokenId) */\n      jump\t// in\n    tag_258:\n        /* \"contracts/Token.sol\":25125:25228  require(_isApprovedOrOwner(_msgSender(), tokenId), \"ERC721: transfer caller is not owner nor approved\") */\n      tag_261\n      jumpi\n      mload(0x40)\n      shl(0xe5, 0x461bcd)\n      dup2\n      mstore\n      0x04\n      add\n      tag_233\n      swap1\n      tag_263\n      jump\t// in\n    tag_261:\n        /* \"contracts/Token.sol\":25239:25267  _transfer(from, to, tokenId) */\n      tag_248\n        /* \"contracts/Token.sol\":25249:25253  from */\n      dup4\n        /* \"contracts/Token.sol\":25255:25257  to */\n      dup4\n        /* \"contracts/Token.sol\":25259:25266  tokenId */\n      dup4\n        /* \"contracts/Token.sol\":25239:25248  _transfer */\n      tag_265\n        /* \"contracts/Token.sol\":25239:25267  _transfer(from, to, tokenId) */\n      jump\t// in\n        /* \"contracts/Token.sol\":37137:37241  function withdraw() external onlyOwner {... */\n    tag_96:\n        /* \"contracts/Token.sol\":13324:13336  _msgSender() */\n      tag_267\n        /* \"contracts/Token.sol\":13324:13334  _msgSender */\n      tag_241\n        /* \"contracts/Token.sol\":13324:13336  _msgSender() */\n      jump\t// in\n    tag_267:\n      sub(shl(0xa0, 0x01), 0x01)\n        /* \"contracts/Token.sol\":13313:13336  owner() == _msgSender() */\n      and\n        /* \"contracts/Token.sol\":13313:13320  owner() */\n      tag_268\n        /* \"contracts/Token.sol\":13313:13318  owner */\n      tag_142\n        /* \"contracts/Token.sol\":13313:13320  owner() */\n      jump\t// in\n    tag_268:\n      sub(shl(0xa0, 0x01), 0x01)\n        /* \"contracts/Token.sol\":13313:13336  owner() == _msgSender() */\n      and\n      eq\n        /* \"contracts/Token.sol\":13305:13373  require(owner() == _msgSender(), \"Ownable: caller is not the owner\") */\n      tag_269\n      jumpi\n      mload(0x40)\n      shl(0xe5, 0x461bcd)\n      dup2\n      mstore\n      0x04\n      add\n      tag_233\n      swap1\n      tag_255\n      jump\t// in\n    tag_269:\n        /* \"contracts/Token.sol\":37194:37201  owner() */\n      tag_272\n        /* \"contracts/Token.sol\":37194:37199  owner */\n      tag_142\n        /* \"contracts/Token.sol\":37194:37201  owner() */\n      jump\t// in\n    tag_272:\n      sub(shl(0xa0, 0x01), 0x01)\n        /* \"contracts/Token.sol\":37186:37211  payable(owner()).transfer */\n      and\n        /* \"contracts/Token.sol\":37186:37234  payable(owner()).transfer(address(this).balance) */\n      0x08fc\n        /* \"contracts/Token.sol\":37212:37233  address(this).balance */\n      selfbalance\n        /* \"contracts/Token.sol\":37186:37234  payable(owner()).transfer(address(this).balance) */\n      swap1\n      dup2\n      iszero\n      mul\n      swap1\n      mload(0x40)\n      0x00\n      mload(0x40)\n      dup1\n      dup4\n      sub\n      dup2\n      dup6\n      dup9\n      dup9\n      call\n      swap4\n      pop\n      pop\n      pop\n      pop\n      iszero\n      dup1\n      iszero\n      tag_274\n      jumpi\n      returndatasize\n      0x00\n      dup1\n      returndatacopy\n      revert(0x00, returndatasize)\n    tag_274:\n      pop\n        /* \"contracts/Token.sol\":37137:37241  function withdraw() external onlyOwner {... */\n      jump\t// out\n        /* \"contracts/Token.sol\":33937:33975  uint public maxPerWalletPublicsale = 5 */\n    tag_99:\n      sload(0x0f)\n      dup2\n      jump\t// out\n        /* \"contracts/Token.sol\":25340:25519  function safeTransferFrom(... */\n    tag_104:\n        /* \"contracts/Token.sol\":25473:25512  safeTransferFrom(from, to, tokenId, \"\") */\n      tag_248\n        /* \"contracts/Token.sol\":25490:25494  from */\n      dup4\n        /* \"contracts/Token.sol\":25496:25498  to */\n      dup4\n        /* \"contracts/Token.sol\":25500:25507  tokenId */\n      dup4\n        /* \"contracts/Token.sol\":25473:25512  safeTransferFrom(from, to, tokenId, \"\") */\n      mload(0x40)\n      dup1\n      0x20\n      add\n      0x40\n      mstore\n      dup1\n      0x00\n      dup2\n      mstore\n      pop\n        /* \"contracts/Token.sol\":25473:25489  safeTransferFrom */\n      tag_174\n        /* \"contracts/Token.sol\":25473:25512  safeTransferFrom(from, to, tokenId, \"\") */\n      jump\t// in\n        /* \"contracts/Token.sol\":33810:33844  uint public maxPerTransaction = 20 */\n    tag_107:\n      sload(0x0d)\n      dup2\n      jump\t// out\n        /* \"contracts/Token.sol\":22272:22507  function ownerOf(uint256 tokenId) public view virtual override returns (address) {... */\n    tag_112:\n        /* \"contracts/Token.sol\":22344:22351  address */\n      0x00\n        /* \"contracts/Token.sol\":22379:22395  _owners[tokenId] */\n      dup2\n      dup2\n      mstore\n        /* \"contracts/Token.sol\":22379:22386  _owners */\n      0x03\n        /* \"contracts/Token.sol\":22379:22395  _owners[tokenId] */\n      0x20\n      mstore\n      0x40\n      dup2\n      keccak256\n      sload\n      sub(shl(0xa0, 0x01), 0x01)\n      and\n        /* \"contracts/Token.sol\":22413:22432  owner != address(0) */\n      dup1\n        /* \"contracts/Token.sol\":22405:22478  require(owner != address(0), \"ERC721: owner query for nonexistent token\") */\n      tag_219\n      jumpi\n      mload(0x40)\n      shl(0xe5, 0x461bcd)\n      dup2\n      mstore\n      0x04\n      add\n      tag_233\n      swap1\n      tag_280\n      jump\t// in\n        /* \"contracts/Token.sol\":36914:37013  function update_preSale_price(uint price) external onlyOwner {... */\n    tag_117:\n        /* \"contracts/Token.sol\":13324:13336  _msgSender() */\n      tag_282\n        /* \"contracts/Token.sol\":13324:13334  _msgSender */\n      tag_241\n        /* \"contracts/Token.sol\":13324:13336  _msgSender() */\n      jump\t// in\n    tag_282:\n      sub(shl(0xa0, 0x01), 0x01)\n        /* \"contracts/Token.sol\":13313:13336  owner() == _msgSender() */\n      and\n        /* \"contracts/Token.sol\":13313:13320  owner() */\n      tag_283\n        /* \"contracts/Token.sol\":13313:13318  owner */\n      tag_142\n        /* \"contracts/Token.sol\":13313:13320  owner() */\n      jump\t// in\n    tag_283:\n      sub(shl(0xa0, 0x01), 0x01)\n        /* \"contracts/Token.sol\":13313:13336  owner() == _msgSender() */\n      and\n      eq\n        /* \"contracts/Token.sol\":13305:13373  require(owner() == _msgSender(), \"Ownable: caller is not the owner\") */\n      tag_284\n      jumpi\n      mload(0x40)\n      shl(0xe5, 0x461bcd)\n      dup2\n      mstore\n      0x04\n      add\n      tag_233\n      swap1\n      tag_255\n      jump\t// in\n    tag_284:\n        /* \"contracts/Token.sol\":36985:36998  presale_price */\n      0x08\n        /* \"contracts/Token.sol\":36985:37006  presale_price = price */\n      sstore\n        /* \"contracts/Token.sol\":36914:37013  function update_preSale_price(uint price) external onlyOwner {... */\n      jump\t// out\n        /* \"contracts/Token.sol\":33783:33804  string public baseURI */\n    tag_120:\n      0x0c\n      dup1\n      sload\n      tag_287\n      swap1\n      tag_224\n      jump\t// in\n    tag_287:\n      dup1\n      0x1f\n      add\n      0x20\n      dup1\n      swap2\n      div\n      mul\n      0x20\n      add\n      mload(0x40)\n      swap1\n      dup2\n      add\n      0x40\n      mstore\n      dup1\n      swap3\n      swap2\n      swap1\n      dup2\n      dup2\n      mstore\n      0x20\n      add\n      dup3\n      dup1\n      sload\n      tag_288\n      swap1\n      tag_224\n      jump\t// in\n    tag_288:\n      dup1\n      iszero\n      tag_289\n      jumpi\n      dup1\n      0x1f\n      lt\n      tag_290\n      jumpi\n      0x0100\n      dup1\n      dup4\n      sload\n      div\n      mul\n      dup4\n      mstore\n      swap2\n      0x20\n      add\n      swap2\n      jump(tag_289)\n    tag_290:\n      dup3\n      add\n      swap2\n      swap1\n      0x00\n      mstore\n      keccak256(0x00, 0x20)\n      swap1\n    tag_291:\n      dup2\n      sload\n      dup2\n      mstore\n      swap1\n      0x01\n      add\n      swap1\n      0x20\n      add\n      dup1\n      dup4\n      gt\n      tag_291\n      jumpi\n      dup3\n      swap1\n      sub\n      0x1f\n      and\n      dup3\n      add\n      swap2\n    tag_289:\n      pop\n      pop\n      pop\n      pop\n      pop\n      dup2\n      jump\t// out\n        /* \"contracts/Token.sol\":22010:22215  function balanceOf(address owner) public view virtual override returns (uint256) {... */\n    tag_126:\n        /* \"contracts/Token.sol\":22082:22089  uint256 */\n      0x00\n      sub(shl(0xa0, 0x01), 0x01)\n        /* \"contracts/Token.sol\":22109:22128  owner != address(0) */\n      dup3\n      and\n        /* \"contracts/Token.sol\":22101:22175  require(owner != address(0), \"ERC721: balance query for the zero address\") */\n      tag_293\n      jumpi\n      mload(0x40)\n      shl(0xe5, 0x461bcd)\n      dup2\n      mstore\n      0x04\n      add\n      tag_233\n      swap1\n      tag_295\n      jump\t// in\n    tag_293:\n      pop\n      sub(shl(0xa0, 0x01), 0x01)\n        /* \"contracts/Token.sol\":22192:22208  _balances[owner] */\n      and\n      0x00\n      swap1\n      dup2\n      mstore\n        /* \"contracts/Token.sol\":22192:22201  _balances */\n      0x04\n        /* \"contracts/Token.sol\":22192:22208  _balances[owner] */\n      0x20\n      mstore\n      0x40\n      swap1\n      keccak256\n      sload\n      swap1\n        /* \"contracts/Token.sol\":22010:22215  function balanceOf(address owner) public view virtual override returns (uint256) {... */\n      jump\t// out\n        /* \"contracts/Token.sol\":13733:13825  function renounceOwnership() public virtual onlyOwner {... */\n    tag_130:\n        /* \"contracts/Token.sol\":13324:13336  _msgSender() */\n      tag_297\n        /* \"contracts/Token.sol\":13324:13334  _msgSender */\n      tag_241\n        /* \"contracts/Token.sol\":13324:13336  _msgSender() */\n      jump\t// in\n    tag_297:\n      sub(shl(0xa0, 0x01), 0x01)\n        /* \"contracts/Token.sol\":13313:13336  owner() == _msgSender() */\n      and\n        /* \"contracts/Token.sol\":13313:13320  owner() */\n      tag_298\n        /* \"contracts/Token.sol\":13313:13318  owner */\n      tag_142\n        /* \"contracts/Token.sol\":13313:13320  owner() */\n      jump\t// in\n    tag_298:\n      sub(shl(0xa0, 0x01), 0x01)\n        /* \"contracts/Token.sol\":13313:13336  owner() == _msgSender() */\n      and\n      eq\n        /* \"contracts/Token.sol\":13305:13373  require(owner() == _msgSender(), \"Ownable: caller is not the owner\") */\n      tag_299\n      jumpi\n      mload(0x40)\n      shl(0xe5, 0x461bcd)\n      dup2\n      mstore\n      0x04\n      add\n      tag_233\n      swap1\n      tag_255\n      jump\t// in\n    tag_299:\n        /* \"contracts/Token.sol\":13797:13818  _setOwner(address(0)) */\n      tag_302\n        /* \"contracts/Token.sol\":13815:13816  0 */\n      0x00\n        /* \"contracts/Token.sol\":13797:13806  _setOwner */\n      tag_303\n        /* \"contracts/Token.sol\":13797:13818  _setOwner(address(0)) */\n      jump\t// in\n    tag_302:\n        /* \"contracts/Token.sol\":13733:13825  function renounceOwnership() public virtual onlyOwner {... */\n      jump\t// out\n        /* \"contracts/Token.sol\":35475:35924  function sendGifts(address[] memory _wallets) public onlyOwner{... */\n    tag_135:\n        /* \"contracts/Token.sol\":13324:13336  _msgSender() */\n      tag_305\n        /* \"contracts/Token.sol\":13324:13334  _msgSender */\n      tag_241\n        /* \"contracts/Token.sol\":13324:13336  _msgSender() */\n      jump\t// in\n    tag_305:\n      sub(shl(0xa0, 0x01), 0x01)\n        /* \"contracts/Token.sol\":13313:13336  owner() == _msgSender() */\n      and\n        /* \"contracts/Token.sol\":13313:13320  owner() */\n      tag_306\n        /* \"contracts/Token.sol\":13313:13318  owner */\n      tag_142\n        /* \"contracts/Token.sol\":13313:13320  owner() */\n      jump\t// in\n    tag_306:\n      sub(shl(0xa0, 0x01), 0x01)\n        /* \"contracts/Token.sol\":13313:13336  owner() == _msgSender() */\n      and\n      eq\n        /* \"contracts/Token.sol\":13305:13373  require(owner() == _msgSender(), \"Ownable: caller is not the owner\") */\n      tag_307\n      jumpi\n      mload(0x40)\n      shl(0xe5, 0x461bcd)\n      dup2\n      mstore\n      0x04\n      add\n      tag_233\n      swap1\n      tag_255\n      jump\t// in\n    tag_307:\n        /* \"contracts/Token.sol\":35573:35574  0 */\n      0x00\n        /* \"contracts/Token.sol\":35555:35563  _wallets */\n      dup2\n        /* \"contracts/Token.sol\":35555:35570  _wallets.length */\n      mload\n        /* \"contracts/Token.sol\":35555:35574  _wallets.length > 0 */\n      gt\n        /* \"contracts/Token.sol\":35547:35602  require(_wallets.length > 0, \"mint at least one token\") */\n      tag_310\n      jumpi\n      mload(0x40)\n      shl(0xe5, 0x461bcd)\n      dup2\n      mstore\n      0x04\n      add\n      tag_233\n      swap1\n      tag_312\n      jump\t// in\n    tag_310:\n        /* \"contracts/Token.sol\":35639:35656  maxPerTransaction */\n      sload(0x0d)\n        /* \"contracts/Token.sol\":35620:35628  _wallets */\n      dup2\n        /* \"contracts/Token.sol\":35620:35635  _wallets.length */\n      mload\n        /* \"contracts/Token.sol\":35620:35656  _wallets.length <= maxPerTransaction */\n      gt\n      iszero\n        /* \"contracts/Token.sol\":35612:35683  require(_wallets.length <= maxPerTransaction, \"max per transaction 20\") */\n      tag_313\n      jumpi\n      mload(0x40)\n      shl(0xe5, 0x461bcd)\n      dup2\n      mstore\n      0x04\n      add\n      tag_233\n      swap1\n      tag_315\n      jump\t// in\n    tag_313:\n        /* \"contracts/Token.sol\":33557:33562  10000 */\n      0x2710\n        /* \"contracts/Token.sol\":35715:35723  _wallets */\n      dup2\n        /* \"contracts/Token.sol\":35715:35730  _wallets.length */\n      mload\n        /* \"contracts/Token.sol\":35701:35712  totalSupply */\n      sload(0x09)\n        /* \"contracts/Token.sol\":35701:35730  totalSupply + _wallets.length */\n      tag_316\n      swap2\n      swap1\n      tag_317\n      jump\t// in\n    tag_316:\n        /* \"contracts/Token.sol\":35701:35743  totalSupply + _wallets.length <= maxSupply */\n      gt\n      iszero\n        /* \"contracts/Token.sol\":35693:35770  require(totalSupply + _wallets.length <= maxSupply, \"not enough tokens left\") */\n      tag_318\n      jumpi\n      mload(0x40)\n      shl(0xe5, 0x461bcd)\n      dup2\n      mstore\n      0x04\n      add\n      tag_233\n      swap1\n      tag_320\n      jump\t// in\n    tag_318:\n        /* \"contracts/Token.sol\":35784:35790  uint i */\n      0x00\n        /* \"contracts/Token.sol\":35780:35877  for(uint i = 0; i < _wallets.length; i++)... */\n    tag_321:\n        /* \"contracts/Token.sol\":35800:35808  _wallets */\n      dup2\n        /* \"contracts/Token.sol\":35800:35815  _wallets.length */\n      mload\n        /* \"contracts/Token.sol\":35796:35797  i */\n      dup2\n        /* \"contracts/Token.sol\":35796:35815  i < _wallets.length */\n      lt\n        /* \"contracts/Token.sol\":35780:35877  for(uint i = 0; i < _wallets.length; i++)... */\n      iszero\n      tag_322\n      jumpi\n        /* \"contracts/Token.sol\":35834:35877  _safeMint(_wallets[i], totalSupply + 1 + i) */\n      tag_324\n        /* \"contracts/Token.sol\":35844:35852  _wallets */\n      dup3\n        /* \"contracts/Token.sol\":35853:35854  i */\n      dup3\n        /* \"contracts/Token.sol\":35844:35855  _wallets[i] */\n      dup2\n      mload\n      dup2\n      lt\n      tag_325\n      jumpi\n      mstore(0x00, shl(0xe0, 0x4e487b71))\n      mstore(0x04, 0x32)\n      revert(0x00, 0x24)\n    tag_325:\n      0x20\n      mul\n      0x20\n      add\n      add\n      mload\n        /* \"contracts/Token.sol\":35875:35876  i */\n      dup3\n        /* \"contracts/Token.sol\":35857:35868  totalSupply */\n      sload(0x09)\n        /* \"contracts/Token.sol\":35871:35872  1 */\n      0x01\n        /* \"contracts/Token.sol\":35857:35872  totalSupply + 1 */\n      tag_326\n      swap2\n      swap1\n      tag_317\n      jump\t// in\n    tag_326:\n        /* \"contracts/Token.sol\":35857:35876  totalSupply + 1 + i */\n      tag_327\n      swap2\n      swap1\n      tag_317\n      jump\t// in\n    tag_327:\n        /* \"contracts/Token.sol\":35834:35843  _safeMint */\n      tag_328\n        /* \"contracts/Token.sol\":35834:35877  _safeMint(_wallets[i], totalSupply + 1 + i) */\n      jump\t// in\n    tag_324:\n        /* \"contracts/Token.sol\":35817:35820  i++ */\n      dup1\n      tag_329\n      dup2\n      tag_330\n      jump\t// in\n    tag_329:\n      swap2\n      pop\n      pop\n        /* \"contracts/Token.sol\":35780:35877  for(uint i = 0; i < _wallets.length; i++)... */\n      jump(tag_321)\n    tag_322:\n      pop\n        /* \"contracts/Token.sol\":35902:35910  _wallets */\n      dup1\n        /* \"contracts/Token.sol\":35902:35917  _wallets.length */\n      mload\n        /* \"contracts/Token.sol\":35887:35898  totalSupply */\n      0x09\n      0x00\n        /* \"contracts/Token.sol\":35887:35917  totalSupply += _wallets.length */\n      dup3\n      dup3\n      sload\n      tag_331\n      swap2\n      swap1\n      tag_317\n      jump\t// in\n    tag_331:\n      swap1\n      swap2\n      sstore\n      pop\n      pop\n      pop\n        /* \"contracts/Token.sol\":35475:35924  function sendGifts(address[] memory _wallets) public onlyOwner{... */\n      jump\t// out\n        /* \"contracts/Token.sol\":33492:33525  uint public tokenPrice = .1 ether */\n    tag_138:\n      sload(0x07)\n      dup2\n      jump\t// out\n        /* \"contracts/Token.sol\":13101:13186  function owner() public view virtual returns (address) {... */\n    tag_142:\n        /* \"contracts/Token.sol\":13147:13154  address */\n      0x00\n        /* \"contracts/Token.sol\":13173:13179  _owner */\n      sload\n      sub(shl(0xa0, 0x01), 0x01)\n      and\n        /* \"contracts/Token.sol\":13101:13186  function owner() public view virtual returns (address) {... */\n      swap1\n      jump\t// out\n        /* \"contracts/Token.sol\":22731:22833  function symbol() public view virtual override returns (string memory) {... */\n    tag_146:\n        /* \"contracts/Token.sol\":22787:22800  string memory */\n      0x60\n        /* \"contracts/Token.sol\":22819:22826  _symbol */\n      0x02\n        /* \"contracts/Token.sol\":22812:22826  return _symbol */\n      dup1\n      sload\n      tag_223\n      swap1\n      tag_224\n      jump\t// in\n        /* \"contracts/Token.sol\":33684:33722  bool public public_sale_status = false */\n    tag_150:\n      sload(0x0a)\n      0x0100\n      swap1\n      div\n      0xff\n      and\n      dup2\n      jump\t// out\n        /* \"contracts/Token.sol\":33568:33604  uint public presale_price = .1 ether */\n    tag_154:\n      sload(0x08)\n      dup2\n      jump\t// out\n        /* \"contracts/Token.sol\":36109:36254  function is_presale_active() public view returns(uint){... */\n    tag_158:\n        /* \"contracts/Token.sol\":36181:36195  Presale_status */\n      sload(0x0a)\n        /* \"contracts/Token.sol\":36158:36162  uint */\n      0x00\n      swap1\n        /* \"contracts/Token.sol\":36181:36195  Presale_status */\n      0xff\n      and\n        /* \"contracts/Token.sol\":36181:36203  Presale_status == true */\n      iszero\n      iszero\n        /* \"contracts/Token.sol\":36181:36195  Presale_status */\n      0x01\n        /* \"contracts/Token.sol\":36181:36203  Presale_status == true */\n      eq\n        /* \"contracts/Token.sol\":36173:36228  require(Presale_status == true,\"Sale not Started Yet.\") */\n      tag_340\n      jumpi\n      mload(0x40)\n      shl(0xe5, 0x461bcd)\n      dup2\n      mstore\n      0x04\n      add\n      tag_233\n      swap1\n      tag_342\n      jump\t// in\n    tag_340:\n      pop\n        /* \"contracts/Token.sol\":36245:36246  1 */\n      0x01\n        /* \"contracts/Token.sol\":36109:36254  function is_presale_active() public view returns(uint){... */\n      swap1\n      jump\t// out\n        /* \"contracts/Token.sol\":36512:36602  function setBaseUri(string memory _uri) external onlyOwner {... */\n    tag_164:\n        /* \"contracts/Token.sol\":13324:13336  _msgSender() */\n      tag_344\n        /* \"contracts/Token.sol\":13324:13334  _msgSender */\n      tag_241\n        /* \"contracts/Token.sol\":13324:13336  _msgSender() */\n      jump\t// in\n    tag_344:\n      sub(shl(0xa0, 0x01), 0x01)\n        /* \"contracts/Token.sol\":13313:13336  owner() == _msgSender() */\n      and\n        /* \"contracts/Token.sol\":13313:13320  owner() */\n      tag_345\n        /* \"contracts/Token.sol\":13313:13318  owner */\n      tag_142\n        /* \"contracts/Token.sol\":13313:13320  owner() */\n      jump\t// in\n    tag_345:\n      sub(shl(0xa0, 0x01), 0x01)\n        /* \"contracts/Token.sol\":13313:13336  owner() == _msgSender() */\n      and\n      eq\n        /* \"contracts/Token.sol\":13305:13373  require(owner() == _msgSender(), \"Ownable: caller is not the owner\") */\n      tag_346\n      jumpi\n      mload(0x40)\n      shl(0xe5, 0x461bcd)\n      dup2\n      mstore\n      0x04\n      add\n      tag_233\n      swap1\n      tag_255\n      jump\t// in\n    tag_346:\n        /* \"contracts/Token.sol\":36581:36595  baseURI = _uri */\n      dup1\n      mload\n      tag_349\n      swap1\n        /* \"contracts/Token.sol\":36581:36588  baseURI */\n      0x0c\n      swap1\n        /* \"contracts/Token.sol\":36581:36595  baseURI = _uri */\n      0x20\n      dup5\n      add\n      swap1\n      tag_350\n      jump\t// in\n    tag_349:\n      pop\n        /* \"contracts/Token.sol\":36512:36602  function setBaseUri(string memory _uri) external onlyOwner {... */\n      pop\n      jump\t// out\n        /* \"contracts/Token.sol\":24364:24654  function setApprovalForAll(address operator, bool approved) public virtual override {... */\n    tag_169:\n        /* \"contracts/Token.sol\":24478:24490  _msgSender() */\n      tag_352\n        /* \"contracts/Token.sol\":24478:24488  _msgSender */\n      tag_241\n        /* \"contracts/Token.sol\":24478:24490  _msgSender() */\n      jump\t// in\n    tag_352:\n      sub(shl(0xa0, 0x01), 0x01)\n        /* \"contracts/Token.sol\":24466:24490  operator != _msgSender() */\n      and\n        /* \"contracts/Token.sol\":24466:24474  operator */\n      dup3\n      sub(shl(0xa0, 0x01), 0x01)\n        /* \"contracts/Token.sol\":24466:24490  operator != _msgSender() */\n      and\n      eq\n      iszero\n        /* \"contracts/Token.sol\":24458:24520  require(operator != _msgSender(), \"ERC721: approve to caller\") */\n      tag_353\n      jumpi\n      mload(0x40)\n      shl(0xe5, 0x461bcd)\n      dup2\n      mstore\n      0x04\n      add\n      tag_233\n      swap1\n      tag_355\n      jump\t// in\n    tag_353:\n        /* \"contracts/Token.sol\":24576:24584  approved */\n      dup1\n        /* \"contracts/Token.sol\":24531:24549  _operatorApprovals */\n      0x06\n        /* \"contracts/Token.sol\":24531:24563  _operatorApprovals[_msgSender()] */\n      0x00\n        /* \"contracts/Token.sol\":24550:24562  _msgSender() */\n      tag_356\n        /* \"contracts/Token.sol\":24550:24560  _msgSender */\n      tag_241\n        /* \"contracts/Token.sol\":24550:24562  _msgSender() */\n      jump\t// in\n    tag_356:\n      sub(shl(0xa0, 0x01), 0x01)\n        /* \"contracts/Token.sol\":24531:24563  _operatorApprovals[_msgSender()] */\n      swap1\n      dup2\n      and\n      dup3\n      mstore\n      0x20\n      dup1\n      dup4\n      add\n      swap4\n      swap1\n      swap4\n      mstore\n      0x40\n      swap2\n      dup3\n      add\n      0x00\n      swap1\n      dup2\n      keccak256\n        /* \"contracts/Token.sol\":24531:24573  _operatorApprovals[_msgSender()][operator] */\n      swap2\n      dup8\n      and\n      dup1\n      dup3\n      mstore\n      swap2\n      swap1\n      swap4\n      mstore\n      swap2\n      keccak256\n        /* \"contracts/Token.sol\":24531:24584  _operatorApprovals[_msgSender()][operator] = approved */\n      dup1\n      sload\n      not(0xff)\n      and\n      swap3\n      iszero\n      iszero\n      swap3\n      swap1\n      swap3\n      or\n      swap1\n      swap2\n      sstore\n        /* \"contracts/Token.sol\":24614:24626  _msgSender() */\n      tag_357\n        /* \"contracts/Token.sol\":24614:24624  _msgSender */\n      tag_241\n        /* \"contracts/Token.sol\":24614:24626  _msgSender() */\n      jump\t// in\n    tag_357:\n      sub(shl(0xa0, 0x01), 0x01)\n        /* \"contracts/Token.sol\":24599:24647  ApprovalForAll(_msgSender(), operator, approved) */\n      and\n      0x17307eab39ab6107e8899845ad3d59bd9653f200f220920489ca2b5937696c31\n        /* \"contracts/Token.sol\":24638:24646  approved */\n      dup4\n        /* \"contracts/Token.sol\":24599:24647  ApprovalForAll(_msgSender(), operator, approved) */\n      mload(0x40)\n      tag_358\n      swap2\n      swap1\n      tag_53\n      jump\t// in\n    tag_358:\n      mload(0x40)\n      dup1\n      swap2\n      sub\n      swap1\n      log3\n        /* \"contracts/Token.sol\":24364:24654  function setApprovalForAll(address operator, bool approved) public virtual override {... */\n      pop\n      pop\n      jump\t// out\n        /* \"contracts/Token.sol\":25585:25905  function safeTransferFrom(... */\n    tag_174:\n        /* \"contracts/Token.sol\":25754:25795  _isApprovedOrOwner(_msgSender(), tokenId) */\n      tag_360\n        /* \"contracts/Token.sol\":25773:25785  _msgSender() */\n      tag_361\n        /* \"contracts/Token.sol\":25773:25783  _msgSender */\n      tag_241\n        /* \"contracts/Token.sol\":25773:25785  _msgSender() */\n      jump\t// in\n    tag_361:\n        /* \"contracts/Token.sol\":25787:25794  tokenId */\n      dup4\n        /* \"contracts/Token.sol\":25754:25772  _isApprovedOrOwner */\n      tag_260\n        /* \"contracts/Token.sol\":25754:25795  _isApprovedOrOwner(_msgSender(), tokenId) */\n      jump\t// in\n    tag_360:\n        /* \"contracts/Token.sol\":25746:25849  require(_isApprovedOrOwner(_msgSender(), tokenId), \"ERC721: transfer caller is not owner nor approved\") */\n      tag_362\n      jumpi\n      mload(0x40)\n      shl(0xe5, 0x461bcd)\n      dup2\n      mstore\n      0x04\n      add\n      tag_233\n      swap1\n      tag_263\n      jump\t// in\n    tag_362:\n        /* \"contracts/Token.sol\":25859:25898  _safeTransfer(from, to, tokenId, _data) */\n      tag_364\n        /* \"contracts/Token.sol\":25873:25877  from */\n      dup5\n        /* \"contracts/Token.sol\":25879:25881  to */\n      dup5\n        /* \"contracts/Token.sol\":25883:25890  tokenId */\n      dup5\n        /* \"contracts/Token.sol\":25892:25897  _data */\n      dup5\n        /* \"contracts/Token.sol\":25859:25872  _safeTransfer */\n      tag_365\n        /* \"contracts/Token.sol\":25859:25898  _safeTransfer(from, to, tokenId, _data) */\n      jump\t// in\n    tag_364:\n        /* \"contracts/Token.sol\":25585:25905  function safeTransferFrom(... */\n      pop\n      pop\n      pop\n      pop\n      jump\t// out\n        /* \"contracts/Token.sol\":33644:33678  bool public Presale_status = false */\n    tag_177:\n      and(0xff, sload(0x0a))\n      dup2\n      jump\t// out\n        /* \"contracts/Token.sol\":34754:35469  function buy_presale(uint _count) public payable{ ... */\n    tag_181:\n        /* \"contracts/Token.sol\":34821:34835  Presale_status */\n      and(0xff, sload(0x0a))\n        /* \"contracts/Token.sol\":34821:34843  Presale_status == true */\n      iszero\n      iszero\n        /* \"contracts/Token.sol\":34821:34835  Presale_status */\n      0x01\n        /* \"contracts/Token.sol\":34821:34843  Presale_status == true */\n      eq\n        /* \"contracts/Token.sol\":34813:34863  require(Presale_status == true, \"Sale is Paused.\") */\n      tag_367\n      jumpi\n      mload(0x40)\n      shl(0xe5, 0x461bcd)\n      dup2\n      mstore\n      0x04\n      add\n      tag_233\n      swap1\n      tag_369\n      jump\t// in\n    tag_367:\n        /* \"contracts/Token.sol\":34881:34895  checkPresale() */\n      tag_370\n        /* \"contracts/Token.sol\":34881:34893  checkPresale */\n      tag_56\n        /* \"contracts/Token.sol\":34881:34895  checkPresale() */\n      jump\t// in\n    tag_370:\n        /* \"contracts/Token.sol\":34881:34903  checkPresale() == true */\n      iszero\n      iszero\n        /* \"contracts/Token.sol\":34899:34903  true */\n      0x01\n        /* \"contracts/Token.sol\":34881:34903  checkPresale() == true */\n      eq\n        /* \"contracts/Token.sol\":34873:34936  require(checkPresale() == true, \"You are not in Presale List.\") */\n      tag_371\n      jumpi\n      mload(0x40)\n      shl(0xe5, 0x461bcd)\n      dup2\n      mstore\n      0x04\n      add\n      tag_233\n      swap1\n      tag_373\n      jump\t// in\n    tag_371:\n        /* \"contracts/Token.sol\":34963:34964  0 */\n      0x00\n        /* \"contracts/Token.sol\":34954:34960  _count */\n      dup2\n        /* \"contracts/Token.sol\":34954:34964  _count > 0 */\n      gt\n        /* \"contracts/Token.sol\":34946:34992  require(_count > 0, \"mint at least one token\") */\n      tag_374\n      jumpi\n      mload(0x40)\n      shl(0xe5, 0x461bcd)\n      dup2\n      mstore\n      0x04\n      add\n      tag_233\n      swap1\n      tag_312\n      jump\t// in\n    tag_374:\n        /* \"contracts/Token.sol\":35020:35037  maxPerTransaction */\n      sload(0x0d)\n        /* \"contracts/Token.sol\":35010:35016  _count */\n      dup2\n        /* \"contracts/Token.sol\":35010:35037  _count <= maxPerTransaction */\n      gt\n      iszero\n        /* \"contracts/Token.sol\":35002:35064  require(_count <= maxPerTransaction, \"max per transaction 20\") */\n      tag_376\n      jumpi\n      mload(0x40)\n      shl(0xe5, 0x461bcd)\n      dup2\n      mstore\n      0x04\n      add\n      tag_233\n      swap1\n      tag_315\n      jump\t// in\n    tag_376:\n        /* \"contracts/Token.sol\":33557:33562  10000 */\n      0x2710\n        /* \"contracts/Token.sol\":35096:35102  _count */\n      dup2\n        /* \"contracts/Token.sol\":35082:35093  totalSupply */\n      sload(0x09)\n        /* \"contracts/Token.sol\":35082:35102  totalSupply + _count */\n      tag_378\n      swap2\n      swap1\n      tag_317\n      jump\t// in\n    tag_378:\n        /* \"contracts/Token.sol\":35082:35114  totalSupply + _count<= maxSupply */\n      gt\n      iszero\n        /* \"contracts/Token.sol\":35074:35141  require(totalSupply + _count<= maxSupply, \"Not enough tokens left\") */\n      tag_379\n      jumpi\n      mload(0x40)\n      shl(0xe5, 0x461bcd)\n      dup2\n      mstore\n      0x04\n      add\n      tag_233\n      swap1\n      tag_381\n      jump\t// in\n    tag_379:\n        /* \"contracts/Token.sol\":35172:35185  presale_price */\n      sload(0x08)\n        /* \"contracts/Token.sol\":35159:35168  msg.value */\n      callvalue\n        /* \"contracts/Token.sol\":35159:35185  msg.value >= presale_price */\n      lt\n      iszero\n        /* \"contracts/Token.sol\":35151:35212  require(msg.value >= presale_price, \"incorrect ether amount\") */\n      tag_382\n      jumpi\n      mload(0x40)\n      shl(0xe5, 0x461bcd)\n      dup2\n      mstore\n      0x04\n      add\n      tag_233\n      swap1\n      tag_384\n      jump\t// in\n    tag_382:\n        /* \"contracts/Token.sol\":35263:35282  maxPerWalletPresale */\n      sload(0x0e)\n        /* \"contracts/Token.sol\":35254:35260  _count */\n      dup2\n        /* \"contracts/Token.sol\":35230:35251  balanceOf(msg.sender) */\n      tag_385\n        /* \"contracts/Token.sol\":35240:35250  msg.sender */\n      caller\n        /* \"contracts/Token.sol\":35230:35239  balanceOf */\n      tag_126\n        /* \"contracts/Token.sol\":35230:35251  balanceOf(msg.sender) */\n      jump\t// in\n    tag_385:\n        /* \"contracts/Token.sol\":35230:35260  balanceOf(msg.sender) + _count */\n      tag_386\n      swap2\n      swap1\n      tag_317\n      jump\t// in\n    tag_386:\n        /* \"contracts/Token.sol\":35230:35282  balanceOf(msg.sender) + _count<= maxPerWalletPresale */\n      gt\n      iszero\n        /* \"contracts/Token.sol\":35222:35325  require(balanceOf(msg.sender) + _count<= maxPerWalletPresale, \"5 tokens per wallet allowed in presale\") */\n      tag_387\n      jumpi\n      mload(0x40)\n      shl(0xe5, 0x461bcd)\n      dup2\n      mstore\n      0x04\n      add\n      tag_233\n      swap1\n      tag_389\n      jump\t// in\n    tag_387:\n        /* \"contracts/Token.sol\":35348:35354  uint i */\n      0x00\n        /* \"contracts/Token.sol\":35344:35431  for(uint i = 0; i < _count; i++)... */\n    tag_390:\n        /* \"contracts/Token.sol\":35364:35370  _count */\n      dup2\n        /* \"contracts/Token.sol\":35360:35361  i */\n      dup2\n        /* \"contracts/Token.sol\":35360:35370  i < _count */\n      lt\n        /* \"contracts/Token.sol\":35344:35431  for(uint i = 0; i < _count; i++)... */\n      iszero\n      tag_391\n      jumpi\n        /* \"contracts/Token.sol\":35389:35431  _safeMint(msg.sender, totalSupply + 1 + i) */\n      tag_393\n        /* \"contracts/Token.sol\":35399:35409  msg.sender */\n      caller\n        /* \"contracts/Token.sol\":35429:35430  i */\n      dup3\n        /* \"contracts/Token.sol\":35411:35422  totalSupply */\n      sload(0x09)\n        /* \"contracts/Token.sol\":35425:35426  1 */\n      0x01\n        /* \"contracts/Token.sol\":35411:35426  totalSupply + 1 */\n      tag_326\n      swap2\n      swap1\n      tag_317\n      jump\t// in\n        /* \"contracts/Token.sol\":35389:35431  _safeMint(msg.sender, totalSupply + 1 + i) */\n    tag_393:\n        /* \"contracts/Token.sol\":35372:35375  i++ */\n      dup1\n      tag_396\n      dup2\n      tag_330\n      jump\t// in\n    tag_396:\n      swap2\n      pop\n      pop\n        /* \"contracts/Token.sol\":35344:35431  for(uint i = 0; i < _count; i++)... */\n      jump(tag_390)\n    tag_391:\n      pop\n        /* \"contracts/Token.sol\":35456:35462  _count */\n      dup1\n        /* \"contracts/Token.sol\":35441:35452  totalSupply */\n      0x09\n      0x00\n        /* \"contracts/Token.sol\":35441:35462  totalSupply += _count */\n      dup3\n      dup3\n      sload\n      tag_331\n      swap2\n      swap1\n      tag_317\n      jump\t// in\n        /* \"contracts/Token.sol\":22899:23228  function tokenURI(uint256 tokenId) public view virtual override returns (string memory) {... */\n    tag_185:\n        /* \"contracts/Token.sol\":22972:22985  string memory */\n      0x60\n        /* \"contracts/Token.sol\":23005:23021  _exists(tokenId) */\n      tag_399\n        /* \"contracts/Token.sol\":23013:23020  tokenId */\n      dup3\n        /* \"contracts/Token.sol\":23005:23012  _exists */\n      tag_231\n        /* \"contracts/Token.sol\":23005:23021  _exists(tokenId) */\n      jump\t// in\n    tag_399:\n        /* \"contracts/Token.sol\":22997:23073  require(_exists(tokenId), \"ERC721Metadata: URI query for nonexistent token\") */\n      tag_400\n      jumpi\n      mload(0x40)\n      shl(0xe5, 0x461bcd)\n      dup2\n      mstore\n      0x04\n      add\n      tag_233\n      swap1\n      tag_402\n      jump\t// in\n    tag_400:\n        /* \"contracts/Token.sol\":23084:23105  string memory baseURI */\n      0x00\n        /* \"contracts/Token.sol\":23108:23118  _baseURI() */\n      tag_403\n        /* \"contracts/Token.sol\":23108:23116  _baseURI */\n      tag_404\n        /* \"contracts/Token.sol\":23108:23118  _baseURI() */\n      jump\t// in\n    tag_403:\n        /* \"contracts/Token.sol\":23084:23118  string memory baseURI = _baseURI() */\n      swap1\n      pop\n        /* \"contracts/Token.sol\":23159:23160  0 */\n      0x00\n        /* \"contracts/Token.sol\":23141:23148  baseURI */\n      dup2\n        /* \"contracts/Token.sol\":23135:23156  bytes(baseURI).length */\n      mload\n        /* \"contracts/Token.sol\":23135:23160  bytes(baseURI).length > 0 */\n      gt\n        /* \"contracts/Token.sol\":23135:23221  bytes(baseURI).length > 0 ? string(abi.encodePacked(baseURI, tokenId.toString())) : \"\" */\n      tag_405\n      jumpi\n      mload(0x40)\n      dup1\n      0x20\n      add\n      0x40\n      mstore\n      dup1\n      0x00\n      dup2\n      mstore\n      pop\n      jump(tag_406)\n    tag_405:\n        /* \"contracts/Token.sol\":23187:23194  baseURI */\n      dup1\n        /* \"contracts/Token.sol\":23196:23214  tokenId.toString() */\n      tag_407\n        /* \"contracts/Token.sol\":23196:23203  tokenId */\n      dup5\n        /* \"contracts/Token.sol\":23196:23212  tokenId.toString */\n      tag_408\n        /* \"contracts/Token.sol\":23196:23214  tokenId.toString() */\n      jump\t// in\n    tag_407:\n        /* \"contracts/Token.sol\":23170:23215  abi.encodePacked(baseURI, tokenId.toString()) */\n      add(0x20, mload(0x40))\n      tag_409\n      swap3\n      swap2\n      swap1\n      tag_410\n      jump\t// in\n    tag_409:\n      mload(0x40)\n      0x20\n      dup2\n      dup4\n      sub\n      sub\n      dup2\n      mstore\n      swap1\n      0x40\n      mstore\n        /* \"contracts/Token.sol\":23135:23221  bytes(baseURI).length > 0 ? string(abi.encodePacked(baseURI, tokenId.toString())) : \"\" */\n    tag_406:\n        /* \"contracts/Token.sol\":23128:23221  return bytes(baseURI).length > 0 ? string(abi.encodePacked(baseURI, tokenId.toString())) : \"\" */\n      swap4\n        /* \"contracts/Token.sol\":22899:23228  function tokenURI(uint256 tokenId) public view virtual override returns (string memory) {... */\n      swap3\n      pop\n      pop\n      pop\n      jump\t// out\n        /* \"contracts/Token.sol\":36261:36405  function is_sale_active() public view returns(uint){... */\n    tag_189:\n        /* \"contracts/Token.sol\":36328:36346  public_sale_status */\n      sload(0x0a)\n        /* \"contracts/Token.sol\":36307:36311  uint */\n      0x00\n      swap1\n        /* \"contracts/Token.sol\":36328:36346  public_sale_status */\n      0xff\n      0x0100\n      swap1\n      swap2\n      div\n      and\n        /* \"contracts/Token.sol\":36328:36354  public_sale_status == true */\n      iszero\n      iszero\n        /* \"contracts/Token.sol\":36328:36346  public_sale_status */\n      0x01\n        /* \"contracts/Token.sol\":36328:36354  public_sale_status == true */\n      eq\n        /* \"contracts/Token.sol\":36320:36379  require(public_sale_status == true,\"Sale not Started Yet.\") */\n      tag_340\n      jumpi\n      mload(0x40)\n      shl(0xe5, 0x461bcd)\n      dup2\n      mstore\n      0x04\n      add\n      tag_233\n      swap1\n      tag_342\n      jump\t// in\n        /* \"contracts/Token.sol\":34069:34718  function buy(uint _count) public payable{... */\n    tag_193:\n        /* \"contracts/Token.sol\":34127:34145  public_sale_status */\n      sload(0x0a)\n      0xff\n      0x0100\n      swap1\n      swap2\n      div\n      and\n        /* \"contracts/Token.sol\":34127:34153  public_sale_status == true */\n      iszero\n      iszero\n        /* \"contracts/Token.sol\":34127:34145  public_sale_status */\n      0x01\n        /* \"contracts/Token.sol\":34127:34153  public_sale_status == true */\n      eq\n        /* \"contracts/Token.sol\":34119:34173  require(public_sale_status == true, \"Sale is Paused.\") */\n      tag_415\n      jumpi\n      mload(0x40)\n      shl(0xe5, 0x461bcd)\n      dup2\n      mstore\n      0x04\n      add\n      tag_233\n      swap1\n      tag_369\n      jump\t// in\n    tag_415:\n        /* \"contracts/Token.sol\":34200:34201  0 */\n      0x00\n        /* \"contracts/Token.sol\":34191:34197  _count */\n      dup2\n        /* \"contracts/Token.sol\":34191:34201  _count > 0 */\n      gt\n        /* \"contracts/Token.sol\":34183:34229  require(_count > 0, \"mint at least one token\") */\n      tag_417\n      jumpi\n      mload(0x40)\n      shl(0xe5, 0x461bcd)\n      dup2\n      mstore\n      0x04\n      add\n      tag_233\n      swap1\n      tag_312\n      jump\t// in\n    tag_417:\n        /* \"contracts/Token.sol\":34257:34274  maxPerTransaction */\n      sload(0x0d)\n        /* \"contracts/Token.sol\":34247:34253  _count */\n      dup2\n        /* \"contracts/Token.sol\":34247:34274  _count <= maxPerTransaction */\n      gt\n      iszero\n        /* \"contracts/Token.sol\":34239:34301  require(_count <= maxPerTransaction, \"max per transaction 20\") */\n      tag_419\n      jumpi\n      mload(0x40)\n      shl(0xe5, 0x461bcd)\n      dup2\n      mstore\n      0x04\n      add\n      tag_233\n      swap1\n      tag_315\n      jump\t// in\n    tag_419:\n        /* \"contracts/Token.sol\":33557:33562  10000 */\n      0x2710\n        /* \"contracts/Token.sol\":34333:34339  _count */\n      dup2\n        /* \"contracts/Token.sol\":34319:34330  totalSupply */\n      sload(0x09)\n        /* \"contracts/Token.sol\":34319:34339  totalSupply + _count */\n      tag_421\n      swap2\n      swap1\n      tag_317\n      jump\t// in\n    tag_421:\n        /* \"contracts/Token.sol\":34319:34352  totalSupply + _count <= maxSupply */\n      gt\n      iszero\n        /* \"contracts/Token.sol\":34311:34379  require(totalSupply + _count <= maxSupply, \"Not enough tokens left\") */\n      tag_422\n      jumpi\n      mload(0x40)\n      shl(0xe5, 0x461bcd)\n      dup2\n      mstore\n      0x04\n      add\n      tag_233\n      swap1\n      tag_381\n      jump\t// in\n    tag_422:\n        /* \"contracts/Token.sol\":34423:34429  _count */\n      dup1\n        /* \"contracts/Token.sol\":34410:34420  tokenPrice */\n      sload(0x07)\n        /* \"contracts/Token.sol\":34410:34429  tokenPrice * _count */\n      tag_424\n      swap2\n      swap1\n      tag_425\n      jump\t// in\n    tag_424:\n        /* \"contracts/Token.sol\":34397:34406  msg.value */\n      callvalue\n        /* \"contracts/Token.sol\":34397:34429  msg.value >= tokenPrice * _count */\n      lt\n      iszero\n        /* \"contracts/Token.sol\":34389:34456  require(msg.value >= tokenPrice * _count, \"incorrect ether amount\") */\n      tag_426\n      jumpi\n      mload(0x40)\n      shl(0xe5, 0x461bcd)\n      dup2\n      mstore\n      0x04\n      add\n      tag_233\n      swap1\n      tag_384\n      jump\t// in\n    tag_426:\n        /* \"contracts/Token.sol\":34507:34529  maxPerWalletPublicsale */\n      sload(0x0f)\n        /* \"contracts/Token.sol\":34498:34504  _count */\n      dup2\n        /* \"contracts/Token.sol\":34474:34495  balanceOf(msg.sender) */\n      tag_428\n        /* \"contracts/Token.sol\":34484:34494  msg.sender */\n      caller\n        /* \"contracts/Token.sol\":34474:34483  balanceOf */\n      tag_126\n        /* \"contracts/Token.sol\":34474:34495  balanceOf(msg.sender) */\n      jump\t// in\n    tag_428:\n        /* \"contracts/Token.sol\":34474:34504  balanceOf(msg.sender) + _count */\n      tag_429\n      swap2\n      swap1\n      tag_317\n      jump\t// in\n    tag_429:\n        /* \"contracts/Token.sol\":34474:34529  balanceOf(msg.sender) + _count<= maxPerWalletPublicsale */\n      gt\n      iszero\n        /* \"contracts/Token.sol\":34466:34576  require(balanceOf(msg.sender) + _count<= maxPerWalletPublicsale, \"10 tokens per wallet allowed in publicsale\") */\n      tag_430\n      jumpi\n      mload(0x40)\n      shl(0xe5, 0x461bcd)\n      dup2\n      mstore\n      0x04\n      add\n      tag_233\n      swap1\n      tag_432\n      jump\t// in\n    tag_430:\n        /* \"contracts/Token.sol\":34597:34603  uint i */\n      0x00\n        /* \"contracts/Token.sol\":34593:34680  for(uint i = 0; i < _count; i++)... */\n    tag_433:\n        /* \"contracts/Token.sol\":34613:34619  _count */\n      dup2\n        /* \"contracts/Token.sol\":34609:34610  i */\n      dup2\n        /* \"contracts/Token.sol\":34609:34619  i < _count */\n      lt\n        /* \"contracts/Token.sol\":34593:34680  for(uint i = 0; i < _count; i++)... */\n      iszero\n      tag_391\n      jumpi\n        /* \"contracts/Token.sol\":34638:34680  _safeMint(msg.sender, totalSupply + 1 + i) */\n      tag_436\n        /* \"contracts/Token.sol\":34648:34658  msg.sender */\n      caller\n        /* \"contracts/Token.sol\":34678:34679  i */\n      dup3\n        /* \"contracts/Token.sol\":34660:34671  totalSupply */\n      sload(0x09)\n        /* \"contracts/Token.sol\":34674:34675  1 */\n      0x01\n        /* \"contracts/Token.sol\":34660:34675  totalSupply + 1 */\n      tag_326\n      swap2\n      swap1\n      tag_317\n      jump\t// in\n        /* \"contracts/Token.sol\":34638:34680  _safeMint(msg.sender, totalSupply + 1 + i) */\n    tag_436:\n        /* \"contracts/Token.sol\":34621:34624  i++ */\n      dup1\n      tag_439\n      dup2\n      tag_330\n      jump\t// in\n    tag_439:\n      swap2\n      pop\n      pop\n        /* \"contracts/Token.sol\":34593:34680  for(uint i = 0; i < _count; i++)... */\n      jump(tag_433)\n        /* \"contracts/Token.sol\":36811:36906  function update_public_price(uint price) external onlyOwner {... */\n    tag_197:\n        /* \"contracts/Token.sol\":13324:13336  _msgSender() */\n      tag_442\n        /* \"contracts/Token.sol\":13324:13334  _msgSender */\n      tag_241\n        /* \"contracts/Token.sol\":13324:13336  _msgSender() */\n      jump\t// in\n    tag_442:\n      sub(shl(0xa0, 0x01), 0x01)\n        /* \"contracts/Token.sol\":13313:13336  owner() == _msgSender() */\n      and\n        /* \"contracts/Token.sol\":13313:13320  owner() */\n      tag_443\n        /* \"contracts/Token.sol\":13313:13318  owner */\n      tag_142\n        /* \"contracts/Token.sol\":13313:13320  owner() */\n      jump\t// in\n    tag_443:\n      sub(shl(0xa0, 0x01), 0x01)\n        /* \"contracts/Token.sol\":13313:13336  owner() == _msgSender() */\n      and\n      eq\n        /* \"contracts/Token.sol\":13305:13373  require(owner() == _msgSender(), \"Ownable: caller is not the owner\") */\n      tag_444\n      jumpi\n      mload(0x40)\n      shl(0xe5, 0x461bcd)\n      dup2\n      mstore\n      0x04\n      add\n      tag_233\n      swap1\n      tag_255\n      jump\t// in\n    tag_444:\n        /* \"contracts/Token.sol\":36881:36891  tokenPrice */\n      0x07\n        /* \"contracts/Token.sol\":36881:36899  tokenPrice = price */\n      sstore\n        /* \"contracts/Token.sol\":36811:36906  function update_public_price(uint price) external onlyOwner {... */\n      jump\t// out\n        /* \"contracts/Token.sol\":24720:24882  function isApprovedForAll(address owner, address operator) public view virtual override returns (bool) {... */\n    tag_202:\n      sub(shl(0xa0, 0x01), 0x01)\n        /* \"contracts/Token.sol\":24840:24865  _operatorApprovals[owner] */\n      swap2\n      dup3\n      and\n        /* \"contracts/Token.sol\":24817:24821  bool */\n      0x00\n        /* \"contracts/Token.sol\":24840:24865  _operatorApprovals[owner] */\n      swap1\n      dup2\n      mstore\n        /* \"contracts/Token.sol\":24840:24858  _operatorApprovals */\n      0x06\n        /* \"contracts/Token.sol\":24840:24865  _operatorApprovals[owner] */\n      0x20\n      swap1\n      dup2\n      mstore\n      0x40\n      dup1\n      dup4\n      keccak256\n        /* \"contracts/Token.sol\":24840:24875  _operatorApprovals[owner][operator] */\n      swap4\n      swap1\n      swap5\n      and\n      dup3\n      mstore\n      swap2\n      swap1\n      swap2\n      mstore\n      keccak256\n      sload\n      0xff\n      and\n      swap1\n        /* \"contracts/Token.sol\":24720:24882  function isApprovedForAll(address owner, address operator) public view virtual override returns (bool) {... */\n      jump\t// out\n        /* \"contracts/Token.sol\":35934:36099  function addPresaleList(address[] memory _wallets) public onlyOwner{... */\n    tag_207:\n        /* \"contracts/Token.sol\":13324:13336  _msgSender() */\n      tag_449\n        /* \"contracts/Token.sol\":13324:13334  _msgSender */\n      tag_241\n        /* \"contracts/Token.sol\":13324:13336  _msgSender() */\n      jump\t// in\n    tag_449:\n      sub(shl(0xa0, 0x01), 0x01)\n        /* \"contracts/Token.sol\":13313:13336  owner() == _msgSender() */\n      and\n        /* \"contracts/Token.sol\":13313:13320  owner() */\n      tag_450\n        /* \"contracts/Token.sol\":13313:13318  owner */\n      tag_142\n        /* \"contracts/Token.sol\":13313:13320  owner() */\n      jump\t// in\n    tag_450:\n      sub(shl(0xa0, 0x01), 0x01)\n        /* \"contracts/Token.sol\":13313:13336  owner() == _msgSender() */\n      and\n      eq\n        /* \"contracts/Token.sol\":13305:13373  require(owner() == _msgSender(), \"Ownable: caller is not the owner\") */\n      tag_451\n      jumpi\n      mload(0x40)\n      shl(0xe5, 0x461bcd)\n      dup2\n      mstore\n      0x04\n      add\n      tag_233\n      swap1\n      tag_255\n      jump\t// in\n    tag_451:\n        /* \"contracts/Token.sol\":36015:36021  uint i */\n      0x00\n        /* \"contracts/Token.sol\":36011:36092  for(uint i; i < _wallets.length; i++)... */\n    tag_454:\n        /* \"contracts/Token.sol\":36027:36035  _wallets */\n      dup2\n        /* \"contracts/Token.sol\":36027:36042  _wallets.length */\n      mload\n        /* \"contracts/Token.sol\":36023:36024  i */\n      dup2\n        /* \"contracts/Token.sol\":36023:36042  i < _wallets.length */\n      lt\n        /* \"contracts/Token.sol\":36011:36092  for(uint i; i < _wallets.length; i++)... */\n      iszero\n      tag_349\n      jumpi\n        /* \"contracts/Token.sol\":36088:36092  true */\n      0x01\n        /* \"contracts/Token.sol\":36061:36072  presaleList */\n      0x0b\n        /* \"contracts/Token.sol\":36061:36085  presaleList[_wallets[i]] */\n      0x00\n        /* \"contracts/Token.sol\":36073:36081  _wallets */\n      dup5\n        /* \"contracts/Token.sol\":36082:36083  i */\n      dup5\n        /* \"contracts/Token.sol\":36073:36084  _wallets[i] */\n      dup2\n      mload\n      dup2\n      lt\n      tag_457\n      jumpi\n      mstore(0x00, shl(0xe0, 0x4e487b71))\n      mstore(0x04, 0x32)\n      revert(0x00, 0x24)\n    tag_457:\n      0x20\n      swap1\n      dup2\n      mul\n      swap2\n      swap1\n      swap2\n      add\n      dup2\n      add\n      mload\n      sub(shl(0xa0, 0x01), 0x01)\n        /* \"contracts/Token.sol\":36061:36085  presaleList[_wallets[i]] */\n      and\n      dup3\n      mstore\n      dup2\n      add\n      swap2\n      swap1\n      swap2\n      mstore\n      0x40\n      add\n      0x00\n      keccak256\n        /* \"contracts/Token.sol\":36061:36092  presaleList[_wallets[i]] = true */\n      dup1\n      sload\n      not(0xff)\n      and\n      swap2\n      iszero\n      iszero\n      swap2\n      swap1\n      swap2\n      or\n      swap1\n      sstore\n        /* \"contracts/Token.sol\":36044:36047  i++ */\n      dup1\n      tag_458\n      dup2\n      tag_330\n      jump\t// in\n    tag_458:\n      swap2\n      pop\n      pop\n        /* \"contracts/Token.sol\":36011:36092  for(uint i; i < _wallets.length; i++)... */\n      jump(tag_454)\n        /* \"contracts/Token.sol\":36608:36701  function pre_Sale_status(bool temp) external onlyOwner {... */\n    tag_211:\n        /* \"contracts/Token.sol\":13324:13336  _msgSender() */\n      tag_460\n        /* \"contracts/Token.sol\":13324:13334  _msgSender */\n      tag_241\n        /* \"contracts/Token.sol\":13324:13336  _msgSender() */\n      jump\t// in\n    tag_460:\n      sub(shl(0xa0, 0x01), 0x01)\n        /* \"contracts/Token.sol\":13313:13336  owner() == _msgSender() */\n      and\n        /* \"contracts/Token.sol\":13313:13320  owner() */\n      tag_461\n        /* \"contracts/Token.sol\":13313:13318  owner */\n      tag_142\n        /* \"contracts/Token.sol\":13313:13320  owner() */\n      jump\t// in\n    tag_461:\n      sub(shl(0xa0, 0x01), 0x01)\n        /* \"contracts/Token.sol\":13313:13336  owner() == _msgSender() */\n      and\n      eq\n        /* \"contracts/Token.sol\":13305:13373  require(owner() == _msgSender(), \"Ownable: caller is not the owner\") */\n      tag_462\n      jumpi\n      mload(0x40)\n      shl(0xe5, 0x461bcd)\n      dup2\n      mstore\n      0x04\n      add\n      tag_233\n      swap1\n      tag_255\n      jump\t// in\n    tag_462:\n        /* \"contracts/Token.sol\":36673:36687  Presale_status */\n      0x0a\n        /* \"contracts/Token.sol\":36673:36694  Presale_status = temp */\n      dup1\n      sload\n      not(0xff)\n      and\n      swap2\n      iszero\n      iszero\n      swap2\n      swap1\n      swap2\n      or\n      swap1\n      sstore\n        /* \"contracts/Token.sol\":36608:36701  function pre_Sale_status(bool temp) external onlyOwner {... */\n      jump\t// out\n        /* \"contracts/Token.sol\":13974:14163  function transferOwnership(address newOwner) public virtual onlyOwner {... */\n    tag_215:\n        /* \"contracts/Token.sol\":13324:13336  _msgSender() */\n      tag_466\n        /* \"contracts/Token.sol\":13324:13334  _msgSender */\n      tag_241\n        /* \"contracts/Token.sol\":13324:13336  _msgSender() */\n      jump\t// in\n    tag_466:\n      sub(shl(0xa0, 0x01), 0x01)\n        /* \"contracts/Token.sol\":13313:13336  owner() == _msgSender() */\n      and\n        /* \"contracts/Token.sol\":13313:13320  owner() */\n      tag_467\n        /* \"contracts/Token.sol\":13313:13318  owner */\n      tag_142\n        /* \"contracts/Token.sol\":13313:13320  owner() */\n      jump\t// in\n    tag_467:\n      sub(shl(0xa0, 0x01), 0x01)\n        /* \"contracts/Token.sol\":13313:13336  owner() == _msgSender() */\n      and\n      eq\n        /* \"contracts/Token.sol\":13305:13373  require(owner() == _msgSender(), \"Ownable: caller is not the owner\") */\n      tag_468\n      jumpi\n      mload(0x40)\n      shl(0xe5, 0x461bcd)\n      dup2\n      mstore\n      0x04\n      add\n      tag_233\n      swap1\n      tag_255\n      jump\t// in\n    tag_468:\n      sub(shl(0xa0, 0x01), 0x01)\n        /* \"contracts/Token.sol\":14062:14084  newOwner != address(0) */\n      dup2\n      and\n        /* \"contracts/Token.sol\":14054:14127  require(newOwner != address(0), \"Ownable: new owner is the zero address\") */\n      tag_471\n      jumpi\n      mload(0x40)\n      shl(0xe5, 0x461bcd)\n      dup2\n      mstore\n      0x04\n      add\n      tag_233\n      swap1\n      tag_473\n      jump\t// in\n    tag_471:\n        /* \"contracts/Token.sol\":14137:14156  _setOwner(newOwner) */\n      tag_274\n        /* \"contracts/Token.sol\":14147:14155  newOwner */\n      dup2\n        /* \"contracts/Token.sol\":14137:14146  _setOwner */\n      tag_303\n        /* \"contracts/Token.sol\":14137:14156  _setOwner(newOwner) */\n      jump\t// in\n        /* \"contracts/Token.sol\":15050:15205  function supportsInterface(bytes4 interfaceId) public view virtual override returns (bool) {... */\n    tag_220:\n      not(sub(shl(0xe0, 0x01), 0x01))\n        /* \"contracts/Token.sol\":15158:15198  interfaceId == type(IERC165).interfaceId */\n      dup2\n      and\n      shl(0xe0, 0x01ffc9a7)\n      eq\n        /* \"contracts/Token.sol\":15050:15205  function supportsInterface(bytes4 interfaceId) public view virtual override returns (bool) {... */\n      swap2\n      swap1\n      pop\n      jump\t// out\n        /* \"contracts/Token.sol\":27377:27502  function _exists(uint256 tokenId) internal view virtual returns (bool) {... */\n    tag_231:\n        /* \"contracts/Token.sol\":27442:27446  bool */\n      0x00\n        /* \"contracts/Token.sol\":27465:27481  _owners[tokenId] */\n      swap1\n      dup2\n      mstore\n        /* \"contracts/Token.sol\":27465:27472  _owners */\n      0x03\n        /* \"contracts/Token.sol\":27465:27481  _owners[tokenId] */\n      0x20\n      mstore\n      0x40\n      swap1\n      keccak256\n      sload\n      sub(shl(0xa0, 0x01), 0x01)\n      and\n        /* \"contracts/Token.sol\":27465:27495  _owners[tokenId] != address(0) */\n      iszero\n      iszero\n      swap1\n        /* \"contracts/Token.sol\":27377:27502  function _exists(uint256 tokenId) internal view virtual returns (bool) {... */\n      jump\t// out\n        /* \"contracts/Token.sol\":587:683  function _msgSender() internal view virtual returns (address) {... */\n    tag_241:\n        /* \"contracts/Token.sol\":666:676  msg.sender */\n      caller\n        /* \"contracts/Token.sol\":587:683  function _msgSender() internal view virtual returns (address) {... */\n      swap1\n      jump\t// out\n        /* \"contracts/Token.sol\":31229:31400  function _approve(address to, uint256 tokenId) internal virtual {... */\n    tag_249:\n        /* \"contracts/Token.sol\":31303:31327  _tokenApprovals[tokenId] */\n      0x00\n      dup2\n      dup2\n      mstore\n        /* \"contracts/Token.sol\":31303:31318  _tokenApprovals */\n      0x05\n        /* \"contracts/Token.sol\":31303:31327  _tokenApprovals[tokenId] */\n      0x20\n      mstore\n      0x40\n      swap1\n      keccak256\n        /* \"contracts/Token.sol\":31303:31332  _tokenApprovals[tokenId] = to */\n      dup1\n      sload\n      not(sub(shl(0xa0, 0x01), 0x01))\n      and\n      sub(shl(0xa0, 0x01), 0x01)\n      dup5\n      and\n      swap1\n      dup2\n      or\n      swap1\n      swap2\n      sstore\n        /* \"contracts/Token.sol\":31303:31327  _tokenApprovals[tokenId] */\n      dup2\n      swap1\n        /* \"contracts/Token.sol\":31356:31379  ERC721.ownerOf(tokenId) */\n      tag_479\n        /* \"contracts/Token.sol\":31303:31327  _tokenApprovals[tokenId] */\n      dup3\n        /* \"contracts/Token.sol\":31356:31370  ERC721.ownerOf */\n      tag_112\n        /* \"contracts/Token.sol\":31356:31379  ERC721.ownerOf(tokenId) */\n      jump\t// in\n    tag_479:\n      sub(shl(0xa0, 0x01), 0x01)\n        /* \"contracts/Token.sol\":31347:31393  Approval(ERC721.ownerOf(tokenId), to, tokenId) */\n      and\n      0x8c5be1e5ebec7d5bd14f71427d1e84f3dd0314c0f7b2291e5b200ac8c7c3b925\n      mload(0x40)\n      mload(0x40)\n      dup1\n      swap2\n      sub\n      swap1\n      log4\n        /* \"contracts/Token.sol\":31229:31400  function _approve(address to, uint256 tokenId) internal virtual {... */\n      pop\n      pop\n      jump\t// out\n        /* \"contracts/Token.sol\":27660:28004  function _isApprovedOrOwner(address spender, uint256 tokenId) internal view virtual returns (bool) {... */\n    tag_260:\n        /* \"contracts/Token.sol\":27753:27757  bool */\n      0x00\n        /* \"contracts/Token.sol\":27777:27793  _exists(tokenId) */\n      tag_481\n        /* \"contracts/Token.sol\":27785:27792  tokenId */\n      dup3\n        /* \"contracts/Token.sol\":27777:27784  _exists */\n      tag_231\n        /* \"contracts/Token.sol\":27777:27793  _exists(tokenId) */\n      jump\t// in\n    tag_481:\n        /* \"contracts/Token.sol\":27769:27842  require(_exists(tokenId), \"ERC721: operator query for nonexistent token\") */\n      tag_482\n      jumpi\n      mload(0x40)\n      shl(0xe5, 0x461bcd)\n      dup2\n      mstore\n      0x04\n      add\n      tag_233\n      swap1\n      tag_484\n      jump\t// in\n    tag_482:\n        /* \"contracts/Token.sol\":27852:27865  address owner */\n      0x00\n        /* \"contracts/Token.sol\":27868:27891  ERC721.ownerOf(tokenId) */\n      tag_485\n        /* \"contracts/Token.sol\":27883:27890  tokenId */\n      dup4\n        /* \"contracts/Token.sol\":27868:27882  ERC721.ownerOf */\n      tag_112\n        /* \"contracts/Token.sol\":27868:27891  ERC721.ownerOf(tokenId) */\n      jump\t// in\n    tag_485:\n        /* \"contracts/Token.sol\":27852:27891  address owner = ERC721.ownerOf(tokenId) */\n      swap1\n      pop\n        /* \"contracts/Token.sol\":27920:27925  owner */\n      dup1\n      sub(shl(0xa0, 0x01), 0x01)\n        /* \"contracts/Token.sol\":27909:27925  spender == owner */\n      and\n        /* \"contracts/Token.sol\":27909:27916  spender */\n      dup5\n      sub(shl(0xa0, 0x01), 0x01)\n        /* \"contracts/Token.sol\":27909:27925  spender == owner */\n      and\n      eq\n        /* \"contracts/Token.sol\":27909:27960  spender == owner || getApproved(tokenId) == spender */\n      dup1\n      tag_486\n      jumpi\n      pop\n        /* \"contracts/Token.sol\":27953:27960  spender */\n      dup4\n      sub(shl(0xa0, 0x01), 0x01)\n        /* \"contracts/Token.sol\":27929:27960  getApproved(tokenId) == spender */\n      and\n        /* \"contracts/Token.sol\":27929:27949  getApproved(tokenId) */\n      tag_487\n        /* \"contracts/Token.sol\":27941:27948  tokenId */\n      dup5\n        /* \"contracts/Token.sol\":27929:27940  getApproved */\n      tag_67\n        /* \"contracts/Token.sol\":27929:27949  getApproved(tokenId) */\n      jump\t// in\n    tag_487:\n      sub(shl(0xa0, 0x01), 0x01)\n        /* \"contracts/Token.sol\":27929:27960  getApproved(tokenId) == spender */\n      and\n      eq\n        /* \"contracts/Token.sol\":27909:27960  spender == owner || getApproved(tokenId) == spender */\n    tag_486:\n        /* \"contracts/Token.sol\":27909:27996  spender == owner || getApproved(tokenId) == spender || isApprovedForAll(owner, spender) */\n      dup1\n      tag_489\n      jumpi\n      pop\n        /* \"contracts/Token.sol\":27964:27996  isApprovedForAll(owner, spender) */\n      tag_489\n        /* \"contracts/Token.sol\":27981:27986  owner */\n      dup2\n        /* \"contracts/Token.sol\":27988:27995  spender */\n      dup6\n        /* \"contracts/Token.sol\":27964:27980  isApprovedForAll */\n      tag_202\n        /* \"contracts/Token.sol\":27964:27996  isApprovedForAll(owner, spender) */\n      jump\t// in\n    tag_489:\n        /* \"contracts/Token.sol\":27901:27997  return (spender == owner || getApproved(tokenId) == spender || isApprovedForAll(owner, spender)) */\n      swap5\n        /* \"contracts/Token.sol\":27660:28004  function _isApprovedOrOwner(address spender, uint256 tokenId) internal view virtual returns (bool) {... */\n      swap4\n      pop\n      pop\n      pop\n      pop\n      jump\t// out\n        /* \"contracts/Token.sol\":30558:31118  function _transfer(... */\n    tag_265:\n        /* \"contracts/Token.sol\":30712:30716  from */\n      dup3\n      sub(shl(0xa0, 0x01), 0x01)\n        /* \"contracts/Token.sol\":30685:30716  ERC721.ownerOf(tokenId) == from */\n      and\n        /* \"contracts/Token.sol\":30685:30708  ERC721.ownerOf(tokenId) */\n      tag_491\n        /* \"contracts/Token.sol\":30700:30707  tokenId */\n      dup3\n        /* \"contracts/Token.sol\":30685:30699  ERC721.ownerOf */\n      tag_112\n        /* \"contracts/Token.sol\":30685:30708  ERC721.ownerOf(tokenId) */\n      jump\t// in\n    tag_491:\n      sub(shl(0xa0, 0x01), 0x01)\n        /* \"contracts/Token.sol\":30685:30716  ERC721.ownerOf(tokenId) == from */\n      and\n      eq\n        /* \"contracts/Token.sol\":30677:30762  require(ERC721.ownerOf(tokenId) == from, \"ERC721: transfer of token that is not own\") */\n      tag_492\n      jumpi\n      mload(0x40)\n      shl(0xe5, 0x461bcd)\n      dup2\n      mstore\n      0x04\n      add\n      tag_233\n      swap1\n      tag_494\n      jump\t// in\n    tag_492:\n      sub(shl(0xa0, 0x01), 0x01)\n        /* \"contracts/Token.sol\":30780:30796  to != address(0) */\n      dup3\n      and\n        /* \"contracts/Token.sol\":30772:30837  require(to != address(0), \"ERC721: transfer to the zero address\") */\n      tag_495\n      jumpi\n      mload(0x40)\n      shl(0xe5, 0x461bcd)\n      dup2\n      mstore\n      0x04\n      add\n      tag_233\n      swap1\n      tag_497\n      jump\t// in\n    tag_495:\n        /* \"contracts/Token.sol\":30848:30887  _beforeTokenTransfer(from, to, tokenId) */\n      tag_498\n        /* \"contracts/Token.sol\":30869:30873  from */\n      dup4\n        /* \"contracts/Token.sol\":30875:30877  to */\n      dup4\n        /* \"contracts/Token.sol\":30879:30886  tokenId */\n      dup4\n        /* \"contracts/Token.sol\":30848:30868  _beforeTokenTransfer */\n      tag_248\n        /* \"contracts/Token.sol\":30848:30887  _beforeTokenTransfer(from, to, tokenId) */\n      jump\t// in\n    tag_498:\n        /* \"contracts/Token.sol\":30949:30978  _approve(address(0), tokenId) */\n      tag_500\n        /* \"contracts/Token.sol\":30966:30967  0 */\n      0x00\n        /* \"contracts/Token.sol\":30970:30977  tokenId */\n      dup3\n        /* \"contracts/Token.sol\":30949:30957  _approve */\n      tag_249\n        /* \"contracts/Token.sol\":30949:30978  _approve(address(0), tokenId) */\n      jump\t// in\n    tag_500:\n      sub(shl(0xa0, 0x01), 0x01)\n        /* \"contracts/Token.sol\":30989:31004  _balances[from] */\n      dup4\n      and\n      0x00\n      swap1\n      dup2\n      mstore\n        /* \"contracts/Token.sol\":30989:30998  _balances */\n      0x04\n        /* \"contracts/Token.sol\":30989:31004  _balances[from] */\n      0x20\n      mstore\n      0x40\n      dup2\n      keccak256\n        /* \"contracts/Token.sol\":30989:31009  _balances[from] -= 1 */\n      dup1\n      sload\n        /* \"contracts/Token.sol\":31008:31009  1 */\n      0x01\n      swap3\n        /* \"contracts/Token.sol\":30989:31004  _balances[from] */\n      swap1\n        /* \"contracts/Token.sol\":30989:31009  _balances[from] -= 1 */\n      tag_501\n      swap1\n        /* \"contracts/Token.sol\":31008:31009  1 */\n      dup5\n      swap1\n        /* \"contracts/Token.sol\":30989:31009  _balances[from] -= 1 */\n      tag_502\n      jump\t// in\n    tag_501:\n      swap1\n      swap2\n      sstore\n      pop\n      pop\n      sub(shl(0xa0, 0x01), 0x01)\n        /* \"contracts/Token.sol\":31019:31032  _balances[to] */\n      dup3\n      and\n      0x00\n      swap1\n      dup2\n      mstore\n        /* \"contracts/Token.sol\":31019:31028  _balances */\n      0x04\n        /* \"contracts/Token.sol\":31019:31032  _balances[to] */\n      0x20\n      mstore\n      0x40\n      dup2\n      keccak256\n        /* \"contracts/Token.sol\":31019:31037  _balances[to] += 1 */\n      dup1\n      sload\n        /* \"contracts/Token.sol\":31036:31037  1 */\n      0x01\n      swap3\n        /* \"contracts/Token.sol\":31019:31032  _balances[to] */\n      swap1\n        /* \"contracts/Token.sol\":31019:31037  _balances[to] += 1 */\n      tag_503\n      swap1\n        /* \"contracts/Token.sol\":31036:31037  1 */\n      dup5\n      swap1\n        /* \"contracts/Token.sol\":31019:31037  _balances[to] += 1 */\n      tag_317\n      jump\t// in\n    tag_503:\n      swap1\n      swap2\n      sstore\n      pop\n      pop\n        /* \"contracts/Token.sol\":31047:31063  _owners[tokenId] */\n      0x00\n      dup2\n      dup2\n      mstore\n        /* \"contracts/Token.sol\":31047:31054  _owners */\n      0x03\n        /* \"contracts/Token.sol\":31047:31063  _owners[tokenId] */\n      0x20\n      mstore\n      0x40\n      dup1\n      dup3\n      keccak256\n        /* \"contracts/Token.sol\":31047:31068  _owners[tokenId] = to */\n      dup1\n      sload\n      not(sub(shl(0xa0, 0x01), 0x01))\n      and\n      sub(shl(0xa0, 0x01), 0x01)\n      dup7\n      dup2\n      and\n      swap2\n      dup3\n      or\n      swap1\n      swap3\n      sstore\n        /* \"contracts/Token.sol\":31084:31111  Transfer(from, to, tokenId) */\n      swap2\n      mload\n        /* \"contracts/Token.sol\":31047:31063  _owners[tokenId] */\n      dup5\n      swap4\n        /* \"contracts/Token.sol\":31084:31111  Transfer(from, to, tokenId) */\n      swap2\n      dup8\n      and\n      swap2\n      0xddf252ad1be2c89b69c2b068fc378daa952ba7f163c4a11628f55a4df523b3ef\n      swap2\n      log4\n        /* \"contracts/Token.sol\":30558:31118  function _transfer(... */\n      pop\n      pop\n      pop\n      jump\t// out\n        /* \"contracts/Token.sol\":14169:14338  function _setOwner(address newOwner) private {... */\n    tag_303:\n        /* \"contracts/Token.sol\":14224:14240  address oldOwner */\n      0x00\n        /* \"contracts/Token.sol\":14243:14249  _owner */\n      dup1\n      sload\n      sub(shl(0xa0, 0x01), 0x01)\n        /* \"contracts/Token.sol\":14259:14276  _owner = newOwner */\n      dup4\n      dup2\n      and\n      not(sub(shl(0xa0, 0x01), 0x01))\n      dup4\n      and\n      dup2\n      or\n      dup5\n      sstore\n        /* \"contracts/Token.sol\":14291:14331  OwnershipTransferred(oldOwner, newOwner) */\n      mload(0x40)\n        /* \"contracts/Token.sol\":14243:14249  _owner */\n      swap2\n      swap1\n      swap3\n      and\n      swap3\n      dup4\n      swap2\n        /* \"contracts/Token.sol\":14291:14331  OwnershipTransferred(oldOwner, newOwner) */\n      0x8be0079c531659141344cd1fd0a4f28419497f9722a3daafe3b4186f6b6457e0\n      swap2\n        /* \"contracts/Token.sol\":14224:14240  address oldOwner */\n      swap1\n        /* \"contracts/Token.sol\":14291:14331  OwnershipTransferred(oldOwner, newOwner) */\n      log3\n        /* \"contracts/Token.sol\":14169:14338  function _setOwner(address newOwner) private {... */\n      pop\n      pop\n      jump\t// out\n        /* \"contracts/Token.sol\":28334:28442  function _safeMint(address to, uint256 tokenId) internal virtual {... */\n    tag_328:\n        /* \"contracts/Token.sol\":28409:28435  _safeMint(to, tokenId, \"\") */\n      tag_349\n        /* \"contracts/Token.sol\":28419:28421  to */\n      dup3\n        /* \"contracts/Token.sol\":28423:28430  tokenId */\n      dup3\n        /* \"contracts/Token.sol\":28409:28435  _safeMint(to, tokenId, \"\") */\n      mload(0x40)\n      dup1\n      0x20\n      add\n      0x40\n      mstore\n      dup1\n      0x00\n      dup2\n      mstore\n      pop\n        /* \"contracts/Token.sol\":28409:28418  _safeMint */\n      tag_507\n        /* \"contracts/Token.sol\":28409:28435  _safeMint(to, tokenId, \"\") */\n      jump\t// in\n        /* \"contracts/Token.sol\":26767:27074  function _safeTransfer(... */\n    tag_365:\n        /* \"contracts/Token.sol\":26918:26946  _transfer(from, to, tokenId) */\n      tag_509\n        /* \"contracts/Token.sol\":26928:26932  from */\n      dup5\n        /* \"contracts/Token.sol\":26934:26936  to */\n      dup5\n        /* \"contracts/Token.sol\":26938:26945  tokenId */\n      dup5\n        /* \"contracts/Token.sol\":26918:26927  _transfer */\n      tag_265\n        /* \"contracts/Token.sol\":26918:26946  _transfer(from, to, tokenId) */\n      jump\t// in\n    tag_509:\n        /* \"contracts/Token.sol\":26964:27012  _checkOnERC721Received(from, to, tokenId, _data) */\n      tag_510\n        /* \"contracts/Token.sol\":26987:26991  from */\n      dup5\n        /* \"contracts/Token.sol\":26993:26995  to */\n      dup5\n        /* \"contracts/Token.sol\":26997:27004  tokenId */\n      dup5\n        /* \"contracts/Token.sol\":27006:27011  _data */\n      dup5\n        /* \"contracts/Token.sol\":26964:26986  _checkOnERC721Received */\n      tag_511\n        /* \"contracts/Token.sol\":26964:27012  _checkOnERC721Received(from, to, tokenId, _data) */\n      jump\t// in\n    tag_510:\n        /* \"contracts/Token.sol\":26956:27067  require(_checkOnERC721Received(from, to, tokenId, _data), \"ERC721: transfer to non ERC721Receiver implementer\") */\n      tag_364\n      jumpi\n      mload(0x40)\n      shl(0xe5, 0x461bcd)\n      dup2\n      mstore\n      0x04\n      add\n      tag_233\n      swap1\n      tag_514\n      jump\t// in\n        /* \"contracts/Token.sol\":37021:37127  function _baseURI() internal view virtual override returns (string memory) {... */\n    tag_404:\n        /* \"contracts/Token.sol\":37081:37094  string memory */\n      0x60\n        /* \"contracts/Token.sol\":37113:37120  baseURI */\n      0x0c\n        /* \"contracts/Token.sol\":37106:37120  return baseURI */\n      dup1\n      sload\n      tag_223\n      swap1\n      tag_224\n      jump\t// in\n        /* \"contracts/Token.sol\":1037:1740  function toString(uint256 value) internal pure returns (string memory) {... */\n    tag_408:\n        /* \"contracts/Token.sol\":1093:1106  string memory */\n      0x60\n        /* \"contracts/Token.sol\":1310:1320  value == 0 */\n      dup2\n        /* \"contracts/Token.sol\":1306:1357  if (value == 0) {... */\n      tag_522\n      jumpi\n      pop\n        /* \"contracts/Token.sol\":1336:1346  return \"0\" */\n      0x40\n      dup1\n      mload\n      dup1\n      dup3\n      add\n      swap1\n      swap2\n      mstore\n      0x01\n      dup2\n      mstore\n      shl(0xfc, 0x03)\n      0x20\n      dup3\n      add\n      mstore\n      jump(tag_216)\n        /* \"contracts/Token.sol\":1306:1357  if (value == 0) {... */\n    tag_522:\n        /* \"contracts/Token.sol\":1381:1386  value */\n      dup2\n        /* \"contracts/Token.sol\":1366:1378  uint256 temp */\n      0x00\n        /* \"contracts/Token.sol\":1420:1495  while (temp != 0) {... */\n    tag_523:\n        /* \"contracts/Token.sol\":1427:1436  temp != 0 */\n      dup2\n      iszero\n        /* \"contracts/Token.sol\":1420:1495  while (temp != 0) {... */\n      tag_524\n      jumpi\n        /* \"contracts/Token.sol\":1452:1460  digits++ */\n      dup1\n      tag_525\n      dup2\n      tag_330\n      jump\t// in\n    tag_525:\n      swap2\n      pop\n        /* \"contracts/Token.sol\":1474:1484  temp /= 10 */\n      tag_526\n      swap1\n      pop\n        /* \"contracts/Token.sol\":1482:1484  10 */\n      0x0a\n        /* \"contracts/Token.sol\":1474:1484  temp /= 10 */\n      dup4\n      tag_527\n      jump\t// in\n    tag_526:\n      swap2\n      pop\n        /* \"contracts/Token.sol\":1420:1495  while (temp != 0) {... */\n      jump(tag_523)\n    tag_524:\n        /* \"contracts/Token.sol\":1504:1523  bytes memory buffer */\n      0x00\n        /* \"contracts/Token.sol\":1536:1542  digits */\n      dup2\n        /* \"contracts/Token.sol\":1526:1543  new bytes(digits) */\n      0xffffffffffffffff\n      dup2\n      gt\n      iszero\n      tag_528\n      jumpi\n      mstore(0x00, shl(0xe0, 0x4e487b71))\n      mstore(0x04, 0x41)\n      revert(0x00, 0x24)\n    tag_528:\n      mload(0x40)\n      swap1\n      dup1\n      dup3\n      mstore\n      dup1\n      0x1f\n      add\n      not(0x1f)\n      and\n      0x20\n      add\n      dup3\n      add\n      0x40\n      mstore\n      dup1\n      iszero\n      tag_529\n      jumpi\n      0x20\n      dup3\n      add\n      dup2\n      dup1\n      calldatasize\n      dup4\n      calldatacopy\n      add\n      swap1\n      pop\n    tag_529:\n      pop\n        /* \"contracts/Token.sol\":1504:1543  bytes memory buffer = new bytes(digits) */\n      swap1\n      pop\n        /* \"contracts/Token.sol\":1553:1703  while (value != 0) {... */\n    tag_530:\n        /* \"contracts/Token.sol\":1560:1570  value != 0 */\n      dup5\n      iszero\n        /* \"contracts/Token.sol\":1553:1703  while (value != 0) {... */\n      tag_489\n      jumpi\n        /* \"contracts/Token.sol\":1586:1597  digits -= 1 */\n      tag_532\n        /* \"contracts/Token.sol\":1596:1597  1 */\n      0x01\n        /* \"contracts/Token.sol\":1586:1597  digits -= 1 */\n      dup4\n      tag_502\n      jump\t// in\n    tag_532:\n      swap2\n      pop\n        /* \"contracts/Token.sol\":1654:1664  value % 10 */\n      tag_533\n        /* \"contracts/Token.sol\":1662:1664  10 */\n      0x0a\n        /* \"contracts/Token.sol\":1654:1659  value */\n      dup7\n        /* \"contracts/Token.sol\":1654:1664  value % 10 */\n      tag_534\n      jump\t// in\n    tag_533:\n        /* \"contracts/Token.sol\":1641:1665  48 + uint256(value % 10) */\n      tag_535\n      swap1\n        /* \"contracts/Token.sol\":1641:1643  48 */\n      0x30\n        /* \"contracts/Token.sol\":1641:1665  48 + uint256(value % 10) */\n      tag_317\n      jump\t// in\n    tag_535:\n        /* \"contracts/Token.sol\":1628:1667  bytes1(uint8(48 + uint256(value % 10))) */\n      0xf8\n      shl\n        /* \"contracts/Token.sol\":1611:1617  buffer */\n      dup2\n        /* \"contracts/Token.sol\":1618:1624  digits */\n      dup4\n        /* \"contracts/Token.sol\":1611:1625  buffer[digits] */\n      dup2\n      mload\n      dup2\n      lt\n      tag_536\n      jumpi\n      mstore(0x00, shl(0xe0, 0x4e487b71))\n      mstore(0x04, 0x32)\n      revert(0x00, 0x24)\n    tag_536:\n      0x20\n      add\n      add\n        /* \"contracts/Token.sol\":1611:1667  buffer[digits] = bytes1(uint8(48 + uint256(value % 10))) */\n      swap1\n      not(sub(shl(0xf8, 0x01), 0x01))\n      and\n      swap1\n      dup2\n      0x00\n      byte\n      swap1\n      mstore8\n      pop\n        /* \"contracts/Token.sol\":1681:1692  value /= 10 */\n      tag_537\n        /* \"contracts/Token.sol\":1690:1692  10 */\n      0x0a\n        /* \"contracts/Token.sol\":1681:1692  value /= 10 */\n      dup7\n      tag_527\n      jump\t// in\n    tag_537:\n      swap5\n      pop\n        /* \"contracts/Token.sol\":1553:1703  while (value != 0) {... */\n      jump(tag_530)\n        /* \"contracts/Token.sol\":28663:28974  function _safeMint(... */\n    tag_507:\n        /* \"contracts/Token.sol\":28788:28806  _mint(to, tokenId) */\n      tag_540\n        /* \"contracts/Token.sol\":28794:28796  to */\n      dup4\n        /* \"contracts/Token.sol\":28798:28805  tokenId */\n      dup4\n        /* \"contracts/Token.sol\":28788:28793  _mint */\n      tag_541\n        /* \"contracts/Token.sol\":28788:28806  _mint(to, tokenId) */\n      jump\t// in\n    tag_540:\n        /* \"contracts/Token.sol\":28837:28891  _checkOnERC721Received(address(0), to, tokenId, _data) */\n      tag_542\n        /* \"contracts/Token.sol\":28868:28869  0 */\n      0x00\n        /* \"contracts/Token.sol\":28872:28874  to */\n      dup5\n        /* \"contracts/Token.sol\":28876:28883  tokenId */\n      dup5\n        /* \"contracts/Token.sol\":28885:28890  _data */\n      dup5\n        /* \"contracts/Token.sol\":28837:28859  _checkOnERC721Received */\n      tag_511\n        /* \"contracts/Token.sol\":28837:28891  _checkOnERC721Received(address(0), to, tokenId, _data) */\n      jump\t// in\n    tag_542:\n        /* \"contracts/Token.sol\":28816:28967  require(... */\n      tag_248\n      jumpi\n      mload(0x40)\n      shl(0xe5, 0x461bcd)\n      dup2\n      mstore\n      0x04\n      add\n      tag_233\n      swap1\n      tag_514\n      jump\t// in\n        /* \"contracts/Token.sol\":31953:32731  function _checkOnERC721Received(... */\n    tag_511:\n        /* \"contracts/Token.sol\":32103:32107  bool */\n      0x00\n        /* \"contracts/Token.sol\":32123:32138  to.isContract() */\n      tag_546\n        /* \"contracts/Token.sol\":32123:32125  to */\n      dup5\n      sub(shl(0xa0, 0x01), 0x01)\n        /* \"contracts/Token.sol\":32123:32136  to.isContract */\n      and\n      tag_547\n        /* \"contracts/Token.sol\":32123:32138  to.isContract() */\n      jump\t// in\n    tag_546:\n        /* \"contracts/Token.sol\":32119:32725  if (to.isContract()) {... */\n      iszero\n      tag_548\n      jumpi\n        /* \"contracts/Token.sol\":32174:32176  to */\n      dup4\n      sub(shl(0xa0, 0x01), 0x01)\n        /* \"contracts/Token.sol\":32158:32194  IERC721Receiver(to).onERC721Received */\n      and\n      0x150b7a02\n        /* \"contracts/Token.sol\":32195:32207  _msgSender() */\n      tag_549\n        /* \"contracts/Token.sol\":32195:32205  _msgSender */\n      tag_241\n        /* \"contracts/Token.sol\":32195:32207  _msgSender() */\n      jump\t// in\n    tag_549:\n        /* \"contracts/Token.sol\":32209:32213  from */\n      dup8\n        /* \"contracts/Token.sol\":32215:32222  tokenId */\n      dup7\n        /* \"contracts/Token.sol\":32224:32229  _data */\n      dup7\n        /* \"contracts/Token.sol\":32158:32230  IERC721Receiver(to).onERC721Received(_msgSender(), from, tokenId, _data) */\n      mload(0x40)\n      dup6\n      0xffffffff\n      and\n      0xe0\n      shl\n      dup2\n      mstore\n      0x04\n      add\n      tag_550\n      swap5\n      swap4\n      swap3\n      swap2\n      swap1\n      tag_551\n      jump\t// in\n    tag_550:\n      0x20\n      mload(0x40)\n      dup1\n      dup4\n      sub\n      dup2\n      0x00\n      dup8\n      dup1\n      extcodesize\n      iszero\n      dup1\n      iszero\n      tag_552\n      jumpi\n      0x00\n      dup1\n      revert\n    tag_552:\n      pop\n      gas\n      call\n      swap3\n      pop\n      pop\n      pop\n      dup1\n      iszero\n      tag_553\n      jumpi\n      pop\n      0x40\n      dup1\n      mload\n      0x1f\n      returndatasize\n      swap1\n      dup2\n      add\n      not(0x1f)\n      and\n      dup3\n      add\n      swap1\n      swap3\n      mstore\n      tag_554\n      swap2\n      dup2\n      add\n      swap1\n      tag_555\n      jump\t// in\n    tag_554:\n      0x01\n    tag_553:\n        /* \"contracts/Token.sol\":32154:32673  try IERC721Receiver(to).onERC721Received(_msgSender(), from, tokenId, _data) returns (bytes4 retval) {... */\n      tag_556\n      jumpi\n      returndatasize\n      dup1\n      dup1\n      iszero\n      tag_560\n      jumpi\n      mload(0x40)\n      swap2\n      pop\n      and(add(returndatasize, 0x3f), not(0x1f))\n      dup3\n      add\n      0x40\n      mstore\n      returndatasize\n      dup3\n      mstore\n      returndatasize\n      0x00\n      0x20\n      dup5\n      add\n      returndatacopy\n      jump(tag_559)\n    tag_560:\n      0x60\n      swap2\n      pop\n    tag_559:\n      pop\n        /* \"contracts/Token.sol\":32397:32410  reason.length */\n      dup1\n      mload\n        /* \"contracts/Token.sol\":32393:32659  if (reason.length == 0) {... */\n      tag_561\n      jumpi\n        /* \"contracts/Token.sol\":32439:32499  revert(\"ERC721: transfer to non ERC721Receiver implementer\") */\n      mload(0x40)\n      shl(0xe5, 0x461bcd)\n      dup2\n      mstore\n      0x04\n      add\n      tag_233\n      swap1\n      tag_514\n      jump\t// in\n        /* \"contracts/Token.sol\":32393:32659  if (reason.length == 0) {... */\n    tag_561:\n        /* \"contracts/Token.sol\":32611:32617  reason */\n      dup1\n        /* \"contracts/Token.sol\":32605:32618  mload(reason) */\n      mload\n        /* \"contracts/Token.sol\":32596:32602  reason */\n      dup2\n        /* \"contracts/Token.sol\":32592:32594  32 */\n      0x20\n        /* \"contracts/Token.sol\":32588:32603  add(32, reason) */\n      add\n        /* \"contracts/Token.sol\":32581:32619  revert(add(32, reason), mload(reason)) */\n      revert\n        /* \"contracts/Token.sol\":32154:32673  try IERC721Receiver(to).onERC721Received(_msgSender(), from, tokenId, _data) returns (bytes4 retval) {... */\n    tag_556:\n      not(sub(shl(0xe0, 0x01), 0x01))\n        /* \"contracts/Token.sol\":32280:32331  retval == IERC721Receiver.onERC721Received.selector */\n      and\n      shl(0xe1, 0x0a85bd01)\n      eq\n      swap1\n      pop\n        /* \"contracts/Token.sol\":32273:32331  return retval == IERC721Receiver.onERC721Received.selector */\n      jump(tag_489)\n        /* \"contracts/Token.sol\":32119:32725  if (to.isContract()) {... */\n    tag_548:\n      pop\n        /* \"contracts/Token.sol\":32710:32714  true */\n      0x01\n        /* \"contracts/Token.sol\":31953:32731  function _checkOnERC721Received(... */\n      swap5\n      swap4\n      pop\n      pop\n      pop\n      pop\n      jump\t// out\n        /* \"contracts/Token.sol\":29296:29668  function _mint(address to, uint256 tokenId) internal virtual {... */\n    tag_541:\n      sub(shl(0xa0, 0x01), 0x01)\n        /* \"contracts/Token.sol\":29375:29391  to != address(0) */\n      dup3\n      and\n        /* \"contracts/Token.sol\":29367:29428  require(to != address(0), \"ERC721: mint to the zero address\") */\n      tag_567\n      jumpi\n      mload(0x40)\n      shl(0xe5, 0x461bcd)\n      dup2\n      mstore\n      0x04\n      add\n      tag_233\n      swap1\n      tag_569\n      jump\t// in\n    tag_567:\n        /* \"contracts/Token.sol\":29447:29463  _exists(tokenId) */\n      tag_570\n        /* \"contracts/Token.sol\":29455:29462  tokenId */\n      dup2\n        /* \"contracts/Token.sol\":29447:29454  _exists */\n      tag_231\n        /* \"contracts/Token.sol\":29447:29463  _exists(tokenId) */\n      jump\t// in\n    tag_570:\n        /* \"contracts/Token.sol\":29446:29463  !_exists(tokenId) */\n      iszero\n        /* \"contracts/Token.sol\":29438:29496  require(!_exists(tokenId), \"ERC721: token already minted\") */\n      tag_571\n      jumpi\n      mload(0x40)\n      shl(0xe5, 0x461bcd)\n      dup2\n      mstore\n      0x04\n      add\n      tag_233\n      swap1\n      tag_573\n      jump\t// in\n    tag_571:\n        /* \"contracts/Token.sol\":29507:29552  _beforeTokenTransfer(address(0), to, tokenId) */\n      tag_574\n        /* \"contracts/Token.sol\":29536:29537  0 */\n      0x00\n        /* \"contracts/Token.sol\":29540:29542  to */\n      dup4\n        /* \"contracts/Token.sol\":29544:29551  tokenId */\n      dup4\n        /* \"contracts/Token.sol\":29507:29527  _beforeTokenTransfer */\n      tag_248\n        /* \"contracts/Token.sol\":29507:29552  _beforeTokenTransfer(address(0), to, tokenId) */\n      jump\t// in\n    tag_574:\n      sub(shl(0xa0, 0x01), 0x01)\n        /* \"contracts/Token.sol\":29563:29576  _balances[to] */\n      dup3\n      and\n      0x00\n      swap1\n      dup2\n      mstore\n        /* \"contracts/Token.sol\":29563:29572  _balances */\n      0x04\n        /* \"contracts/Token.sol\":29563:29576  _balances[to] */\n      0x20\n      mstore\n      0x40\n      dup2\n      keccak256\n        /* \"contracts/Token.sol\":29563:29581  _balances[to] += 1 */\n      dup1\n      sload\n        /* \"contracts/Token.sol\":29580:29581  1 */\n      0x01\n      swap3\n        /* \"contracts/Token.sol\":29563:29576  _balances[to] */\n      swap1\n        /* \"contracts/Token.sol\":29563:29581  _balances[to] += 1 */\n      tag_575\n      swap1\n        /* \"contracts/Token.sol\":29580:29581  1 */\n      dup5\n      swap1\n        /* \"contracts/Token.sol\":29563:29581  _balances[to] += 1 */\n      tag_317\n      jump\t// in\n    tag_575:\n      swap1\n      swap2\n      sstore\n      pop\n      pop\n        /* \"contracts/Token.sol\":29591:29607  _owners[tokenId] */\n      0x00\n      dup2\n      dup2\n      mstore\n        /* \"contracts/Token.sol\":29591:29598  _owners */\n      0x03\n        /* \"contracts/Token.sol\":29591:29607  _owners[tokenId] */\n      0x20\n      mstore\n      0x40\n      dup1\n      dup3\n      keccak256\n        /* \"contracts/Token.sol\":29591:29612  _owners[tokenId] = to */\n      dup1\n      sload\n      not(sub(shl(0xa0, 0x01), 0x01))\n      and\n      sub(shl(0xa0, 0x01), 0x01)\n      dup7\n      and\n      swap1\n      dup2\n      or\n      swap1\n      swap2\n      sstore\n        /* \"contracts/Token.sol\":29628:29661  Transfer(address(0), to, tokenId) */\n      swap1\n      mload\n        /* \"contracts/Token.sol\":29591:29607  _owners[tokenId] */\n      dup4\n      swap3\n      swap1\n        /* \"contracts/Token.sol\":29628:29661  Transfer(address(0), to, tokenId) */\n      0xddf252ad1be2c89b69c2b068fc378daa952ba7f163c4a11628f55a4df523b3ef\n      swap1\n        /* \"contracts/Token.sol\":29591:29607  _owners[tokenId] */\n      dup3\n      swap1\n        /* \"contracts/Token.sol\":29628:29661  Transfer(address(0), to, tokenId) */\n      log4\n        /* \"contracts/Token.sol\":29296:29668  function _mint(address to, uint256 tokenId) internal virtual {... */\n      pop\n      pop\n      jump\t// out\n        /* \"contracts/Token.sol\":3429:3806  function isContract(address account) internal view returns (bool) {... */\n    tag_547:\n        /* \"contracts/Token.sol\":3745:3765  extcodesize(account) */\n      extcodesize\n        /* \"contracts/Token.sol\":3791:3799  size > 0 */\n      iszero\n      iszero\n      swap1\n        /* \"contracts/Token.sol\":3429:3806  function isContract(address account) internal view returns (bool) {... */\n      jump\t// out\n    tag_350:\n      dup3\n      dup1\n      sload\n      tag_577\n      swap1\n      tag_224\n      jump\t// in\n    tag_577:\n      swap1\n      0x00\n      mstore\n      keccak256(0x00, 0x20)\n      swap1\n      0x1f\n      add\n      0x20\n      swap1\n      div\n      dup2\n      add\n      swap3\n      dup3\n      tag_579\n      jumpi\n      0x00\n      dup6\n      sstore\n      jump(tag_582)\n    tag_579:\n      dup3\n      0x1f\n      lt\n      tag_580\n      jumpi\n      dup1\n      mload\n      not(0xff)\n      and\n      dup4\n      dup1\n      add\n      or\n      dup6\n      sstore\n      jump(tag_582)\n    tag_580:\n      dup3\n      dup1\n      add\n      0x01\n      add\n      dup6\n      sstore\n      dup3\n      iszero\n      tag_582\n      jumpi\n      swap2\n      dup3\n      add\n    tag_581:\n      dup3\n      dup2\n      gt\n      iszero\n      tag_582\n      jumpi\n      dup3\n      mload\n      dup3\n      sstore\n      swap2\n      0x20\n      add\n      swap2\n      swap1\n      0x01\n      add\n      swap1\n      jump(tag_581)\n    tag_582:\n      pop\n      tag_583\n      swap3\n      swap2\n      pop\n      tag_584\n      jump\t// in\n    tag_583:\n      pop\n      swap1\n      jump\t// out\n    tag_584:\n    tag_585:\n      dup1\n      dup3\n      gt\n      iszero\n      tag_583\n      jumpi\n      0x00\n      dup2\n      sstore\n      0x01\n      add\n      jump(tag_585)\n        /* \"#utility.yul\":14:423   */\n    tag_588:\n      0x00\n        /* \"#utility.yul\":114:132   */\n      0xffffffffffffffff\n        /* \"#utility.yul\":106:112   */\n      dup4\n        /* \"#utility.yul\":103:133   */\n      gt\n        /* \"#utility.yul\":100:102   */\n      iszero\n      tag_591\n      jumpi\n        /* \"#utility.yul\":136:154   */\n      tag_591\n      tag_592\n      jump\t// in\n    tag_591:\n        /* \"#utility.yul\":174:232   */\n      tag_593\n        /* \"#utility.yul\":220:222   */\n      0x1f\n        /* \"#utility.yul\":197:214   */\n      dup5\n      add\n      not(0x1f)\n        /* \"#utility.yul\":193:224   */\n      and\n        /* \"#utility.yul\":226:230   */\n      0x20\n        /* \"#utility.yul\":189:231   */\n      add\n        /* \"#utility.yul\":174:232   */\n      tag_594\n      jump\t// in\n    tag_593:\n        /* \"#utility.yul\":165:232   */\n      swap1\n      pop\n        /* \"#utility.yul\":255:261   */\n      dup3\n        /* \"#utility.yul\":248:253   */\n      dup2\n        /* \"#utility.yul\":241:262   */\n      mstore\n        /* \"#utility.yul\":295:298   */\n      dup4\n        /* \"#utility.yul\":286:292   */\n      dup4\n        /* \"#utility.yul\":281:284   */\n      dup4\n        /* \"#utility.yul\":277:293   */\n      add\n        /* \"#utility.yul\":274:299   */\n      gt\n        /* \"#utility.yul\":271:273   */\n      iszero\n      tag_595\n      jumpi\n        /* \"#utility.yul\":312:313   */\n      0x00\n        /* \"#utility.yul\":309:310   */\n      dup1\n        /* \"#utility.yul\":302:314   */\n      revert\n        /* \"#utility.yul\":271:273   */\n    tag_595:\n        /* \"#utility.yul\":361:367   */\n      dup3\n        /* \"#utility.yul\":356:359   */\n      dup3\n        /* \"#utility.yul\":349:353   */\n      0x20\n        /* \"#utility.yul\":342:347   */\n      dup4\n        /* \"#utility.yul\":338:354   */\n      add\n        /* \"#utility.yul\":325:368   */\n      calldatacopy\n        /* \"#utility.yul\":415:416   */\n      0x00\n        /* \"#utility.yul\":408:412   */\n      0x20\n        /* \"#utility.yul\":399:405   */\n      dup5\n        /* \"#utility.yul\":392:397   */\n      dup4\n        /* \"#utility.yul\":388:406   */\n      add\n        /* \"#utility.yul\":384:413   */\n      add\n        /* \"#utility.yul\":377:417   */\n      mstore\n        /* \"#utility.yul\":90:423   */\n      swap4\n      swap3\n      pop\n      pop\n      pop\n      jump\t// out\n        /* \"#utility.yul\":428:603   */\n    tag_596:\n        /* \"#utility.yul\":498:518   */\n      dup1\n      calldataload\n      sub(shl(0xa0, 0x01), 0x01)\n        /* \"#utility.yul\":547:578   */\n      dup2\n      and\n        /* \"#utility.yul\":537:579   */\n      dup2\n      eq\n        /* \"#utility.yul\":527:529   */\n      tag_216\n      jumpi\n        /* \"#utility.yul\":593:594   */\n      0x00\n        /* \"#utility.yul\":590:591   */\n      dup1\n        /* \"#utility.yul\":583:595   */\n      revert\n        /* \"#utility.yul\":608:770   */\n    tag_599:\n        /* \"#utility.yul\":675:695   */\n      dup1\n      calldataload\n        /* \"#utility.yul\":731:744   */\n      dup1\n      iszero\n        /* \"#utility.yul\":724:745   */\n      iszero\n        /* \"#utility.yul\":714:746   */\n      dup2\n      eq\n        /* \"#utility.yul\":704:706   */\n      tag_216\n      jumpi\n        /* \"#utility.yul\":760:761   */\n      0x00\n        /* \"#utility.yul\":757:758   */\n      dup1\n        /* \"#utility.yul\":750:762   */\n      revert\n        /* \"#utility.yul\":775:973   */\n    tag_125:\n      0x00\n        /* \"#utility.yul\":887:889   */\n      0x20\n        /* \"#utility.yul\":875:884   */\n      dup3\n        /* \"#utility.yul\":866:873   */\n      dup5\n        /* \"#utility.yul\":862:885   */\n      sub\n        /* \"#utility.yul\":858:890   */\n      slt\n        /* \"#utility.yul\":855:857   */\n      iszero\n      tag_603\n      jumpi\n        /* \"#utility.yul\":908:914   */\n      dup1\n        /* \"#utility.yul\":900:906   */\n      dup2\n        /* \"#utility.yul\":893:915   */\n      revert\n        /* \"#utility.yul\":855:857   */\n    tag_603:\n        /* \"#utility.yul\":936:967   */\n      tag_406\n        /* \"#utility.yul\":957:966   */\n      dup3\n        /* \"#utility.yul\":936:967   */\n      tag_596\n      jump\t// in\n        /* \"#utility.yul\":978:1252   */\n    tag_201:\n      0x00\n      dup1\n        /* \"#utility.yul\":1107:1109   */\n      0x40\n        /* \"#utility.yul\":1095:1104   */\n      dup4\n        /* \"#utility.yul\":1086:1093   */\n      dup6\n        /* \"#utility.yul\":1082:1105   */\n      sub\n        /* \"#utility.yul\":1078:1110   */\n      slt\n        /* \"#utility.yul\":1075:1077   */\n      iszero\n      tag_606\n      jumpi\n        /* \"#utility.yul\":1128:1134   */\n      dup1\n        /* \"#utility.yul\":1120:1126   */\n      dup2\n        /* \"#utility.yul\":1113:1135   */\n      revert\n        /* \"#utility.yul\":1075:1077   */\n    tag_606:\n        /* \"#utility.yul\":1156:1187   */\n      tag_607\n        /* \"#utility.yul\":1177:1186   */\n      dup4\n        /* \"#utility.yul\":1156:1187   */\n      tag_596\n      jump\t// in\n    tag_607:\n        /* \"#utility.yul\":1146:1187   */\n      swap2\n      pop\n        /* \"#utility.yul\":1206:1246   */\n      tag_608\n        /* \"#utility.yul\":1242:1244   */\n      0x20\n        /* \"#utility.yul\":1231:1240   */\n      dup5\n        /* \"#utility.yul\":1227:1245   */\n      add\n        /* \"#utility.yul\":1206:1246   */\n      tag_596\n      jump\t// in\n    tag_608:\n        /* \"#utility.yul\":1196:1246   */\n      swap1\n      pop\n        /* \"#utility.yul\":1065:1252   */\n      swap3\n      pop\n      swap3\n      swap1\n      pop\n      jump\t// out\n        /* \"#utility.yul\":1257:1599   */\n    tag_92:\n      0x00\n      dup1\n      0x00\n        /* \"#utility.yul\":1403:1405   */\n      0x60\n        /* \"#utility.yul\":1391:1400   */\n      dup5\n        /* \"#utility.yul\":1382:1389   */\n      dup7\n        /* \"#utility.yul\":1378:1401   */\n      sub\n        /* \"#utility.yul\":1374:1406   */\n      slt\n        /* \"#utility.yul\":1371:1373   */\n      iszero\n      tag_610\n      jumpi\n        /* \"#utility.yul\":1424:1430   */\n      dup1\n        /* \"#utility.yul\":1416:1422   */\n      dup2\n        /* \"#utility.yul\":1409:1431   */\n      revert\n        /* \"#utility.yul\":1371:1373   */\n    tag_610:\n        /* \"#utility.yul\":1452:1483   */\n      tag_611\n        /* \"#utility.yul\":1473:1482   */\n      dup5\n        /* \"#utility.yul\":1452:1483   */\n      tag_596\n      jump\t// in\n    tag_611:\n        /* \"#utility.yul\":1442:1483   */\n      swap3\n      pop\n        /* \"#utility.yul\":1502:1542   */\n      tag_612\n        /* \"#utility.yul\":1538:1540   */\n      0x20\n        /* \"#utility.yul\":1527:1536   */\n      dup6\n        /* \"#utility.yul\":1523:1541   */\n      add\n        /* \"#utility.yul\":1502:1542   */\n      tag_596\n      jump\t// in\n    tag_612:\n        /* \"#utility.yul\":1492:1542   */\n      swap2\n      pop\n        /* \"#utility.yul\":1589:1591   */\n      0x40\n        /* \"#utility.yul\":1578:1587   */\n      dup5\n        /* \"#utility.yul\":1574:1592   */\n      add\n        /* \"#utility.yul\":1561:1593   */\n      calldataload\n        /* \"#utility.yul\":1551:1593   */\n      swap1\n      pop\n        /* \"#utility.yul\":1361:1599   */\n      swap3\n      pop\n      swap3\n      pop\n      swap3\n      jump\t// out\n        /* \"#utility.yul\":1604:2306   */\n    tag_173:\n      0x00\n      dup1\n      0x00\n      dup1\n        /* \"#utility.yul\":1776:1779   */\n      0x80\n        /* \"#utility.yul\":1764:1773   */\n      dup6\n        /* \"#utility.yul\":1755:1762   */\n      dup8\n        /* \"#utility.yul\":1751:1774   */\n      sub\n        /* \"#utility.yul\":1747:1780   */\n      slt\n        /* \"#utility.yul\":1744:1746   */\n      iszero\n      tag_614\n      jumpi\n        /* \"#utility.yul\":1798:1804   */\n      dup1\n        /* \"#utility.yul\":1790:1796   */\n      dup2\n        /* \"#utility.yul\":1783:1805   */\n      revert\n        /* \"#utility.yul\":1744:1746   */\n    tag_614:\n        /* \"#utility.yul\":1826:1857   */\n      tag_615\n        /* \"#utility.yul\":1847:1856   */\n      dup6\n        /* \"#utility.yul\":1826:1857   */\n      tag_596\n      jump\t// in\n    tag_615:\n        /* \"#utility.yul\":1816:1857   */\n      swap4\n      pop\n        /* \"#utility.yul\":1876:1916   */\n      tag_616\n        /* \"#utility.yul\":1912:1914   */\n      0x20\n        /* \"#utility.yul\":1901:1910   */\n      dup7\n        /* \"#utility.yul\":1897:1915   */\n      add\n        /* \"#utility.yul\":1876:1916   */\n      tag_596\n      jump\t// in\n    tag_616:\n        /* \"#utility.yul\":1866:1916   */\n      swap3\n      pop\n        /* \"#utility.yul\":1963:1965   */\n      0x40\n        /* \"#utility.yul\":1952:1961   */\n      dup6\n        /* \"#utility.yul\":1948:1966   */\n      add\n        /* \"#utility.yul\":1935:1967   */\n      calldataload\n        /* \"#utility.yul\":1925:1967   */\n      swap2\n      pop\n        /* \"#utility.yul\":2018:2020   */\n      0x60\n        /* \"#utility.yul\":2007:2016   */\n      dup6\n        /* \"#utility.yul\":2003:2021   */\n      add\n        /* \"#utility.yul\":1990:2022   */\n      calldataload\n        /* \"#utility.yul\":2045:2063   */\n      0xffffffffffffffff\n        /* \"#utility.yul\":2037:2043   */\n      dup2\n        /* \"#utility.yul\":2034:2064   */\n      gt\n        /* \"#utility.yul\":2031:2033   */\n      iszero\n      tag_617\n      jumpi\n        /* \"#utility.yul\":2082:2088   */\n      dup2\n        /* \"#utility.yul\":2074:2080   */\n      dup3\n        /* \"#utility.yul\":2067:2089   */\n      revert\n        /* \"#utility.yul\":2031:2033   */\n    tag_617:\n        /* \"#utility.yul\":2110:2132   */\n      dup6\n      add\n        /* \"#utility.yul\":2163:2167   */\n      0x1f\n        /* \"#utility.yul\":2155:2168   */\n      dup2\n      add\n        /* \"#utility.yul\":2151:2178   */\n      dup8\n      sgt\n        /* \"#utility.yul\":2141:2143   */\n      tag_618\n      jumpi\n        /* \"#utility.yul\":2197:2203   */\n      dup2\n        /* \"#utility.yul\":2189:2195   */\n      dup3\n        /* \"#utility.yul\":2182:2204   */\n      revert\n        /* \"#utility.yul\":2141:2143   */\n    tag_618:\n        /* \"#utility.yul\":2225:2300   */\n      tag_619\n        /* \"#utility.yul\":2292:2299   */\n      dup8\n        /* \"#utility.yul\":2287:2289   */\n      dup3\n        /* \"#utility.yul\":2274:2290   */\n      calldataload\n        /* \"#utility.yul\":2269:2271   */\n      0x20\n        /* \"#utility.yul\":2265:2267   */\n      dup5\n        /* \"#utility.yul\":2261:2272   */\n      add\n        /* \"#utility.yul\":2225:2300   */\n      tag_588\n      jump\t// in\n    tag_619:\n        /* \"#utility.yul\":2215:2300   */\n      swap2\n      pop\n      pop\n        /* \"#utility.yul\":1734:2306   */\n      swap3\n      swap6\n      swap2\n      swap5\n      pop\n      swap3\n      pop\n      jump\t// out\n        /* \"#utility.yul\":2311:2579   */\n    tag_168:\n      0x00\n      dup1\n        /* \"#utility.yul\":2437:2439   */\n      0x40\n        /* \"#utility.yul\":2425:2434   */\n      dup4\n        /* \"#utility.yul\":2416:2423   */\n      dup6\n        /* \"#utility.yul\":2412:2435   */\n      sub\n        /* \"#utility.yul\":2408:2440   */\n      slt\n        /* \"#utility.yul\":2405:2407   */\n      iszero\n      tag_621\n      jumpi\n        /* \"#utility.yul\":2458:2464   */\n      dup2\n        /* \"#utility.yul\":2450:2456   */\n      dup3\n        /* \"#utility.yul\":2443:2465   */\n      revert\n        /* \"#utility.yul\":2405:2407   */\n    tag_621:\n        /* \"#utility.yul\":2486:2517   */\n      tag_622\n        /* \"#utility.yul\":2507:2516   */\n      dup4\n        /* \"#utility.yul\":2486:2517   */\n      tag_596\n      jump\t// in\n    tag_622:\n        /* \"#utility.yul\":2476:2517   */\n      swap2\n      pop\n        /* \"#utility.yul\":2536:2573   */\n      tag_608\n        /* \"#utility.yul\":2569:2571   */\n      0x20\n        /* \"#utility.yul\":2558:2567   */\n      dup5\n        /* \"#utility.yul\":2554:2572   */\n      add\n        /* \"#utility.yul\":2536:2573   */\n      tag_599\n      jump\t// in\n        /* \"#utility.yul\":2584:2850   */\n    tag_73:\n      0x00\n      dup1\n        /* \"#utility.yul\":2713:2715   */\n      0x40\n        /* \"#utility.yul\":2701:2710   */\n      dup4\n        /* \"#utility.yul\":2692:2699   */\n      dup6\n        /* \"#utility.yul\":2688:2711   */\n      sub\n        /* \"#utility.yul\":2684:2716   */\n      slt\n        /* \"#utility.yul\":2681:2683   */\n      iszero\n      tag_625\n      jumpi\n        /* \"#utility.yul\":2734:2740   */\n      dup2\n        /* \"#utility.yul\":2726:2732   */\n      dup3\n        /* \"#utility.yul\":2719:2741   */\n      revert\n        /* \"#utility.yul\":2681:2683   */\n    tag_625:\n        /* \"#utility.yul\":2762:2793   */\n      tag_626\n        /* \"#utility.yul\":2783:2792   */\n      dup4\n        /* \"#utility.yul\":2762:2793   */\n      tag_596\n      jump\t// in\n    tag_626:\n        /* \"#utility.yul\":2752:2793   */\n      swap5\n        /* \"#utility.yul\":2840:2842   */\n      0x20\n        /* \"#utility.yul\":2825:2843   */\n      swap4\n      swap1\n      swap4\n      add\n        /* \"#utility.yul\":2812:2844   */\n      calldataload\n      swap4\n      pop\n      pop\n      pop\n        /* \"#utility.yul\":2671:2850   */\n      jump\t// out\n        /* \"#utility.yul\":2855:3865   */\n    tag_134:\n      0x00\n        /* \"#utility.yul\":2970:2972   */\n      0x20\n        /* \"#utility.yul\":3013:3015   */\n      dup1\n        /* \"#utility.yul\":3001:3010   */\n      dup4\n        /* \"#utility.yul\":2992:2999   */\n      dup6\n        /* \"#utility.yul\":2988:3011   */\n      sub\n        /* \"#utility.yul\":2984:3016   */\n      slt\n        /* \"#utility.yul\":2981:2983   */\n      iszero\n      tag_628\n      jumpi\n        /* \"#utility.yul\":3034:3040   */\n      dup2\n        /* \"#utility.yul\":3026:3032   */\n      dup3\n        /* \"#utility.yul\":3019:3041   */\n      revert\n        /* \"#utility.yul\":2981:2983   */\n    tag_628:\n        /* \"#utility.yul\":3079:3088   */\n      dup3\n        /* \"#utility.yul\":3066:3089   */\n      calldataload\n        /* \"#utility.yul\":3108:3126   */\n      0xffffffffffffffff\n        /* \"#utility.yul\":3149:3151   */\n      dup1\n        /* \"#utility.yul\":3141:3147   */\n      dup3\n        /* \"#utility.yul\":3138:3152   */\n      gt\n        /* \"#utility.yul\":3135:3137   */\n      iszero\n      tag_629\n      jumpi\n        /* \"#utility.yul\":3170:3176   */\n      dup4\n        /* \"#utility.yul\":3162:3168   */\n      dup5\n        /* \"#utility.yul\":3155:3177   */\n      revert\n        /* \"#utility.yul\":3135:3137   */\n    tag_629:\n        /* \"#utility.yul\":3213:3219   */\n      dup2\n        /* \"#utility.yul\":3202:3211   */\n      dup6\n        /* \"#utility.yul\":3198:3220   */\n      add\n        /* \"#utility.yul\":3188:3220   */\n      swap2\n      pop\n        /* \"#utility.yul\":3258:3265   */\n      dup6\n        /* \"#utility.yul\":3251:3255   */\n      0x1f\n        /* \"#utility.yul\":3247:3249   */\n      dup4\n        /* \"#utility.yul\":3243:3256   */\n      add\n        /* \"#utility.yul\":3239:3266   */\n      slt\n        /* \"#utility.yul\":3229:3231   */\n      tag_630\n      jumpi\n        /* \"#utility.yul\":3285:3291   */\n      dup4\n        /* \"#utility.yul\":3277:3283   */\n      dup5\n        /* \"#utility.yul\":3270:3292   */\n      revert\n        /* \"#utility.yul\":3229:3231   */\n    tag_630:\n        /* \"#utility.yul\":3326:3328   */\n      dup2\n        /* \"#utility.yul\":3313:3329   */\n      calldataload\n        /* \"#utility.yul\":3348:3350   */\n      dup2\n        /* \"#utility.yul\":3344:3346   */\n      dup2\n        /* \"#utility.yul\":3341:3351   */\n      gt\n        /* \"#utility.yul\":3338:3340   */\n      iszero\n      tag_632\n      jumpi\n        /* \"#utility.yul\":3354:3372   */\n      tag_632\n      tag_592\n      jump\t// in\n    tag_632:\n        /* \"#utility.yul\":3401:3403   */\n      dup4\n        /* \"#utility.yul\":3397:3399   */\n      dup2\n        /* \"#utility.yul\":3393:3404   */\n      mul\n        /* \"#utility.yul\":3383:3404   */\n      swap2\n      pop\n        /* \"#utility.yul\":3424:3451   */\n      tag_633\n        /* \"#utility.yul\":3447:3449   */\n      dup5\n        /* \"#utility.yul\":3443:3445   */\n      dup4\n        /* \"#utility.yul\":3439:3450   */\n      add\n        /* \"#utility.yul\":3424:3451   */\n      tag_594\n      jump\t// in\n    tag_633:\n        /* \"#utility.yul\":3485:3500   */\n      dup2\n      dup2\n      mstore\n        /* \"#utility.yul\":3516:3528   */\n      dup5\n      dup2\n      add\n      swap1\n        /* \"#utility.yul\":3548:3559   */\n      dup5\n      dup7\n      add\n        /* \"#utility.yul\":3578:3589   */\n      dup5\n      dup7\n      add\n        /* \"#utility.yul\":3574:3594   */\n      dup8\n      add\n        /* \"#utility.yul\":3571:3604   */\n      dup11\n      lt\n        /* \"#utility.yul\":3568:3570   */\n      iszero\n      tag_634\n      jumpi\n        /* \"#utility.yul\":3622:3628   */\n      dup8\n        /* \"#utility.yul\":3614:3620   */\n      dup9\n        /* \"#utility.yul\":3607:3629   */\n      revert\n        /* \"#utility.yul\":3568:3570   */\n    tag_634:\n        /* \"#utility.yul\":3649:3655   */\n      dup8\n        /* \"#utility.yul\":3640:3655   */\n      swap6\n      pop\n        /* \"#utility.yul\":3664:3835   */\n    tag_635:\n        /* \"#utility.yul\":3678:3680   */\n      dup4\n        /* \"#utility.yul\":3675:3676   */\n      dup7\n        /* \"#utility.yul\":3672:3681   */\n      lt\n        /* \"#utility.yul\":3664:3835   */\n      iszero\n      tag_637\n      jumpi\n        /* \"#utility.yul\":3735:3760   */\n      tag_638\n        /* \"#utility.yul\":3756:3759   */\n      dup2\n        /* \"#utility.yul\":3735:3760   */\n      tag_596\n      jump\t// in\n    tag_638:\n        /* \"#utility.yul\":3723:3761   */\n      dup4\n      mstore\n        /* \"#utility.yul\":3696:3697   */\n      0x01\n        /* \"#utility.yul\":3689:3698   */\n      swap6\n      swap1\n      swap6\n      add\n      swap5\n        /* \"#utility.yul\":3781:3793   */\n      swap2\n      dup7\n      add\n      swap2\n        /* \"#utility.yul\":3813:3825   */\n      dup7\n      add\n        /* \"#utility.yul\":3664:3835   */\n      jump(tag_635)\n    tag_637:\n      pop\n        /* \"#utility.yul\":3854:3859   */\n      swap9\n        /* \"#utility.yul\":2950:3865   */\n      swap8\n      pop\n      pop\n      pop\n      pop\n      pop\n      pop\n      pop\n      pop\n      jump\t// out\n        /* \"#utility.yul\":3870:4062   */\n    tag_83:\n      0x00\n        /* \"#utility.yul\":3979:3981   */\n      0x20\n        /* \"#utility.yul\":3967:3976   */\n      dup3\n        /* \"#utility.yul\":3958:3965   */\n      dup5\n        /* \"#utility.yul\":3954:3977   */\n      sub\n        /* \"#utility.yul\":3950:3982   */\n      slt\n        /* \"#utility.yul\":3947:3949   */\n      iszero\n      tag_640\n      jumpi\n        /* \"#utility.yul\":4000:4006   */\n      dup1\n        /* \"#utility.yul\":3992:3998   */\n      dup2\n        /* \"#utility.yul\":3985:4007   */\n      revert\n        /* \"#utility.yul\":3947:3949   */\n    tag_640:\n        /* \"#utility.yul\":4028:4056   */\n      tag_406\n        /* \"#utility.yul\":4046:4055   */\n      dup3\n        /* \"#utility.yul\":4028:4056   */\n      tag_599\n      jump\t// in\n        /* \"#utility.yul\":4067:4324   */\n    tag_50:\n      0x00\n        /* \"#utility.yul\":4178:4180   */\n      0x20\n        /* \"#utility.yul\":4166:4175   */\n      dup3\n        /* \"#utility.yul\":4157:4164   */\n      dup5\n        /* \"#utility.yul\":4153:4176   */\n      sub\n        /* \"#utility.yul\":4149:4181   */\n      slt\n        /* \"#utility.yul\":4146:4148   */\n      iszero\n      tag_643\n      jumpi\n        /* \"#utility.yul\":4199:4205   */\n      dup1\n        /* \"#utility.yul\":4191:4197   */\n      dup2\n        /* \"#utility.yul\":4184:4206   */\n      revert\n        /* \"#utility.yul\":4146:4148   */\n    tag_643:\n        /* \"#utility.yul\":4243:4252   */\n      dup2\n        /* \"#utility.yul\":4230:4253   */\n      calldataload\n        /* \"#utility.yul\":4262:4294   */\n      tag_406\n        /* \"#utility.yul\":4288:4293   */\n      dup2\n        /* \"#utility.yul\":4262:4294   */\n      tag_645\n      jump\t// in\n        /* \"#utility.yul\":4329:4590   */\n    tag_555:\n      0x00\n        /* \"#utility.yul\":4451:4453   */\n      0x20\n        /* \"#utility.yul\":4439:4448   */\n      dup3\n        /* \"#utility.yul\":4430:4437   */\n      dup5\n        /* \"#utility.yul\":4426:4449   */\n      sub\n        /* \"#utility.yul\":4422:4454   */\n      slt\n        /* \"#utility.yul\":4419:4421   */\n      iszero\n      tag_647\n      jumpi\n        /* \"#utility.yul\":4472:4478   */\n      dup1\n        /* \"#utility.yul\":4464:4470   */\n      dup2\n        /* \"#utility.yul\":4457:4479   */\n      revert\n        /* \"#utility.yul\":4419:4421   */\n    tag_647:\n        /* \"#utility.yul\":4509:4518   */\n      dup2\n        /* \"#utility.yul\":4503:4519   */\n      mload\n        /* \"#utility.yul\":4528:4560   */\n      tag_406\n        /* \"#utility.yul\":4554:4559   */\n      dup2\n        /* \"#utility.yul\":4528:4560   */\n      tag_645\n      jump\t// in\n        /* \"#utility.yul\":4595:5077   */\n    tag_163:\n      0x00\n        /* \"#utility.yul\":4717:4719   */\n      0x20\n        /* \"#utility.yul\":4705:4714   */\n      dup3\n        /* \"#utility.yul\":4696:4703   */\n      dup5\n        /* \"#utility.yul\":4692:4715   */\n      sub\n        /* \"#utility.yul\":4688:4720   */\n      slt\n        /* \"#utility.yul\":4685:4687   */\n      iszero\n      tag_650\n      jumpi\n        /* \"#utility.yul\":4738:4744   */\n      dup1\n        /* \"#utility.yul\":4730:4736   */\n      dup2\n        /* \"#utility.yul\":4723:4745   */\n      revert\n        /* \"#utility.yul\":4685:4687   */\n    tag_650:\n        /* \"#utility.yul\":4783:4792   */\n      dup2\n        /* \"#utility.yul\":4770:4793   */\n      calldataload\n        /* \"#utility.yul\":4816:4834   */\n      0xffffffffffffffff\n        /* \"#utility.yul\":4808:4814   */\n      dup2\n        /* \"#utility.yul\":4805:4835   */\n      gt\n        /* \"#utility.yul\":4802:4804   */\n      iszero\n      tag_651\n      jumpi\n        /* \"#utility.yul\":4853:4859   */\n      dup2\n        /* \"#utility.yul\":4845:4851   */\n      dup3\n        /* \"#utility.yul\":4838:4860   */\n      revert\n        /* \"#utility.yul\":4802:4804   */\n    tag_651:\n        /* \"#utility.yul\":4881:4903   */\n      dup3\n      add\n        /* \"#utility.yul\":4934:4938   */\n      0x1f\n        /* \"#utility.yul\":4926:4939   */\n      dup2\n      add\n        /* \"#utility.yul\":4922:4949   */\n      dup5\n      sgt\n        /* \"#utility.yul\":4912:4914   */\n      tag_652\n      jumpi\n        /* \"#utility.yul\":4968:4974   */\n      dup2\n        /* \"#utility.yul\":4960:4966   */\n      dup3\n        /* \"#utility.yul\":4953:4975   */\n      revert\n        /* \"#utility.yul\":4912:4914   */\n    tag_652:\n        /* \"#utility.yul\":4996:5071   */\n      tag_489\n        /* \"#utility.yul\":5063:5070   */\n      dup5\n        /* \"#utility.yul\":5058:5060   */\n      dup3\n        /* \"#utility.yul\":5045:5061   */\n      calldataload\n        /* \"#utility.yul\":5040:5042   */\n      0x20\n        /* \"#utility.yul\":5036:5038   */\n      dup5\n        /* \"#utility.yul\":5032:5043   */\n      add\n        /* \"#utility.yul\":4996:5071   */\n      tag_588\n      jump\t// in\n        /* \"#utility.yul\":5082:5272   */\n    tag_66:\n      0x00\n        /* \"#utility.yul\":5194:5196   */\n      0x20\n        /* \"#utility.yul\":5182:5191   */\n      dup3\n        /* \"#utility.yul\":5173:5180   */\n      dup5\n        /* \"#utility.yul\":5169:5192   */\n      sub\n        /* \"#utility.yul\":5165:5197   */\n      slt\n        /* \"#utility.yul\":5162:5164   */\n      iszero\n      tag_655\n      jumpi\n        /* \"#utility.yul\":5215:5221   */\n      dup1\n        /* \"#utility.yul\":5207:5213   */\n      dup2\n        /* \"#utility.yul\":5200:5222   */\n      revert\n        /* \"#utility.yul\":5162:5164   */\n    tag_655:\n      pop\n        /* \"#utility.yul\":5243:5266   */\n      calldataload\n      swap2\n        /* \"#utility.yul\":5152:5272   */\n      swap1\n      pop\n      jump\t// out\n        /* \"#utility.yul\":5277:5536   */\n    tag_656:\n      0x00\n        /* \"#utility.yul\":5358:5363   */\n      dup2\n        /* \"#utility.yul\":5352:5364   */\n      mload\n        /* \"#utility.yul\":5385:5391   */\n      dup1\n        /* \"#utility.yul\":5380:5383   */\n      dup5\n        /* \"#utility.yul\":5373:5392   */\n      mstore\n        /* \"#utility.yul\":5401:5464   */\n      tag_658\n        /* \"#utility.yul\":5457:5463   */\n      dup2\n        /* \"#utility.yul\":5450:5454   */\n      0x20\n        /* \"#utility.yul\":5445:5448   */\n      dup7\n        /* \"#utility.yul\":5441:5455   */\n      add\n        /* \"#utility.yul\":5434:5438   */\n      0x20\n        /* \"#utility.yul\":5427:5432   */\n      dup7\n        /* \"#utility.yul\":5423:5439   */\n      add\n        /* \"#utility.yul\":5401:5464   */\n      tag_659\n      jump\t// in\n    tag_658:\n        /* \"#utility.yul\":5518:5520   */\n      0x1f\n        /* \"#utility.yul\":5497:5512   */\n      add\n      not(0x1f)\n        /* \"#utility.yul\":5493:5522   */\n      and\n        /* \"#utility.yul\":5484:5523   */\n      swap3\n      swap1\n      swap3\n      add\n        /* \"#utility.yul\":5525:5529   */\n      0x20\n        /* \"#utility.yul\":5480:5530   */\n      add\n      swap3\n        /* \"#utility.yul\":5328:5536   */\n      swap2\n      pop\n      pop\n      jump\t// out\n        /* \"#utility.yul\":5541:6011   */\n    tag_410:\n      0x00\n        /* \"#utility.yul\":5758:5764   */\n      dup4\n        /* \"#utility.yul\":5752:5765   */\n      mload\n        /* \"#utility.yul\":5774:5827   */\n      tag_661\n        /* \"#utility.yul\":5820:5826   */\n      dup2\n        /* \"#utility.yul\":5815:5818   */\n      dup5\n        /* \"#utility.yul\":5808:5812   */\n      0x20\n        /* \"#utility.yul\":5800:5806   */\n      dup9\n        /* \"#utility.yul\":5796:5813   */\n      add\n        /* \"#utility.yul\":5774:5827   */\n      tag_659\n      jump\t// in\n    tag_661:\n        /* \"#utility.yul\":5890:5903   */\n      dup4\n      mload\n        /* \"#utility.yul\":5849:5865   */\n      swap1\n      dup4\n      add\n      swap1\n        /* \"#utility.yul\":5912:5969   */\n      tag_662\n        /* \"#utility.yul\":5890:5903   */\n      dup2\n        /* \"#utility.yul\":5849:5865   */\n      dup4\n        /* \"#utility.yul\":5946:5950   */\n      0x20\n        /* \"#utility.yul\":5934:5951   */\n      dup9\n      add\n        /* \"#utility.yul\":5912:5969   */\n      tag_659\n      jump\t// in\n    tag_662:\n        /* \"#utility.yul\":5985:6005   */\n      add\n      swap5\n        /* \"#utility.yul\":5728:6011   */\n      swap4\n      pop\n      pop\n      pop\n      pop\n      jump\t// out\n        /* \"#utility.yul\":6016:6219   */\n    tag_69:\n      sub(shl(0xa0, 0x01), 0x01)\n        /* \"#utility.yul\":6180:6212   */\n      swap2\n      swap1\n      swap2\n      and\n        /* \"#utility.yul\":6162:6213   */\n      dup2\n      mstore\n        /* \"#utility.yul\":6150:6152   */\n      0x20\n        /* \"#utility.yul\":6135:6153   */\n      add\n      swap1\n        /* \"#utility.yul\":6117:6219   */\n      jump\t// out\n        /* \"#utility.yul\":6224:6714   */\n    tag_551:\n      sub(shl(0xa0, 0x01), 0x01)\n        /* \"#utility.yul\":6493:6508   */\n      dup6\n      dup2\n      and\n        /* \"#utility.yul\":6475:6509   */\n      dup3\n      mstore\n        /* \"#utility.yul\":6545:6560   */\n      dup5\n      and\n        /* \"#utility.yul\":6540:6542   */\n      0x20\n        /* \"#utility.yul\":6525:6543   */\n      dup3\n      add\n        /* \"#utility.yul\":6518:6561   */\n      mstore\n        /* \"#utility.yul\":6592:6594   */\n      0x40\n        /* \"#utility.yul\":6577:6595   */\n      dup2\n      add\n        /* \"#utility.yul\":6570:6604   */\n      dup4\n      swap1\n      mstore\n        /* \"#utility.yul\":6640:6643   */\n      0x80\n        /* \"#utility.yul\":6635:6637   */\n      0x60\n        /* \"#utility.yul\":6620:6638   */\n      dup3\n      add\n        /* \"#utility.yul\":6613:6644   */\n      dup2\n      swap1\n      mstore\n        /* \"#utility.yul\":6224:6714   */\n      0x00\n      swap1\n        /* \"#utility.yul\":6661:6708   */\n      tag_665\n      swap1\n        /* \"#utility.yul\":6688:6707   */\n      dup4\n      add\n        /* \"#utility.yul\":6680:6686   */\n      dup5\n        /* \"#utility.yul\":6661:6708   */\n      tag_656\n      jump\t// in\n    tag_665:\n        /* \"#utility.yul\":6653:6708   */\n      swap7\n        /* \"#utility.yul\":6427:6714   */\n      swap6\n      pop\n      pop\n      pop\n      pop\n      pop\n      pop\n      jump\t// out\n        /* \"#utility.yul\":6719:6906   */\n    tag_53:\n        /* \"#utility.yul\":6884:6898   */\n      swap1\n      iszero\n        /* \"#utility.yul\":6877:6899   */\n      iszero\n        /* \"#utility.yul\":6859:6900   */\n      dup2\n      mstore\n        /* \"#utility.yul\":6847:6849   */\n      0x20\n        /* \"#utility.yul\":6832:6850   */\n      add\n      swap1\n        /* \"#utility.yul\":6814:6906   */\n      jump\t// out\n        /* \"#utility.yul\":6911:7132   */\n    tag_62:\n      0x00\n        /* \"#utility.yul\":7060:7062   */\n      0x20\n        /* \"#utility.yul\":7049:7058   */\n      dup3\n        /* \"#utility.yul\":7042:7063   */\n      mstore\n        /* \"#utility.yul\":7080:7126   */\n      tag_406\n        /* \"#utility.yul\":7122:7124   */\n      0x20\n        /* \"#utility.yul\":7111:7120   */\n      dup4\n        /* \"#utility.yul\":7107:7125   */\n      add\n        /* \"#utility.yul\":7099:7105   */\n      dup5\n        /* \"#utility.yul\":7080:7126   */\n      tag_656\n      jump\t// in\n        /* \"#utility.yul\":7137:7551   */\n    tag_514:\n        /* \"#utility.yul\":7339:7341   */\n      0x20\n        /* \"#utility.yul\":7321:7342   */\n      dup1\n      dup3\n      mstore\n        /* \"#utility.yul\":7378:7380   */\n      0x32\n        /* \"#utility.yul\":7358:7376   */\n      swap1\n      dup3\n      add\n        /* \"#utility.yul\":7351:7381   */\n      mstore\n        /* \"#utility.yul\":7417:7451   */\n      0x4552433732313a207472616e7366657220746f206e6f6e204552433732315265\n        /* \"#utility.yul\":7412:7414   */\n      0x40\n        /* \"#utility.yul\":7397:7415   */\n      dup3\n      add\n        /* \"#utility.yul\":7390:7452   */\n      mstore\n      shl(0x71, 0x31b2b4bb32b91034b6b83632b6b2b73a32b9)\n        /* \"#utility.yul\":7483:7485   */\n      0x60\n        /* \"#utility.yul\":7468:7486   */\n      dup3\n      add\n        /* \"#utility.yul\":7461:7509   */\n      mstore\n        /* \"#utility.yul\":7541:7544   */\n      0x80\n        /* \"#utility.yul\":7526:7545   */\n      add\n      swap1\n        /* \"#utility.yul\":7311:7551   */\n      jump\t// out\n        /* \"#utility.yul\":7556:7958   */\n    tag_473:\n        /* \"#utility.yul\":7758:7760   */\n      0x20\n        /* \"#utility.yul\":7740:7761   */\n      dup1\n      dup3\n      mstore\n        /* \"#utility.yul\":7797:7799   */\n      0x26\n        /* \"#utility.yul\":7777:7795   */\n      swap1\n      dup3\n      add\n        /* \"#utility.yul\":7770:7800   */\n      mstore\n        /* \"#utility.yul\":7836:7870   */\n      0x4f776e61626c653a206e6577206f776e657220697320746865207a65726f2061\n        /* \"#utility.yul\":7831:7833   */\n      0x40\n        /* \"#utility.yul\":7816:7834   */\n      dup3\n      add\n        /* \"#utility.yul\":7809:7871   */\n      mstore\n      shl(0xd0, 0x646472657373)\n        /* \"#utility.yul\":7902:7904   */\n      0x60\n        /* \"#utility.yul\":7887:7905   */\n      dup3\n      add\n        /* \"#utility.yul\":7880:7916   */\n      mstore\n        /* \"#utility.yul\":7948:7951   */\n      0x80\n        /* \"#utility.yul\":7933:7952   */\n      add\n      swap1\n        /* \"#utility.yul\":7730:7958   */\n      jump\t// out\n        /* \"#utility.yul\":7963:8315   */\n    tag_573:\n        /* \"#utility.yul\":8165:8167   */\n      0x20\n        /* \"#utility.yul\":8147:8168   */\n      dup1\n      dup3\n      mstore\n        /* \"#utility.yul\":8204:8206   */\n      0x1c\n        /* \"#utility.yul\":8184:8202   */\n      swap1\n      dup3\n      add\n        /* \"#utility.yul\":8177:8207   */\n      mstore\n        /* \"#utility.yul\":8243:8273   */\n      0x4552433732313a20746f6b656e20616c7265616479206d696e74656400000000\n        /* \"#utility.yul\":8238:8240   */\n      0x40\n        /* \"#utility.yul\":8223:8241   */\n      dup3\n      add\n        /* \"#utility.yul\":8216:8274   */\n      mstore\n        /* \"#utility.yul\":8306:8308   */\n      0x60\n        /* \"#utility.yul\":8291:8309   */\n      add\n      swap1\n        /* \"#utility.yul\":8137:8315   */\n      jump\t// out\n        /* \"#utility.yul\":8320:8720   */\n    tag_497:\n        /* \"#utility.yul\":8522:8524   */\n      0x20\n        /* \"#utility.yul\":8504:8525   */\n      dup1\n      dup3\n      mstore\n        /* \"#utility.yul\":8561:8563   */\n      0x24\n        /* \"#utility.yul\":8541:8559   */\n      swap1\n      dup3\n      add\n        /* \"#utility.yul\":8534:8564   */\n      mstore\n        /* \"#utility.yul\":8600:8634   */\n      0x4552433732313a207472616e7366657220746f20746865207a65726f20616464\n        /* \"#utility.yul\":8595:8597   */\n      0x40\n        /* \"#utility.yul\":8580:8598   */\n      dup3\n      add\n        /* \"#utility.yul\":8573:8635   */\n      mstore\n      shl(0xe0, 0x72657373)\n        /* \"#utility.yul\":8666:8668   */\n      0x60\n        /* \"#utility.yul\":8651:8669   */\n      dup3\n      add\n        /* \"#utility.yul\":8644:8678   */\n      mstore\n        /* \"#utility.yul\":8710:8713   */\n      0x80\n        /* \"#utility.yul\":8695:8714   */\n      add\n      swap1\n        /* \"#utility.yul\":8494:8720   */\n      jump\t// out\n        /* \"#utility.yul\":8725:9074   */\n    tag_355:\n        /* \"#utility.yul\":8927:8929   */\n      0x20\n        /* \"#utility.yul\":8909:8930   */\n      dup1\n      dup3\n      mstore\n        /* \"#utility.yul\":8966:8968   */\n      0x19\n        /* \"#utility.yul\":8946:8964   */\n      swap1\n      dup3\n      add\n        /* \"#utility.yul\":8939:8969   */\n      mstore\n        /* \"#utility.yul\":9005:9032   */\n      0x4552433732313a20617070726f766520746f2063616c6c657200000000000000\n        /* \"#utility.yul\":9000:9002   */\n      0x40\n        /* \"#utility.yul\":8985:9003   */\n      dup3\n      add\n        /* \"#utility.yul\":8978:9033   */\n      mstore\n        /* \"#utility.yul\":9065:9067   */\n      0x60\n        /* \"#utility.yul\":9050:9068   */\n      add\n      swap1\n        /* \"#utility.yul\":8899:9074   */\n      jump\t// out\n        /* \"#utility.yul\":9079:9487   */\n    tag_484:\n        /* \"#utility.yul\":9281:9283   */\n      0x20\n        /* \"#utility.yul\":9263:9284   */\n      dup1\n      dup3\n      mstore\n        /* \"#utility.yul\":9320:9322   */\n      0x2c\n        /* \"#utility.yul\":9300:9318   */\n      swap1\n      dup3\n      add\n        /* \"#utility.yul\":9293:9323   */\n      mstore\n        /* \"#utility.yul\":9359:9393   */\n      0x4552433732313a206f70657261746f7220717565727920666f72206e6f6e6578\n        /* \"#utility.yul\":9354:9356   */\n      0x40\n        /* \"#utility.yul\":9339:9357   */\n      dup3\n      add\n        /* \"#utility.yul\":9332:9394   */\n      mstore\n      shl(0xa1, 0x34b9ba32b73a103a37b5b2b7)\n        /* \"#utility.yul\":9425:9427   */\n      0x60\n        /* \"#utility.yul\":9410:9428   */\n      dup3\n      add\n        /* \"#utility.yul\":9403:9445   */\n      mstore\n        /* \"#utility.yul\":9477:9480   */\n      0x80\n        /* \"#utility.yul\":9462:9481   */\n      add\n      swap1\n        /* \"#utility.yul\":9253:9487   */\n      jump\t// out\n        /* \"#utility.yul\":9492:9838   */\n    tag_384:\n        /* \"#utility.yul\":9694:9696   */\n      0x20\n        /* \"#utility.yul\":9676:9697   */\n      dup1\n      dup3\n      mstore\n        /* \"#utility.yul\":9733:9735   */\n      0x16\n        /* \"#utility.yul\":9713:9731   */\n      swap1\n      dup3\n      add\n        /* \"#utility.yul\":9706:9736   */\n      mstore\n      shl(0x52, 0x1a5b98dbdc9c9958dd08195d1a195c88185b5bdd5b9d)\n        /* \"#utility.yul\":9767:9769   */\n      0x40\n        /* \"#utility.yul\":9752:9770   */\n      dup3\n      add\n        /* \"#utility.yul\":9745:9797   */\n      mstore\n        /* \"#utility.yul\":9829:9831   */\n      0x60\n        /* \"#utility.yul\":9814:9832   */\n      add\n      swap1\n        /* \"#utility.yul\":9666:9838   */\n      jump\t// out\n        /* \"#utility.yul\":9843:10263   */\n    tag_247:\n        /* \"#utility.yul\":10045:10047   */\n      0x20\n        /* \"#utility.yul\":10027:10048   */\n      dup1\n      dup3\n      mstore\n        /* \"#utility.yul\":10084:10086   */\n      0x38\n        /* \"#utility.yul\":10064:10082   */\n      swap1\n      dup3\n      add\n        /* \"#utility.yul\":10057:10087   */\n      mstore\n        /* \"#utility.yul\":10123:10157   */\n      0x4552433732313a20617070726f76652063616c6c6572206973206e6f74206f77\n        /* \"#utility.yul\":10118:10120   */\n      0x40\n        /* \"#utility.yul\":10103:10121   */\n      dup3\n      add\n        /* \"#utility.yul\":10096:10158   */\n      mstore\n        /* \"#utility.yul\":10194:10220   */\n      0x6e6572206e6f7220617070726f76656420666f7220616c6c0000000000000000\n        /* \"#utility.yul\":10189:10191   */\n      0x60\n        /* \"#utility.yul\":10174:10192   */\n      dup3\n      add\n        /* \"#utility.yul\":10167:10221   */\n      mstore\n        /* \"#utility.yul\":10253:10256   */\n      0x80\n        /* \"#utility.yul\":10238:10257   */\n      add\n      swap1\n        /* \"#utility.yul\":10017:10263   */\n      jump\t// out\n        /* \"#utility.yul\":10268:10674   */\n    tag_295:\n        /* \"#utility.yul\":10470:10472   */\n      0x20\n        /* \"#utility.yul\":10452:10473   */\n      dup1\n      dup3\n      mstore\n        /* \"#utility.yul\":10509:10511   */\n      0x2a\n        /* \"#utility.yul\":10489:10507   */\n      swap1\n      dup3\n      add\n        /* \"#utility.yul\":10482:10512   */\n      mstore\n        /* \"#utility.yul\":10548:10582   */\n      0x4552433732313a2062616c616e636520717565727920666f7220746865207a65\n        /* \"#utility.yul\":10543:10545   */\n      0x40\n        /* \"#utility.yul\":10528:10546   */\n      dup3\n      add\n        /* \"#utility.yul\":10521:10583   */\n      mstore\n      shl(0xb0, 0x726f2061646472657373)\n        /* \"#utility.yul\":10614:10616   */\n      0x60\n        /* \"#utility.yul\":10599:10617   */\n      dup3\n      add\n        /* \"#utility.yul\":10592:10632   */\n      mstore\n        /* \"#utility.yul\":10664:10667   */\n      0x80\n        /* \"#utility.yul\":10649:10668   */\n      add\n      swap1\n        /* \"#utility.yul\":10442:10674   */\n      jump\t// out\n        /* \"#utility.yul\":10679:11084   */\n    tag_280:\n        /* \"#utility.yul\":10881:10883   */\n      0x20\n        /* \"#utility.yul\":10863:10884   */\n      dup1\n      dup3\n      mstore\n        /* \"#utility.yul\":10920:10922   */\n      0x29\n        /* \"#utility.yul\":10900:10918   */\n      swap1\n      dup3\n      add\n        /* \"#utility.yul\":10893:10923   */\n      mstore\n        /* \"#utility.yul\":10959:10993   */\n      0x4552433732313a206f776e657220717565727920666f72206e6f6e6578697374\n        /* \"#utility.yul\":10954:10956   */\n      0x40\n        /* \"#utility.yul\":10939:10957   */\n      dup3\n      add\n        /* \"#utility.yul\":10932:10994   */\n      mstore\n      shl(0xb9, 0x32b73a103a37b5b2b7)\n        /* \"#utility.yul\":11025:11027   */\n      0x60\n        /* \"#utility.yul\":11010:11028   */\n      dup3\n      add\n        /* \"#utility.yul\":11003:11042   */\n      mstore\n        /* \"#utility.yul\":11074:11077   */\n      0x80\n        /* \"#utility.yul\":11059:11078   */\n      add\n      swap1\n        /* \"#utility.yul\":10853:11084   */\n      jump\t// out\n        /* \"#utility.yul\":11089:11495   */\n    tag_432:\n        /* \"#utility.yul\":11291:11293   */\n      0x20\n        /* \"#utility.yul\":11273:11294   */\n      dup1\n      dup3\n      mstore\n        /* \"#utility.yul\":11330:11332   */\n      0x2a\n        /* \"#utility.yul\":11310:11328   */\n      swap1\n      dup3\n      add\n        /* \"#utility.yul\":11303:11333   */\n      mstore\n        /* \"#utility.yul\":11369:11403   */\n      0x313020746f6b656e73207065722077616c6c657420616c6c6f77656420696e20\n        /* \"#utility.yul\":11364:11366   */\n      0x40\n        /* \"#utility.yul\":11349:11367   */\n      dup3\n      add\n        /* \"#utility.yul\":11342:11404   */\n      mstore\n      shl(0xb0, 0x7075626c696373616c65)\n        /* \"#utility.yul\":11435:11437   */\n      0x60\n        /* \"#utility.yul\":11420:11438   */\n      dup3\n      add\n        /* \"#utility.yul\":11413:11453   */\n      mstore\n        /* \"#utility.yul\":11485:11488   */\n      0x80\n        /* \"#utility.yul\":11470:11489   */\n      add\n      swap1\n        /* \"#utility.yul\":11263:11495   */\n      jump\t// out\n        /* \"#utility.yul\":11500:11846   */\n    tag_381:\n        /* \"#utility.yul\":11702:11704   */\n      0x20\n        /* \"#utility.yul\":11684:11705   */\n      dup1\n      dup3\n      mstore\n        /* \"#utility.yul\":11741:11743   */\n      0x16\n        /* \"#utility.yul\":11721:11739   */\n      swap1\n      dup3\n      add\n        /* \"#utility.yul\":11714:11744   */\n      mstore\n      shl(0x52, 0x139bdd08195b9bdd59da081d1bdad95b9cc81b19599d)\n        /* \"#utility.yul\":11775:11777   */\n      0x40\n        /* \"#utility.yul\":11760:11778   */\n      dup3\n      add\n        /* \"#utility.yul\":11753:11805   */\n      mstore\n        /* \"#utility.yul\":11837:11839   */\n      0x60\n        /* \"#utility.yul\":11822:11840   */\n      add\n      swap1\n        /* \"#utility.yul\":11674:11846   */\n      jump\t// out\n        /* \"#utility.yul\":11851:12207   */\n    tag_569:\n        /* \"#utility.yul\":12053:12055   */\n      0x20\n        /* \"#utility.yul\":12035:12056   */\n      dup1\n      dup3\n      mstore\n        /* \"#utility.yul\":12072:12090   */\n      dup2\n      dup2\n      add\n        /* \"#utility.yul\":12065:12095   */\n      mstore\n        /* \"#utility.yul\":12131:12165   */\n      0x4552433732313a206d696e7420746f20746865207a65726f2061646472657373\n        /* \"#utility.yul\":12126:12128   */\n      0x40\n        /* \"#utility.yul\":12111:12129   */\n      dup3\n      add\n        /* \"#utility.yul\":12104:12166   */\n      mstore\n        /* \"#utility.yul\":12198:12200   */\n      0x60\n        /* \"#utility.yul\":12183:12201   */\n      add\n      swap1\n        /* \"#utility.yul\":12025:12207   */\n      jump\t// out\n        /* \"#utility.yul\":12212:12620   */\n    tag_234:\n        /* \"#utility.yul\":12414:12416   */\n      0x20\n        /* \"#utility.yul\":12396:12417   */\n      dup1\n      dup3\n      mstore\n        /* \"#utility.yul\":12453:12455   */\n      0x2c\n        /* \"#utility.yul\":12433:12451   */\n      swap1\n      dup3\n      add\n        /* \"#utility.yul\":12426:12456   */\n      mstore\n        /* \"#utility.yul\":12492:12526   */\n      0x4552433732313a20617070726f76656420717565727920666f72206e6f6e6578\n        /* \"#utility.yul\":12487:12489   */\n      0x40\n        /* \"#utility.yul\":12472:12490   */\n      dup3\n      add\n        /* \"#utility.yul\":12465:12527   */\n      mstore\n      shl(0xa1, 0x34b9ba32b73a103a37b5b2b7)\n        /* \"#utility.yul\":12558:12560   */\n      0x60\n        /* \"#utility.yul\":12543:12561   */\n      dup3\n      add\n        /* \"#utility.yul\":12536:12578   */\n      mstore\n        /* \"#utility.yul\":12610:12613   */\n      0x80\n        /* \"#utility.yul\":12595:12614   */\n      add\n      swap1\n        /* \"#utility.yul\":12386:12620   */\n      jump\t// out\n        /* \"#utility.yul\":12625:12981   */\n    tag_255:\n        /* \"#utility.yul\":12827:12829   */\n      0x20\n        /* \"#utility.yul\":12809:12830   */\n      dup1\n      dup3\n      mstore\n        /* \"#utility.yul\":12846:12864   */\n      dup2\n      dup2\n      add\n        /* \"#utility.yul\":12839:12869   */\n      mstore\n        /* \"#utility.yul\":12905:12939   */\n      0x4f776e61626c653a2063616c6c6572206973206e6f7420746865206f776e6572\n        /* \"#utility.yul\":12900:12902   */\n      0x40\n        /* \"#utility.yul\":12885:12903   */\n      dup3\n      add\n        /* \"#utility.yul\":12878:12940   */\n      mstore\n        /* \"#utility.yul\":12972:12974   */\n      0x60\n        /* \"#utility.yul\":12957:12975   */\n      add\n      swap1\n        /* \"#utility.yul\":12799:12981   */\n      jump\t// out\n        /* \"#utility.yul\":12986:13331   */\n    tag_342:\n        /* \"#utility.yul\":13188:13190   */\n      0x20\n        /* \"#utility.yul\":13170:13191   */\n      dup1\n      dup3\n      mstore\n        /* \"#utility.yul\":13227:13229   */\n      0x15\n        /* \"#utility.yul\":13207:13225   */\n      swap1\n      dup3\n      add\n        /* \"#utility.yul\":13200:13230   */\n      mstore\n      shl(0x59, 0x29b0b632903737ba1029ba30b93a32b2102cb2ba17)\n        /* \"#utility.yul\":13261:13263   */\n      0x40\n        /* \"#utility.yul\":13246:13264   */\n      dup3\n      add\n        /* \"#utility.yul\":13239:13290   */\n      mstore\n        /* \"#utility.yul\":13322:13324   */\n      0x60\n        /* \"#utility.yul\":13307:13325   */\n      add\n      swap1\n        /* \"#utility.yul\":13160:13331   */\n      jump\t// out\n        /* \"#utility.yul\":13336:13741   */\n    tag_494:\n        /* \"#utility.yul\":13538:13540   */\n      0x20\n        /* \"#utility.yul\":13520:13541   */\n      dup1\n      dup3\n      mstore\n        /* \"#utility.yul\":13577:13579   */\n      0x29\n        /* \"#utility.yul\":13557:13575   */\n      swap1\n      dup3\n      add\n        /* \"#utility.yul\":13550:13580   */\n      mstore\n        /* \"#utility.yul\":13616:13650   */\n      0x4552433732313a207472616e73666572206f6620746f6b656e20746861742069\n        /* \"#utility.yul\":13611:13613   */\n      0x40\n        /* \"#utility.yul\":13596:13614   */\n      dup3\n      add\n        /* \"#utility.yul\":13589:13651   */\n      mstore\n      shl(0xb9, 0x39903737ba1037bbb7)\n        /* \"#utility.yul\":13682:13684   */\n      0x60\n        /* \"#utility.yul\":13667:13685   */\n      dup3\n      add\n        /* \"#utility.yul\":13660:13699   */\n      mstore\n        /* \"#utility.yul\":13731:13734   */\n      0x80\n        /* \"#utility.yul\":13716:13735   */\n      add\n      swap1\n        /* \"#utility.yul\":13510:13741   */\n      jump\t// out\n        /* \"#utility.yul\":13746:14157   */\n    tag_402:\n        /* \"#utility.yul\":13948:13950   */\n      0x20\n        /* \"#utility.yul\":13930:13951   */\n      dup1\n      dup3\n      mstore\n        /* \"#utility.yul\":13987:13989   */\n      0x2f\n        /* \"#utility.yul\":13967:13985   */\n      swap1\n      dup3\n      add\n        /* \"#utility.yul\":13960:13990   */\n      mstore\n        /* \"#utility.yul\":14026:14060   */\n      0x4552433732314d657461646174613a2055524920717565727920666f72206e6f\n        /* \"#utility.yul\":14021:14023   */\n      0x40\n        /* \"#utility.yul\":14006:14024   */\n      dup3\n      add\n        /* \"#utility.yul\":13999:14061   */\n      mstore\n      shl(0x89, 0x3732bc34b9ba32b73a103a37b5b2b7)\n        /* \"#utility.yul\":14092:14094   */\n      0x60\n        /* \"#utility.yul\":14077:14095   */\n      dup3\n      add\n        /* \"#utility.yul\":14070:14115   */\n      mstore\n        /* \"#utility.yul\":14147:14150   */\n      0x80\n        /* \"#utility.yul\":14132:14151   */\n      add\n      swap1\n        /* \"#utility.yul\":13920:14157   */\n      jump\t// out\n        /* \"#utility.yul\":14162:14559   */\n    tag_239:\n        /* \"#utility.yul\":14364:14366   */\n      0x20\n        /* \"#utility.yul\":14346:14367   */\n      dup1\n      dup3\n      mstore\n        /* \"#utility.yul\":14403:14405   */\n      0x21\n        /* \"#utility.yul\":14383:14401   */\n      swap1\n      dup3\n      add\n        /* \"#utility.yul\":14376:14406   */\n      mstore\n        /* \"#utility.yul\":14442:14476   */\n      0x4552433732313a20617070726f76616c20746f2063757272656e74206f776e65\n        /* \"#utility.yul\":14437:14439   */\n      0x40\n        /* \"#utility.yul\":14422:14440   */\n      dup3\n      add\n        /* \"#utility.yul\":14415:14477   */\n      mstore\n      shl(0xf9, 0x39)\n        /* \"#utility.yul\":14508:14510   */\n      0x60\n        /* \"#utility.yul\":14493:14511   */\n      dup3\n      add\n        /* \"#utility.yul\":14486:14517   */\n      mstore\n        /* \"#utility.yul\":14549:14552   */\n      0x80\n        /* \"#utility.yul\":14534:14553   */\n      add\n      swap1\n        /* \"#utility.yul\":14336:14559   */\n      jump\t// out\n        /* \"#utility.yul\":14564:14977   */\n    tag_263:\n        /* \"#utility.yul\":14766:14768   */\n      0x20\n        /* \"#utility.yul\":14748:14769   */\n      dup1\n      dup3\n      mstore\n        /* \"#utility.yul\":14805:14807   */\n      0x31\n        /* \"#utility.yul\":14785:14803   */\n      swap1\n      dup3\n      add\n        /* \"#utility.yul\":14778:14808   */\n      mstore\n        /* \"#utility.yul\":14844:14878   */\n      0x4552433732313a207472616e736665722063616c6c6572206973206e6f74206f\n        /* \"#utility.yul\":14839:14841   */\n      0x40\n        /* \"#utility.yul\":14824:14842   */\n      dup3\n      add\n        /* \"#utility.yul\":14817:14879   */\n      mstore\n      shl(0x7a, 0x1ddb995c881b9bdc88185c1c1c9bdd9959)\n        /* \"#utility.yul\":14910:14912   */\n      0x60\n        /* \"#utility.yul\":14895:14913   */\n      dup3\n      add\n        /* \"#utility.yul\":14888:14935   */\n      mstore\n        /* \"#utility.yul\":14967:14970   */\n      0x80\n        /* \"#utility.yul\":14952:14971   */\n      add\n      swap1\n        /* \"#utility.yul\":14738:14977   */\n      jump\t// out\n        /* \"#utility.yul\":14982:15329   */\n    tag_312:\n        /* \"#utility.yul\":15184:15186   */\n      0x20\n        /* \"#utility.yul\":15166:15187   */\n      dup1\n      dup3\n      mstore\n        /* \"#utility.yul\":15223:15225   */\n      0x17\n        /* \"#utility.yul\":15203:15221   */\n      swap1\n      dup3\n      add\n        /* \"#utility.yul\":15196:15226   */\n      mstore\n        /* \"#utility.yul\":15262:15287   */\n      0x6d696e74206174206c65617374206f6e6520746f6b656e000000000000000000\n        /* \"#utility.yul\":15257:15259   */\n      0x40\n        /* \"#utility.yul\":15242:15260   */\n      dup3\n      add\n        /* \"#utility.yul\":15235:15288   */\n      mstore\n        /* \"#utility.yul\":15320:15322   */\n      0x60\n        /* \"#utility.yul\":15305:15323   */\n      add\n      swap1\n        /* \"#utility.yul\":15156:15329   */\n      jump\t// out\n        /* \"#utility.yul\":15334:15680   */\n    tag_315:\n        /* \"#utility.yul\":15536:15538   */\n      0x20\n        /* \"#utility.yul\":15518:15539   */\n      dup1\n      dup3\n      mstore\n        /* \"#utility.yul\":15575:15577   */\n      0x16\n        /* \"#utility.yul\":15555:15573   */\n      swap1\n      dup3\n      add\n        /* \"#utility.yul\":15548:15578   */\n      mstore\n      shl(0x54, 0x06d617820706572207472616e73616374696f6e20323)\n        /* \"#utility.yul\":15609:15611   */\n      0x40\n        /* \"#utility.yul\":15594:15612   */\n      dup3\n      add\n        /* \"#utility.yul\":15587:15639   */\n      mstore\n        /* \"#utility.yul\":15671:15673   */\n      0x60\n        /* \"#utility.yul\":15656:15674   */\n      add\n      swap1\n        /* \"#utility.yul\":15508:15680   */\n      jump\t// out\n        /* \"#utility.yul\":15685:16037   */\n    tag_373:\n        /* \"#utility.yul\":15887:15889   */\n      0x20\n        /* \"#utility.yul\":15869:15890   */\n      dup1\n      dup3\n      mstore\n        /* \"#utility.yul\":15926:15928   */\n      0x1c\n        /* \"#utility.yul\":15906:15924   */\n      swap1\n      dup3\n      add\n        /* \"#utility.yul\":15899:15929   */\n      mstore\n        /* \"#utility.yul\":15965:15995   */\n      0x596f7520617265206e6f7420696e2050726573616c65204c6973742e00000000\n        /* \"#utility.yul\":15960:15962   */\n      0x40\n        /* \"#utility.yul\":15945:15963   */\n      dup3\n      add\n        /* \"#utility.yul\":15938:15996   */\n      mstore\n        /* \"#utility.yul\":16028:16030   */\n      0x60\n        /* \"#utility.yul\":16013:16031   */\n      add\n      swap1\n        /* \"#utility.yul\":15859:16037   */\n      jump\t// out\n        /* \"#utility.yul\":16042:16388   */\n    tag_320:\n        /* \"#utility.yul\":16244:16246   */\n      0x20\n        /* \"#utility.yul\":16226:16247   */\n      dup1\n      dup3\n      mstore\n        /* \"#utility.yul\":16283:16285   */\n      0x16\n        /* \"#utility.yul\":16263:16281   */\n      swap1\n      dup3\n      add\n        /* \"#utility.yul\":16256:16286   */\n      mstore\n      shl(0x52, 0x1b9bdd08195b9bdd59da081d1bdad95b9cc81b19599d)\n        /* \"#utility.yul\":16317:16319   */\n      0x40\n        /* \"#utility.yul\":16302:16320   */\n      dup3\n      add\n        /* \"#utility.yul\":16295:16347   */\n      mstore\n        /* \"#utility.yul\":16379:16381   */\n      0x60\n        /* \"#utility.yul\":16364:16382   */\n      add\n      swap1\n        /* \"#utility.yul\":16216:16388   */\n      jump\t// out\n        /* \"#utility.yul\":16393:16795   */\n    tag_389:\n        /* \"#utility.yul\":16595:16597   */\n      0x20\n        /* \"#utility.yul\":16577:16598   */\n      dup1\n      dup3\n      mstore\n        /* \"#utility.yul\":16634:16636   */\n      0x26\n        /* \"#utility.yul\":16614:16632   */\n      swap1\n      dup3\n      add\n        /* \"#utility.yul\":16607:16637   */\n      mstore\n        /* \"#utility.yul\":16673:16707   */\n      0x3520746f6b656e73207065722077616c6c657420616c6c6f77656420696e2070\n        /* \"#utility.yul\":16668:16670   */\n      0x40\n        /* \"#utility.yul\":16653:16671   */\n      dup3\n      add\n        /* \"#utility.yul\":16646:16708   */\n      mstore\n      shl(0xd0, 0x726573616c65)\n        /* \"#utility.yul\":16739:16741   */\n      0x60\n        /* \"#utility.yul\":16724:16742   */\n      dup3\n      add\n        /* \"#utility.yul\":16717:16753   */\n      mstore\n        /* \"#utility.yul\":16785:16788   */\n      0x80\n        /* \"#utility.yul\":16770:16789   */\n      add\n      swap1\n        /* \"#utility.yul\":16567:16795   */\n      jump\t// out\n        /* \"#utility.yul\":16800:17139   */\n    tag_369:\n        /* \"#utility.yul\":17002:17004   */\n      0x20\n        /* \"#utility.yul\":16984:17005   */\n      dup1\n      dup3\n      mstore\n        /* \"#utility.yul\":17041:17043   */\n      0x0f\n        /* \"#utility.yul\":17021:17039   */\n      swap1\n      dup3\n      add\n        /* \"#utility.yul\":17014:17044   */\n      mstore\n      shl(0x89, 0x29b0b6329034b9902830bab9b2b217)\n        /* \"#utility.yul\":17075:17077   */\n      0x40\n        /* \"#utility.yul\":17060:17078   */\n      dup3\n      add\n        /* \"#utility.yul\":17053:17098   */\n      mstore\n        /* \"#utility.yul\":17130:17132   */\n      0x60\n        /* \"#utility.yul\":17115:17133   */\n      add\n      swap1\n        /* \"#utility.yul\":16974:17139   */\n      jump\t// out\n        /* \"#utility.yul\":17144:17321   */\n    tag_79:\n        /* \"#utility.yul\":17290:17315   */\n      swap1\n      dup2\n      mstore\n        /* \"#utility.yul\":17278:17280   */\n      0x20\n        /* \"#utility.yul\":17263:17281   */\n      add\n      swap1\n        /* \"#utility.yul\":17245:17321   */\n      jump\t// out\n        /* \"#utility.yul\":17326:17577   */\n    tag_594:\n        /* \"#utility.yul\":17396:17398   */\n      0x40\n        /* \"#utility.yul\":17390:17399   */\n      mload\n        /* \"#utility.yul\":17426:17443   */\n      dup2\n      dup2\n      add\n        /* \"#utility.yul\":17473:17491   */\n      0xffffffffffffffff\n        /* \"#utility.yul\":17458:17492   */\n      dup2\n      gt\n        /* \"#utility.yul\":17494:17516   */\n      dup3\n      dup3\n      lt\n        /* \"#utility.yul\":17455:17517   */\n      or\n        /* \"#utility.yul\":17452:17454   */\n      iszero\n      tag_698\n      jumpi\n        /* \"#utility.yul\":17520:17538   */\n      tag_698\n      tag_592\n      jump\t// in\n    tag_698:\n        /* \"#utility.yul\":17556:17558   */\n      0x40\n        /* \"#utility.yul\":17549:17571   */\n      mstore\n        /* \"#utility.yul\":17370:17577   */\n      swap2\n      swap1\n      pop\n      jump\t// out\n        /* \"#utility.yul\":17582:17710   */\n    tag_317:\n      0x00\n        /* \"#utility.yul\":17653:17654   */\n      dup3\n        /* \"#utility.yul\":17649:17655   */\n      not\n        /* \"#utility.yul\":17646:17647   */\n      dup3\n        /* \"#utility.yul\":17643:17656   */\n      gt\n        /* \"#utility.yul\":17640:17642   */\n      iszero\n      tag_701\n      jumpi\n        /* \"#utility.yul\":17659:17677   */\n      tag_701\n      tag_702\n      jump\t// in\n    tag_701:\n      pop\n        /* \"#utility.yul\":17695:17704   */\n      add\n      swap1\n        /* \"#utility.yul\":17630:17710   */\n      jump\t// out\n        /* \"#utility.yul\":17715:17835   */\n    tag_527:\n      0x00\n        /* \"#utility.yul\":17781:17782   */\n      dup3\n        /* \"#utility.yul\":17771:17773   */\n      tag_705\n      jumpi\n        /* \"#utility.yul\":17786:17804   */\n      tag_705\n      tag_706\n      jump\t// in\n    tag_705:\n      pop\n        /* \"#utility.yul\":17820:17829   */\n      div\n      swap1\n        /* \"#utility.yul\":17761:17835   */\n      jump\t// out\n        /* \"#utility.yul\":17840:18008   */\n    tag_425:\n      0x00\n        /* \"#utility.yul\":17946:17947   */\n      dup2\n        /* \"#utility.yul\":17942:17943   */\n      0x00\n        /* \"#utility.yul\":17938:17944   */\n      not\n        /* \"#utility.yul\":17934:17948   */\n      div\n        /* \"#utility.yul\":17931:17932   */\n      dup4\n        /* \"#utility.yul\":17928:17949   */\n      gt\n        /* \"#utility.yul\":17923:17924   */\n      dup3\n        /* \"#utility.yul\":17916:17925   */\n      iszero\n        /* \"#utility.yul\":17909:17926   */\n      iszero\n        /* \"#utility.yul\":17905:17950   */\n      and\n        /* \"#utility.yul\":17902:17904   */\n      iszero\n      tag_709\n      jumpi\n        /* \"#utility.yul\":17953:17971   */\n      tag_709\n      tag_702\n      jump\t// in\n    tag_709:\n      pop\n        /* \"#utility.yul\":17993:18002   */\n      mul\n      swap1\n        /* \"#utility.yul\":17892:18008   */\n      jump\t// out\n        /* \"#utility.yul\":18013:18138   */\n    tag_502:\n      0x00\n        /* \"#utility.yul\":18081:18082   */\n      dup3\n        /* \"#utility.yul\":18078:18079   */\n      dup3\n        /* \"#utility.yul\":18075:18083   */\n      lt\n        /* \"#utility.yul\":18072:18074   */\n      iszero\n      tag_712\n      jumpi\n        /* \"#utility.yul\":18086:18104   */\n      tag_712\n      tag_702\n      jump\t// in\n    tag_712:\n      pop\n        /* \"#utility.yul\":18123:18132   */\n      sub\n      swap1\n        /* \"#utility.yul\":18062:18138   */\n      jump\t// out\n        /* \"#utility.yul\":18143:18401   */\n    tag_659:\n        /* \"#utility.yul\":18215:18216   */\n      0x00\n        /* \"#utility.yul\":18225:18338   */\n    tag_714:\n        /* \"#utility.yul\":18239:18245   */\n      dup4\n        /* \"#utility.yul\":18236:18237   */\n      dup2\n        /* \"#utility.yul\":18233:18246   */\n      lt\n        /* \"#utility.yul\":18225:18338   */\n      iszero\n      tag_716\n      jumpi\n        /* \"#utility.yul\":18315:18326   */\n      dup2\n      dup2\n      add\n        /* \"#utility.yul\":18309:18327   */\n      mload\n        /* \"#utility.yul\":18296:18307   */\n      dup4\n      dup3\n      add\n        /* \"#utility.yul\":18289:18328   */\n      mstore\n        /* \"#utility.yul\":18261:18263   */\n      0x20\n        /* \"#utility.yul\":18254:18264   */\n      add\n        /* \"#utility.yul\":18225:18338   */\n      jump(tag_714)\n    tag_716:\n        /* \"#utility.yul\":18356:18362   */\n      dup4\n        /* \"#utility.yul\":18353:18354   */\n      dup2\n        /* \"#utility.yul\":18350:18363   */\n      gt\n        /* \"#utility.yul\":18347:18349   */\n      iszero\n      tag_364\n      jumpi\n      pop\n      pop\n        /* \"#utility.yul\":18391:18392   */\n      0x00\n        /* \"#utility.yul\":18373:18389   */\n      swap2\n      add\n        /* \"#utility.yul\":18366:18393   */\n      mstore\n        /* \"#utility.yul\":18196:18401   */\n      jump\t// out\n        /* \"#utility.yul\":18406:18786   */\n    tag_224:\n        /* \"#utility.yul\":18491:18492   */\n      0x02\n        /* \"#utility.yul\":18481:18493   */\n      dup2\n      div\n        /* \"#utility.yul\":18538:18539   */\n      0x01\n        /* \"#utility.yul\":18528:18540   */\n      dup3\n      and\n      dup1\n        /* \"#utility.yul\":18549:18551   */\n      tag_719\n      jumpi\n        /* \"#utility.yul\":18603:18607   */\n      0x7f\n        /* \"#utility.yul\":18595:18601   */\n      dup3\n        /* \"#utility.yul\":18591:18608   */\n      and\n        /* \"#utility.yul\":18581:18608   */\n      swap2\n      pop\n        /* \"#utility.yul\":18549:18551   */\n    tag_719:\n        /* \"#utility.yul\":18656:18658   */\n      0x20\n        /* \"#utility.yul\":18648:18654   */\n      dup3\n        /* \"#utility.yul\":18645:18659   */\n      lt\n        /* \"#utility.yul\":18625:18643   */\n      dup2\n        /* \"#utility.yul\":18622:18660   */\n      eq\n        /* \"#utility.yul\":18619:18621   */\n      iszero\n      tag_720\n      jumpi\n        /* \"#utility.yul\":18702:18712   */\n      0x4e487b71\n        /* \"#utility.yul\":18697:18700   */\n      0xe0\n        /* \"#utility.yul\":18693:18713   */\n      shl\n        /* \"#utility.yul\":18690:18691   */\n      0x00\n        /* \"#utility.yul\":18683:18714   */\n      mstore\n        /* \"#utility.yul\":18737:18741   */\n      0x22\n        /* \"#utility.yul\":18734:18735   */\n      0x04\n        /* \"#utility.yul\":18727:18742   */\n      mstore\n        /* \"#utility.yul\":18765:18769   */\n      0x24\n        /* \"#utility.yul\":18762:18763   */\n      0x00\n        /* \"#utility.yul\":18755:18770   */\n      revert\n        /* \"#utility.yul\":18619:18621   */\n    tag_720:\n      pop\n        /* \"#utility.yul\":18461:18786   */\n      swap2\n      swap1\n      pop\n      jump\t// out\n        /* \"#utility.yul\":18791:18926   */\n    tag_330:\n      0x00\n      not(0x00)\n        /* \"#utility.yul\":18851:18868   */\n      dup3\n      eq\n        /* \"#utility.yul\":18848:18850   */\n      iszero\n      tag_723\n      jumpi\n        /* \"#utility.yul\":18871:18889   */\n      tag_723\n      tag_702\n      jump\t// in\n    tag_723:\n      pop\n        /* \"#utility.yul\":18918:18919   */\n      0x01\n        /* \"#utility.yul\":18907:18920   */\n      add\n      swap1\n        /* \"#utility.yul\":18838:18926   */\n      jump\t// out\n        /* \"#utility.yul\":18931:19043   */\n    tag_534:\n      0x00\n        /* \"#utility.yul\":18989:18990   */\n      dup3\n        /* \"#utility.yul\":18979:18981   */\n      tag_726\n      jumpi\n        /* \"#utility.yul\":18994:19012   */\n      tag_726\n      tag_706\n      jump\t// in\n    tag_726:\n      pop\n        /* \"#utility.yul\":19028:19037   */\n      mod\n      swap1\n        /* \"#utility.yul\":18969:19043   */\n      jump\t// out\n        /* \"#utility.yul\":19048:19175   */\n    tag_702:\n        /* \"#utility.yul\":19109:19119   */\n      0x4e487b71\n        /* \"#utility.yul\":19104:19107   */\n      0xe0\n        /* \"#utility.yul\":19100:19120   */\n      shl\n        /* \"#utility.yul\":19097:19098   */\n      0x00\n        /* \"#utility.yul\":19090:19121   */\n      mstore\n        /* \"#utility.yul\":19140:19144   */\n      0x11\n        /* \"#utility.yul\":19137:19138   */\n      0x04\n        /* \"#utility.yul\":19130:19145   */\n      mstore\n        /* \"#utility.yul\":19164:19168   */\n      0x24\n        /* \"#utility.yul\":19161:19162   */\n      0x00\n        /* \"#utility.yul\":19154:19169   */\n      revert\n        /* \"#utility.yul\":19180:19307   */\n    tag_706:\n        /* \"#utility.yul\":19241:19251   */\n      0x4e487b71\n        /* \"#utility.yul\":19236:19239   */\n      0xe0\n        /* \"#utility.yul\":19232:19252   */\n      shl\n        /* \"#utility.yul\":19229:19230   */\n      0x00\n        /* \"#utility.yul\":19222:19253   */\n      mstore\n        /* \"#utility.yul\":19272:19276   */\n      0x12\n        /* \"#utility.yul\":19269:19270   */\n      0x04\n        /* \"#utility.yul\":19262:19277   */\n      mstore\n        /* \"#utility.yul\":19296:19300   */\n      0x24\n        /* \"#utility.yul\":19293:19294   */\n      0x00\n        /* \"#utility.yul\":19286:19301   */\n      revert\n        /* \"#utility.yul\":19312:19439   */\n    tag_592:\n        /* \"#utility.yul\":19373:19383   */\n      0x4e487b71\n        /* \"#utility.yul\":19368:19371   */\n      0xe0\n        /* \"#utility.yul\":19364:19384   */\n      shl\n        /* \"#utility.yul\":19361:19362   */\n      0x00\n        /* \"#utility.yul\":19354:19385   */\n      mstore\n        /* \"#utility.yul\":19404:19408   */\n      0x41\n        /* \"#utility.yul\":19401:19402   */\n      0x04\n        /* \"#utility.yul\":19394:19409   */\n      mstore\n        /* \"#utility.yul\":19428:19432   */\n      0x24\n        /* \"#utility.yul\":19425:19426   */\n      0x00\n        /* \"#utility.yul\":19418:19433   */\n      revert\n        /* \"#utility.yul\":19444:19577   */\n    tag_645:\n      not(sub(shl(0xe0, 0x01), 0x01))\n        /* \"#utility.yul\":19520:19552   */\n      dup2\n      and\n        /* \"#utility.yul\":19510:19553   */\n      dup2\n      eq\n        /* \"#utility.yul\":19500:19502   */\n      tag_274\n      jumpi\n        /* \"#utility.yul\":19567:19568   */\n      0x00\n        /* \"#utility.yul\":19564:19565   */\n      dup1\n        /* \"#utility.yul\":19557:19569   */\n      revert\n\n    auxdata: 0xa26469706673582212209e70ba7d532a5e89e9a1bc9b4b782444a89c3053d038c2cddebe94a4e75b093a64736f6c63430008000033\n}\n",
				"bytecode": {
					"linkReferences": {},
					"object": "608060405267016345785d8a000060078190556008556000600955600a805461ffff191690556014600d556005600e819055600f553480156200004157600080fd5b506040518060400160405280600a815260200169496e76657374616c6f6760b01b8152506040518060400160405280600381526020016249564760e81b8152506200009b62000095620000cf60201b60201c565b620000d3565b8151620000b090600190602085019062000123565b508051620000c690600290602084019062000123565b50505062000206565b3390565b600080546001600160a01b038381166001600160a01b0319831681178455604051919092169283917f8be0079c531659141344cd1fd0a4f28419497f9722a3daafe3b4186f6b6457e09190a35050565b8280546200013190620001c9565b90600052602060002090601f016020900481019282620001555760008555620001a0565b82601f106200017057805160ff1916838001178555620001a0565b82800160010185558215620001a0579182015b82811115620001a057825182559160200191906001019062000183565b50620001ae929150620001b2565b5090565b5b80821115620001ae5760008155600101620001b3565b600281046001821680620001de57607f821691505b602082108114156200020057634e487b7160e01b600052602260045260246000fd5b50919050565b61265180620002166000396000f3fe6080604052600436106102255760003560e01c80637ff9b59611610123578063ba6dd6f0116100ab578063e2a70eaf1161006f578063e2a70eaf146105b4578063e985e9c5146105d4578063ebb31510146105f4578063ef5f198514610614578063f2fde38b1461063457610225565b8063ba6dd6f014610544578063bb2841c514610559578063c87b56dd1461056c578063cd7de4581461058c578063d96a094a146105a157610225565b8063969745e8116100f2578063969745e8146104ba578063996953fc146104cf578063a0bcfc7f146104e4578063a22cb46514610504578063b88d4fde1461052457610225565b80637ff9b596146104665780638da5cb5b1461047b57806395d89b411461049057806395ea5e67146104a557610225565b80633ccfd60b116101b157806363adc5a51161017557806363adc5a5146103dc5780636c0360eb146103fc57806370a0823114610411578063715018a6146104315780637c8255db1461044657610225565b80633ccfd60b1461035d5780634235f70b1461037257806342842e0e146103875780634b980d67146103a75780636352211e146103bc57610225565b8063095ea7b3116101f8578063095ea7b3146102c457806318160ddd146102e65780631cef37e414610308578063230a9b8d1461032857806323b872dd1461033d57610225565b806301ffc9a71461022a578063026896631461026057806306fdde0314610275578063081812fc14610297575b600080fd5b34801561023657600080fd5b5061024a610245366004611cbc565b610654565b6040516102579190611dfe565b60405180910390f35b34801561026c57600080fd5b5061024a61069c565b34801561028157600080fd5b5061028a6106b2565b6040516102579190611e09565b3480156102a357600080fd5b506102b76102b2366004611d3a565b610744565b6040516102579190611dad565b3480156102d057600080fd5b506102e46102df366004611bcb565b610790565b005b3480156102f257600080fd5b506102fb610828565b6040516102579190612498565b34801561031457600080fd5b506102e4610323366004611ca2565b61082e565b34801561033457600080fd5b506102fb610887565b34801561034957600080fd5b506102e4610358366004611aee565b61088d565b34801561036957600080fd5b506102e46108c5565b34801561037e57600080fd5b506102fb610947565b34801561039357600080fd5b506102e46103a2366004611aee565b61094d565b3480156103b357600080fd5b506102fb610968565b3480156103c857600080fd5b506102b76103d7366004611d3a565b61096e565b3480156103e857600080fd5b506102e46103f7366004611d3a565b6109a3565b34801561040857600080fd5b5061028a6109e7565b34801561041d57600080fd5b506102fb61042c366004611aa2565b610a75565b34801561043d57600080fd5b506102e4610ab9565b34801561045257600080fd5b506102e4610461366004611bf4565b610b04565b34801561047257600080fd5b506102fb610c3b565b34801561048757600080fd5b506102b7610c41565b34801561049c57600080fd5b5061028a610c50565b3480156104b157600080fd5b5061024a610c5f565b3480156104c657600080fd5b506102fb610c6d565b3480156104db57600080fd5b506102fb610c73565b3480156104f057600080fd5b506102e46104ff366004611cf4565b610ca3565b34801561051057600080fd5b506102e461051f366004611ba2565b610cf9565b34801561053057600080fd5b506102e461053f366004611b29565b610dc7565b34801561055057600080fd5b5061024a610e06565b6102e4610567366004611d3a565b610e0f565b34801561057857600080fd5b5061028a610587366004611d3a565b610f6b565b34801561059857600080fd5b506102fb610fee565b6102e46105af366004611d3a565b61101e565b3480156105c057600080fd5b506102e46105cf366004611d3a565b61114f565b3480156105e057600080fd5b5061024a6105ef366004611abc565b611193565b34801561060057600080fd5b506102e461060f366004611bf4565b6111c1565b34801561062057600080fd5b506102e461062f366004611ca2565b611276565b34801561064057600080fd5b506102e461064f366004611aa2565b6112c8565b60006001600160e01b031982166380ac58cd60e01b148061068557506001600160e01b03198216635b5e139f60e01b145b80610694575061069482611336565b90505b919050565b336000908152600b602052604090205460ff1690565b6060600180546106c190612559565b80601f01602080910402602001604051908101604052809291908181526020018280546106ed90612559565b801561073a5780601f1061070f5761010080835404028352916020019161073a565b820191906000526020600020905b81548152906001019060200180831161071d57829003601f168201915b5050505050905090565b600061074f8261134f565b6107745760405162461bcd60e51b815260040161076b90612181565b60405180910390fd5b506000908152600560205260409020546001600160a01b031690565b600061079b8261096e565b9050806001600160a01b0316836001600160a01b031614156107cf5760405162461bcd60e51b815260040161076b906122c9565b806001600160a01b03166107e161136c565b6001600160a01b031614806107fd57506107fd816105ef61136c565b6108195760405162461bcd60e51b815260040161076b90611fe2565b6108238383611370565b505050565b60095481565b61083661136c565b6001600160a01b0316610847610c41565b6001600160a01b03161461086d5760405162461bcd60e51b815260040161076b906121cd565b600a80549115156101000261ff0019909216919091179055565b600e5481565b61089e61089861136c565b826113de565b6108ba5760405162461bcd60e51b815260040161076b9061230a565b610823838383611463565b6108cd61136c565b6001600160a01b03166108de610c41565b6001600160a01b0316146109045760405162461bcd60e51b815260040161076b906121cd565b61090c610c41565b6001600160a01b03166108fc479081150290604051600060405180830381858888f19350505050158015610944573d6000803e3d6000fd5b50565b600f5481565b61082383838360405180602001604052806000815250610dc7565b600d5481565b6000818152600360205260408120546001600160a01b0316806106945760405162461bcd60e51b815260040161076b90612089565b6109ab61136c565b6001600160a01b03166109bc610c41565b6001600160a01b0316146109e25760405162461bcd60e51b815260040161076b906121cd565b600855565b600c80546109f490612559565b80601f0160208091040260200160405190810160405280929190818152602001828054610a2090612559565b8015610a6d5780601f10610a4257610100808354040283529160200191610a6d565b820191906000526020600020905b815481529060010190602001808311610a5057829003601f168201915b505050505081565b60006001600160a01b038216610a9d5760405162461bcd60e51b815260040161076b9061203f565b506001600160a01b031660009081526004602052604090205490565b610ac161136c565b6001600160a01b0316610ad2610c41565b6001600160a01b031614610af85760405162461bcd60e51b815260040161076b906121cd565b610b026000611590565b565b610b0c61136c565b6001600160a01b0316610b1d610c41565b6001600160a01b031614610b435760405162461bcd60e51b815260040161076b906121cd565b6000815111610b645760405162461bcd60e51b815260040161076b9061235b565b600d5481511115610b875760405162461bcd60e51b815260040161076b90612392565b6127108151600954610b9991906124cb565b1115610bb75760405162461bcd60e51b815260040161076b906123f9565b60005b8151811015610c1f57610c0d828281518110610be657634e487b7160e01b600052603260045260246000fd5b6020026020010151826009546001610bfe91906124cb565b610c0891906124cb565b6115e0565b80610c1781612594565b915050610bba565b50805160096000828254610c3391906124cb565b909155505050565b60075481565b6000546001600160a01b031690565b6060600280546106c190612559565b600a54610100900460ff1681565b60085481565b600a5460009060ff161515600114610c9d5760405162461bcd60e51b815260040161076b90612202565b50600190565b610cab61136c565b6001600160a01b0316610cbc610c41565b6001600160a01b031614610ce25760405162461bcd60e51b815260040161076b906121cd565b8051610cf590600c90602084019061198a565b5050565b610d0161136c565b6001600160a01b0316826001600160a01b03161415610d325760405162461bcd60e51b815260040161076b90611f2f565b8060066000610d3f61136c565b6001600160a01b03908116825260208083019390935260409182016000908120918716808252919093529120805460ff191692151592909217909155610d8361136c565b6001600160a01b03167f17307eab39ab6107e8899845ad3d59bd9653f200f220920489ca2b5937696c3183604051610dbb9190611dfe565b60405180910390a35050565b610dd8610dd261136c565b836113de565b610df45760405162461bcd60e51b815260040161076b9061230a565b610e00848484846115fa565b50505050565b600a5460ff1681565b600a5460ff161515600114610e365760405162461bcd60e51b815260040161076b9061246f565b610e3e61069c565b1515600114610e5f5760405162461bcd60e51b815260040161076b906123c2565b60008111610e7f5760405162461bcd60e51b815260040161076b9061235b565b600d54811115610ea15760405162461bcd60e51b815260040161076b90612392565b61271081600954610eb291906124cb565b1115610ed05760405162461bcd60e51b815260040161076b9061211c565b600854341015610ef25760405162461bcd60e51b815260040161076b90611fb2565b600e5481610eff33610a75565b610f0991906124cb565b1115610f275760405162461bcd60e51b815260040161076b90612429565b60005b81811015610f5857610f4633826009546001610bfe91906124cb565b80610f5081612594565b915050610f2a565b508060096000828254610c3391906124cb565b6060610f768261134f565b610f925760405162461bcd60e51b815260040161076b9061227a565b6000610f9c61162d565b90506000815111610fbc5760405180602001604052806000815250610fe7565b80610fc68461163c565b604051602001610fd7929190611d7e565b6040516020818303038152906040525b9392505050565b600a5460009060ff610100909104161515600114610c9d5760405162461bcd60e51b815260040161076b90612202565b600a5460ff61010090910416151560011461104b5760405162461bcd60e51b815260040161076b9061246f565b6000811161106b5760405162461bcd60e51b815260040161076b9061235b565b600d5481111561108d5760405162461bcd60e51b815260040161076b90612392565b6127108160095461109e91906124cb565b11156110bc5760405162461bcd60e51b815260040161076b9061211c565b806007546110ca91906124f7565b3410156110e95760405162461bcd60e51b815260040161076b90611fb2565b600f54816110f633610a75565b61110091906124cb565b111561111e5760405162461bcd60e51b815260040161076b906120d2565b60005b81811015610f585761113d33826009546001610bfe91906124cb565b8061114781612594565b915050611121565b61115761136c565b6001600160a01b0316611168610c41565b6001600160a01b03161461118e5760405162461bcd60e51b815260040161076b906121cd565b600755565b6001600160a01b03918216600090815260066020908152604080832093909416825291909152205460ff1690565b6111c961136c565b6001600160a01b03166111da610c41565b6001600160a01b0316146112005760405162461bcd60e51b815260040161076b906121cd565b60005b8151811015610cf5576001600b600084848151811061123257634e487b7160e01b600052603260045260246000fd5b6020908102919091018101516001600160a01b03168252810191909152604001600020805460ff19169115159190911790558061126e81612594565b915050611203565b61127e61136c565b6001600160a01b031661128f610c41565b6001600160a01b0316146112b55760405162461bcd60e51b815260040161076b906121cd565b600a805460ff1916911515919091179055565b6112d061136c565b6001600160a01b03166112e1610c41565b6001600160a01b0316146113075760405162461bcd60e51b815260040161076b906121cd565b6001600160a01b03811661132d5760405162461bcd60e51b815260040161076b90611e6e565b61094481611590565b6001600160e01b031981166301ffc9a760e01b14919050565b6000908152600360205260409020546001600160a01b0316151590565b3390565b600081815260056020526040902080546001600160a01b0319166001600160a01b03841690811790915581906113a58261096e565b6001600160a01b03167f8c5be1e5ebec7d5bd14f71427d1e84f3dd0314c0f7b2291e5b200ac8c7c3b92560405160405180910390a45050565b60006113e98261134f565b6114055760405162461bcd60e51b815260040161076b90611f66565b60006114108361096e565b9050806001600160a01b0316846001600160a01b0316148061144b5750836001600160a01b031661144084610744565b6001600160a01b0316145b8061145b575061145b8185611193565b949350505050565b826001600160a01b03166114768261096e565b6001600160a01b03161461149c5760405162461bcd60e51b815260040161076b90612231565b6001600160a01b0382166114c25760405162461bcd60e51b815260040161076b90611eeb565b6114cd838383610823565b6114d8600082611370565b6001600160a01b0383166000908152600460205260408120805460019290611501908490612516565b90915550506001600160a01b038216600090815260046020526040812080546001929061152f9084906124cb565b909155505060008181526003602052604080822080546001600160a01b0319166001600160a01b0386811691821790925591518493918716917fddf252ad1be2c89b69c2b068fc378daa952ba7f163c4a11628f55a4df523b3ef91a4505050565b600080546001600160a01b038381166001600160a01b0319831681178455604051919092169283917f8be0079c531659141344cd1fd0a4f28419497f9722a3daafe3b4186f6b6457e09190a35050565b610cf5828260405180602001604052806000815250611757565b611605848484611463565b6116118484848461178a565b610e005760405162461bcd60e51b815260040161076b90611e1c565b6060600c80546106c190612559565b60608161166157506040805180820190915260018152600360fc1b6020820152610697565b8160005b811561168b578061167581612594565b91506116849050600a836124e3565b9150611665565b60008167ffffffffffffffff8111156116b457634e487b7160e01b600052604160045260246000fd5b6040519080825280601f01601f1916602001820160405280156116de576020820181803683370190505b5090505b841561145b576116f3600183612516565b9150611700600a866125af565b61170b9060306124cb565b60f81b81838151811061172e57634e487b7160e01b600052603260045260246000fd5b60200101906001600160f81b031916908160001a905350611750600a866124e3565b94506116e2565b61176183836118a5565b61176e600084848461178a565b6108235760405162461bcd60e51b815260040161076b90611e1c565b600061179e846001600160a01b0316611984565b1561189a57836001600160a01b031663150b7a026117ba61136c565b8786866040518563ffffffff1660e01b81526004016117dc9493929190611dc1565b602060405180830381600087803b1580156117f657600080fd5b505af1925050508015611826575060408051601f3d908101601f1916820190925261182391810190611cd8565b60015b611880573d808015611854576040519150601f19603f3d011682016040523d82523d6000602084013e611859565b606091505b5080516118785760405162461bcd60e51b815260040161076b90611e1c565b805181602001fd5b6001600160e01b031916630a85bd0160e11b14905061145b565b506001949350505050565b6001600160a01b0382166118cb5760405162461bcd60e51b815260040161076b9061214c565b6118d48161134f565b156118f15760405162461bcd60e51b815260040161076b90611eb4565b6118fd60008383610823565b6001600160a01b03821660009081526004602052604081208054600192906119269084906124cb565b909155505060008181526003602052604080822080546001600160a01b0319166001600160a01b03861690811790915590518392907fddf252ad1be2c89b69c2b068fc378daa952ba7f163c4a11628f55a4df523b3ef908290a45050565b3b151590565b82805461199690612559565b90600052602060002090601f0160209004810192826119b857600085556119fe565b82601f106119d157805160ff19168380011785556119fe565b828001600101855582156119fe579182015b828111156119fe5782518255916020019190600101906119e3565b50611a0a929150611a0e565b5090565b5b80821115611a0a5760008155600101611a0f565b600067ffffffffffffffff831115611a3d57611a3d6125ef565b611a50601f8401601f19166020016124a1565b9050828152838383011115611a6457600080fd5b828260208301376000602084830101529392505050565b80356001600160a01b038116811461069757600080fd5b8035801515811461069757600080fd5b600060208284031215611ab3578081fd5b610fe782611a7b565b60008060408385031215611ace578081fd5b611ad783611a7b565b9150611ae560208401611a7b565b90509250929050565b600080600060608486031215611b02578081fd5b611b0b84611a7b565b9250611b1960208501611a7b565b9150604084013590509250925092565b60008060008060808587031215611b3e578081fd5b611b4785611a7b565b9350611b5560208601611a7b565b925060408501359150606085013567ffffffffffffffff811115611b77578182fd5b8501601f81018713611b87578182fd5b611b9687823560208401611a23565b91505092959194509250565b60008060408385031215611bb4578182fd5b611bbd83611a7b565b9150611ae560208401611a92565b60008060408385031215611bdd578182fd5b611be683611a7b565b946020939093013593505050565b60006020808385031215611c06578182fd5b823567ffffffffffffffff80821115611c1d578384fd5b818501915085601f830112611c30578384fd5b813581811115611c4257611c426125ef565b8381029150611c528483016124a1565b8181528481019084860184860187018a1015611c6c578788fd5b8795505b83861015611c9557611c8181611a7b565b835260019590950194918601918601611c70565b5098975050505050505050565b600060208284031215611cb3578081fd5b610fe782611a92565b600060208284031215611ccd578081fd5b8135610fe781612605565b600060208284031215611ce9578081fd5b8151610fe781612605565b600060208284031215611d05578081fd5b813567ffffffffffffffff811115611d1b578182fd5b8201601f81018413611d2b578182fd5b61145b84823560208401611a23565b600060208284031215611d4b578081fd5b5035919050565b60008151808452611d6a81602086016020860161252d565b601f01601f19169290920160200192915050565b60008351611d9081846020880161252d565b835190830190611da481836020880161252d565b01949350505050565b6001600160a01b0391909116815260200190565b6001600160a01b0385811682528416602082015260408101839052608060608201819052600090611df490830184611d52565b9695505050505050565b901515815260200190565b600060208252610fe76020830184611d52565b60208082526032908201527f4552433732313a207472616e7366657220746f206e6f6e20455243373231526560408201527131b2b4bb32b91034b6b83632b6b2b73a32b960711b606082015260800190565b60208082526026908201527f4f776e61626c653a206e6577206f776e657220697320746865207a65726f206160408201526564647265737360d01b606082015260800190565b6020808252601c908201527f4552433732313a20746f6b656e20616c7265616479206d696e74656400000000604082015260600190565b60208082526024908201527f4552433732313a207472616e7366657220746f20746865207a65726f206164646040820152637265737360e01b606082015260800190565b60208082526019908201527f4552433732313a20617070726f766520746f2063616c6c657200000000000000604082015260600190565b6020808252602c908201527f4552433732313a206f70657261746f7220717565727920666f72206e6f6e657860408201526b34b9ba32b73a103a37b5b2b760a11b606082015260800190565b6020808252601690820152751a5b98dbdc9c9958dd08195d1a195c88185b5bdd5b9d60521b604082015260600190565b60208082526038908201527f4552433732313a20617070726f76652063616c6c6572206973206e6f74206f7760408201527f6e6572206e6f7220617070726f76656420666f7220616c6c0000000000000000606082015260800190565b6020808252602a908201527f4552433732313a2062616c616e636520717565727920666f7220746865207a65604082015269726f206164647265737360b01b606082015260800190565b60208082526029908201527f4552433732313a206f776e657220717565727920666f72206e6f6e657869737460408201526832b73a103a37b5b2b760b91b606082015260800190565b6020808252602a908201527f313020746f6b656e73207065722077616c6c657420616c6c6f77656420696e206040820152697075626c696373616c6560b01b606082015260800190565b602080825260169082015275139bdd08195b9bdd59da081d1bdad95b9cc81b19599d60521b604082015260600190565b6020808252818101527f4552433732313a206d696e7420746f20746865207a65726f2061646472657373604082015260600190565b6020808252602c908201527f4552433732313a20617070726f76656420717565727920666f72206e6f6e657860408201526b34b9ba32b73a103a37b5b2b760a11b606082015260800190565b6020808252818101527f4f776e61626c653a2063616c6c6572206973206e6f7420746865206f776e6572604082015260600190565b60208082526015908201527429b0b632903737ba1029ba30b93a32b2102cb2ba1760591b604082015260600190565b60208082526029908201527f4552433732313a207472616e73666572206f6620746f6b656e2074686174206960408201526839903737ba1037bbb760b91b606082015260800190565b6020808252602f908201527f4552433732314d657461646174613a2055524920717565727920666f72206e6f60408201526e3732bc34b9ba32b73a103a37b5b2b760891b606082015260800190565b60208082526021908201527f4552433732313a20617070726f76616c20746f2063757272656e74206f776e656040820152603960f91b606082015260800190565b60208082526031908201527f4552433732313a207472616e736665722063616c6c6572206973206e6f74206f6040820152701ddb995c881b9bdc88185c1c1c9bdd9959607a1b606082015260800190565b60208082526017908201527f6d696e74206174206c65617374206f6e6520746f6b656e000000000000000000604082015260600190565b60208082526016908201527506d617820706572207472616e73616374696f6e2032360541b604082015260600190565b6020808252601c908201527f596f7520617265206e6f7420696e2050726573616c65204c6973742e00000000604082015260600190565b6020808252601690820152751b9bdd08195b9bdd59da081d1bdad95b9cc81b19599d60521b604082015260600190565b60208082526026908201527f3520746f6b656e73207065722077616c6c657420616c6c6f77656420696e2070604082015265726573616c6560d01b606082015260800190565b6020808252600f908201526e29b0b6329034b9902830bab9b2b21760891b604082015260600190565b90815260200190565b60405181810167ffffffffffffffff811182821017156124c3576124c36125ef565b604052919050565b600082198211156124de576124de6125c3565b500190565b6000826124f2576124f26125d9565b500490565b6000816000190483118215151615612511576125116125c3565b500290565b600082821015612528576125286125c3565b500390565b60005b83811015612548578181015183820152602001612530565b83811115610e005750506000910152565b60028104600182168061256d57607f821691505b6020821081141561258e57634e487b7160e01b600052602260045260246000fd5b50919050565b60006000198214156125a8576125a86125c3565b5060010190565b6000826125be576125be6125d9565b500690565b634e487b7160e01b600052601160045260246000fd5b634e487b7160e01b600052601260045260246000fd5b634e487b7160e01b600052604160045260246000fd5b6001600160e01b03198116811461094457600080fdfea26469706673582212209e70ba7d532a5e89e9a1bc9b4b782444a89c3053d038c2cddebe94a4e75b093a64736f6c63430008000033",
					"opcodes": "PUSH1 0x80 PUSH1 0x40 MSTORE PUSH8 0x16345785D8A0000 PUSH1 0x7 DUP2 SWAP1 SSTORE PUSH1 0x8 SSTORE PUSH1 0x0 PUSH1 0x9 SSTORE PUSH1 0xA DUP1 SLOAD PUSH2 0xFFFF NOT AND SWAP1 SSTORE PUSH1 0x14 PUSH1 0xD SSTORE PUSH1 0x5 PUSH1 0xE DUP2 SWAP1 SSTORE PUSH1 0xF SSTORE CALLVALUE DUP1 ISZERO PUSH3 0x41 JUMPI PUSH1 0x0 DUP1 REVERT JUMPDEST POP PUSH1 0x40 MLOAD DUP1 PUSH1 0x40 ADD PUSH1 0x40 MSTORE DUP1 PUSH1 0xA DUP2 MSTORE PUSH1 0x20 ADD PUSH10 0x496E76657374616C6F67 PUSH1 0xB0 SHL DUP2 MSTORE POP PUSH1 0x40 MLOAD DUP1 PUSH1 0x40 ADD PUSH1 0x40 MSTORE DUP1 PUSH1 0x3 DUP2 MSTORE PUSH1 0x20 ADD PUSH3 0x495647 PUSH1 0xE8 SHL DUP2 MSTORE POP PUSH3 0x9B PUSH3 0x95 PUSH3 0xCF PUSH1 0x20 SHL PUSH1 0x20 SHR JUMP JUMPDEST PUSH3 0xD3 JUMP JUMPDEST DUP2 MLOAD PUSH3 0xB0 SWAP1 PUSH1 0x1 SWAP1 PUSH1 0x20 DUP6 ADD SWAP1 PUSH3 0x123 JUMP JUMPDEST POP DUP1 MLOAD PUSH3 0xC6 SWAP1 PUSH1 0x2 SWAP1 PUSH1 0x20 DUP5 ADD SWAP1 PUSH3 0x123 JUMP JUMPDEST POP POP POP PUSH3 0x206 JUMP JUMPDEST CALLER SWAP1 JUMP JUMPDEST PUSH1 0x0 DUP1 SLOAD PUSH1 0x1 PUSH1 0x1 PUSH1 0xA0 SHL SUB DUP4 DUP2 AND PUSH1 0x1 PUSH1 0x1 PUSH1 0xA0 SHL SUB NOT DUP4 AND DUP2 OR DUP5 SSTORE PUSH1 0x40 MLOAD SWAP2 SWAP1 SWAP3 AND SWAP3 DUP4 SWAP2 PUSH32 0x8BE0079C531659141344CD1FD0A4F28419497F9722A3DAAFE3B4186F6B6457E0 SWAP2 SWAP1 LOG3 POP POP JUMP JUMPDEST DUP3 DUP1 SLOAD PUSH3 0x131 SWAP1 PUSH3 0x1C9 JUMP JUMPDEST SWAP1 PUSH1 0x0 MSTORE PUSH1 0x20 PUSH1 0x0 KECCAK256 SWAP1 PUSH1 0x1F ADD PUSH1 0x20 SWAP1 DIV DUP2 ADD SWAP3 DUP3 PUSH3 0x155 JUMPI PUSH1 0x0 DUP6 SSTORE PUSH3 0x1A0 JUMP JUMPDEST DUP3 PUSH1 0x1F LT PUSH3 0x170 JUMPI DUP1 MLOAD PUSH1 0xFF NOT AND DUP4 DUP1 ADD OR DUP6 SSTORE PUSH3 0x1A0 JUMP JUMPDEST DUP3 DUP1 ADD PUSH1 0x1 ADD DUP6 SSTORE DUP3 ISZERO PUSH3 0x1A0 JUMPI SWAP2 DUP3 ADD JUMPDEST DUP3 DUP2 GT ISZERO PUSH3 0x1A0 JUMPI DUP3 MLOAD DUP3 SSTORE SWAP2 PUSH1 0x20 ADD SWAP2 SWAP1 PUSH1 0x1 ADD SWAP1 PUSH3 0x183 JUMP JUMPDEST POP PUSH3 0x1AE SWAP3 SWAP2 POP PUSH3 0x1B2 JUMP JUMPDEST POP SWAP1 JUMP JUMPDEST JUMPDEST DUP1 DUP3 GT ISZERO PUSH3 0x1AE JUMPI PUSH1 0x0 DUP2 SSTORE PUSH1 0x1 ADD PUSH3 0x1B3 JUMP JUMPDEST PUSH1 0x2 DUP2 DIV PUSH1 0x1 DUP3 AND DUP1 PUSH3 0x1DE JUMPI PUSH1 0x7F DUP3 AND SWAP2 POP JUMPDEST PUSH1 0x20 DUP3 LT DUP2 EQ ISZERO PUSH3 0x200 JUMPI PUSH4 0x4E487B71 PUSH1 0xE0 SHL PUSH1 0x0 MSTORE PUSH1 0x22 PUSH1 0x4 MSTORE PUSH1 0x24 PUSH1 0x0 REVERT JUMPDEST POP SWAP2 SWAP1 POP JUMP JUMPDEST PUSH2 0x2651 DUP1 PUSH3 0x216 PUSH1 0x0 CODECOPY PUSH1 0x0 RETURN INVALID PUSH1 0x80 PUSH1 0x40 MSTORE PUSH1 0x4 CALLDATASIZE LT PUSH2 0x225 JUMPI PUSH1 0x0 CALLDATALOAD PUSH1 0xE0 SHR DUP1 PUSH4 0x7FF9B596 GT PUSH2 0x123 JUMPI DUP1 PUSH4 0xBA6DD6F0 GT PUSH2 0xAB JUMPI DUP1 PUSH4 0xE2A70EAF GT PUSH2 0x6F JUMPI DUP1 PUSH4 0xE2A70EAF EQ PUSH2 0x5B4 JUMPI DUP1 PUSH4 0xE985E9C5 EQ PUSH2 0x5D4 JUMPI DUP1 PUSH4 0xEBB31510 EQ PUSH2 0x5F4 JUMPI DUP1 PUSH4 0xEF5F1985 EQ PUSH2 0x614 JUMPI DUP1 PUSH4 0xF2FDE38B EQ PUSH2 0x634 JUMPI PUSH2 0x225 JUMP JUMPDEST DUP1 PUSH4 0xBA6DD6F0 EQ PUSH2 0x544 JUMPI DUP1 PUSH4 0xBB2841C5 EQ PUSH2 0x559 JUMPI DUP1 PUSH4 0xC87B56DD EQ PUSH2 0x56C JUMPI DUP1 PUSH4 0xCD7DE458 EQ PUSH2 0x58C JUMPI DUP1 PUSH4 0xD96A094A EQ PUSH2 0x5A1 JUMPI PUSH2 0x225 JUMP JUMPDEST DUP1 PUSH4 0x969745E8 GT PUSH2 0xF2 JUMPI DUP1 PUSH4 0x969745E8 EQ PUSH2 0x4BA JUMPI DUP1 PUSH4 0x996953FC EQ PUSH2 0x4CF JUMPI DUP1 PUSH4 0xA0BCFC7F EQ PUSH2 0x4E4 JUMPI DUP1 PUSH4 0xA22CB465 EQ PUSH2 0x504 JUMPI DUP1 PUSH4 0xB88D4FDE EQ PUSH2 0x524 JUMPI PUSH2 0x225 JUMP JUMPDEST DUP1 PUSH4 0x7FF9B596 EQ PUSH2 0x466 JUMPI DUP1 PUSH4 0x8DA5CB5B EQ PUSH2 0x47B JUMPI DUP1 PUSH4 0x95D89B41 EQ PUSH2 0x490 JUMPI DUP1 PUSH4 0x95EA5E67 EQ PUSH2 0x4A5 JUMPI PUSH2 0x225 JUMP JUMPDEST DUP1 PUSH4 0x3CCFD60B GT PUSH2 0x1B1 JUMPI DUP1 PUSH4 0x63ADC5A5 GT PUSH2 0x175 JUMPI DUP1 PUSH4 0x63ADC5A5 EQ PUSH2 0x3DC JUMPI DUP1 PUSH4 0x6C0360EB EQ PUSH2 0x3FC JUMPI DUP1 PUSH4 0x70A08231 EQ PUSH2 0x411 JUMPI DUP1 PUSH4 0x715018A6 EQ PUSH2 0x431 JUMPI DUP1 PUSH4 0x7C8255DB EQ PUSH2 0x446 JUMPI PUSH2 0x225 JUMP JUMPDEST DUP1 PUSH4 0x3CCFD60B EQ PUSH2 0x35D JUMPI DUP1 PUSH4 0x4235F70B EQ PUSH2 0x372 JUMPI DUP1 PUSH4 0x42842E0E EQ PUSH2 0x387 JUMPI DUP1 PUSH4 0x4B980D67 EQ PUSH2 0x3A7 JUMPI DUP1 PUSH4 0x6352211E EQ PUSH2 0x3BC JUMPI PUSH2 0x225 JUMP JUMPDEST DUP1 PUSH4 0x95EA7B3 GT PUSH2 0x1F8 JUMPI DUP1 PUSH4 0x95EA7B3 EQ PUSH2 0x2C4 JUMPI DUP1 PUSH4 0x18160DDD EQ PUSH2 0x2E6 JUMPI DUP1 PUSH4 0x1CEF37E4 EQ PUSH2 0x308 JUMPI DUP1 PUSH4 0x230A9B8D EQ PUSH2 0x328 JUMPI DUP1 PUSH4 0x23B872DD EQ PUSH2 0x33D JUMPI PUSH2 0x225 JUMP JUMPDEST DUP1 PUSH4 0x1FFC9A7 EQ PUSH2 0x22A JUMPI DUP1 PUSH4 0x2689663 EQ PUSH2 0x260 JUMPI DUP1 PUSH4 0x6FDDE03 EQ PUSH2 0x275 JUMPI DUP1 PUSH4 0x81812FC EQ PUSH2 0x297 JUMPI JUMPDEST PUSH1 0x0 DUP1 REVERT JUMPDEST CALLVALUE DUP1 ISZERO PUSH2 0x236 JUMPI PUSH1 0x0 DUP1 REVERT JUMPDEST POP PUSH2 0x24A PUSH2 0x245 CALLDATASIZE PUSH1 0x4 PUSH2 0x1CBC JUMP JUMPDEST PUSH2 0x654 JUMP JUMPDEST PUSH1 0x40 MLOAD PUSH2 0x257 SWAP2 SWAP1 PUSH2 0x1DFE JUMP JUMPDEST PUSH1 0x40 MLOAD DUP1 SWAP2 SUB SWAP1 RETURN JUMPDEST CALLVALUE DUP1 ISZERO PUSH2 0x26C JUMPI PUSH1 0x0 DUP1 REVERT JUMPDEST POP PUSH2 0x24A PUSH2 0x69C JUMP JUMPDEST CALLVALUE DUP1 ISZERO PUSH2 0x281 JUMPI PUSH1 0x0 DUP1 REVERT JUMPDEST POP PUSH2 0x28A PUSH2 0x6B2 JUMP JUMPDEST PUSH1 0x40 MLOAD PUSH2 0x257 SWAP2 SWAP1 PUSH2 0x1E09 JUMP JUMPDEST CALLVALUE DUP1 ISZERO PUSH2 0x2A3 JUMPI PUSH1 0x0 DUP1 REVERT JUMPDEST POP PUSH2 0x2B7 PUSH2 0x2B2 CALLDATASIZE PUSH1 0x4 PUSH2 0x1D3A JUMP JUMPDEST PUSH2 0x744 JUMP JUMPDEST PUSH1 0x40 MLOAD PUSH2 0x257 SWAP2 SWAP1 PUSH2 0x1DAD JUMP JUMPDEST CALLVALUE DUP1 ISZERO PUSH2 0x2D0 JUMPI PUSH1 0x0 DUP1 REVERT JUMPDEST POP PUSH2 0x2E4 PUSH2 0x2DF CALLDATASIZE PUSH1 0x4 PUSH2 0x1BCB JUMP JUMPDEST PUSH2 0x790 JUMP JUMPDEST STOP JUMPDEST CALLVALUE DUP1 ISZERO PUSH2 0x2F2 JUMPI PUSH1 0x0 DUP1 REVERT JUMPDEST POP PUSH2 0x2FB PUSH2 0x828 JUMP JUMPDEST PUSH1 0x40 MLOAD PUSH2 0x257 SWAP2 SWAP1 PUSH2 0x2498 JUMP JUMPDEST CALLVALUE DUP1 ISZERO PUSH2 0x314 JUMPI PUSH1 0x0 DUP1 REVERT JUMPDEST POP PUSH2 0x2E4 PUSH2 0x323 CALLDATASIZE PUSH1 0x4 PUSH2 0x1CA2 JUMP JUMPDEST PUSH2 0x82E JUMP JUMPDEST CALLVALUE DUP1 ISZERO PUSH2 0x334 JUMPI PUSH1 0x0 DUP1 REVERT JUMPDEST POP PUSH2 0x2FB PUSH2 0x887 JUMP JUMPDEST CALLVALUE DUP1 ISZERO PUSH2 0x349 JUMPI PUSH1 0x0 DUP1 REVERT JUMPDEST POP PUSH2 0x2E4 PUSH2 0x358 CALLDATASIZE PUSH1 0x4 PUSH2 0x1AEE JUMP JUMPDEST PUSH2 0x88D JUMP JUMPDEST CALLVALUE DUP1 ISZERO PUSH2 0x369 JUMPI PUSH1 0x0 DUP1 REVERT JUMPDEST POP PUSH2 0x2E4 PUSH2 0x8C5 JUMP JUMPDEST CALLVALUE DUP1 ISZERO PUSH2 0x37E JUMPI PUSH1 0x0 DUP1 REVERT JUMPDEST POP PUSH2 0x2FB PUSH2 0x947 JUMP JUMPDEST CALLVALUE DUP1 ISZERO PUSH2 0x393 JUMPI PUSH1 0x0 DUP1 REVERT JUMPDEST POP PUSH2 0x2E4 PUSH2 0x3A2 CALLDATASIZE PUSH1 0x4 PUSH2 0x1AEE JUMP JUMPDEST PUSH2 0x94D JUMP JUMPDEST CALLVALUE DUP1 ISZERO PUSH2 0x3B3 JUMPI PUSH1 0x0 DUP1 REVERT JUMPDEST POP PUSH2 0x2FB PUSH2 0x968 JUMP JUMPDEST CALLVALUE DUP1 ISZERO PUSH2 0x3C8 JUMPI PUSH1 0x0 DUP1 REVERT JUMPDEST POP PUSH2 0x2B7 PUSH2 0x3D7 CALLDATASIZE PUSH1 0x4 PUSH2 0x1D3A JUMP JUMPDEST PUSH2 0x96E JUMP JUMPDEST CALLVALUE DUP1 ISZERO PUSH2 0x3E8 JUMPI PUSH1 0x0 DUP1 REVERT JUMPDEST POP PUSH2 0x2E4 PUSH2 0x3F7 CALLDATASIZE PUSH1 0x4 PUSH2 0x1D3A JUMP JUMPDEST PUSH2 0x9A3 JUMP JUMPDEST CALLVALUE DUP1 ISZERO PUSH2 0x408 JUMPI PUSH1 0x0 DUP1 REVERT JUMPDEST POP PUSH2 0x28A PUSH2 0x9E7 JUMP JUMPDEST CALLVALUE DUP1 ISZERO PUSH2 0x41D JUMPI PUSH1 0x0 DUP1 REVERT JUMPDEST POP PUSH2 0x2FB PUSH2 0x42C CALLDATASIZE PUSH1 0x4 PUSH2 0x1AA2 JUMP JUMPDEST PUSH2 0xA75 JUMP JUMPDEST CALLVALUE DUP1 ISZERO PUSH2 0x43D JUMPI PUSH1 0x0 DUP1 REVERT JUMPDEST POP PUSH2 0x2E4 PUSH2 0xAB9 JUMP JUMPDEST CALLVALUE DUP1 ISZERO PUSH2 0x452 JUMPI PUSH1 0x0 DUP1 REVERT JUMPDEST POP PUSH2 0x2E4 PUSH2 0x461 CALLDATASIZE PUSH1 0x4 PUSH2 0x1BF4 JUMP JUMPDEST PUSH2 0xB04 JUMP JUMPDEST CALLVALUE DUP1 ISZERO PUSH2 0x472 JUMPI PUSH1 0x0 DUP1 REVERT JUMPDEST POP PUSH2 0x2FB PUSH2 0xC3B JUMP JUMPDEST CALLVALUE DUP1 ISZERO PUSH2 0x487 JUMPI PUSH1 0x0 DUP1 REVERT JUMPDEST POP PUSH2 0x2B7 PUSH2 0xC41 JUMP JUMPDEST CALLVALUE DUP1 ISZERO PUSH2 0x49C JUMPI PUSH1 0x0 DUP1 REVERT JUMPDEST POP PUSH2 0x28A PUSH2 0xC50 JUMP JUMPDEST CALLVALUE DUP1 ISZERO PUSH2 0x4B1 JUMPI PUSH1 0x0 DUP1 REVERT JUMPDEST POP PUSH2 0x24A PUSH2 0xC5F JUMP JUMPDEST CALLVALUE DUP1 ISZERO PUSH2 0x4C6 JUMPI PUSH1 0x0 DUP1 REVERT JUMPDEST POP PUSH2 0x2FB PUSH2 0xC6D JUMP JUMPDEST CALLVALUE DUP1 ISZERO PUSH2 0x4DB JUMPI PUSH1 0x0 DUP1 REVERT JUMPDEST POP PUSH2 0x2FB PUSH2 0xC73 JUMP JUMPDEST CALLVALUE DUP1 ISZERO PUSH2 0x4F0 JUMPI PUSH1 0x0 DUP1 REVERT JUMPDEST POP PUSH2 0x2E4 PUSH2 0x4FF CALLDATASIZE PUSH1 0x4 PUSH2 0x1CF4 JUMP JUMPDEST PUSH2 0xCA3 JUMP JUMPDEST CALLVALUE DUP1 ISZERO PUSH2 0x510 JUMPI PUSH1 0x0 DUP1 REVERT JUMPDEST POP PUSH2 0x2E4 PUSH2 0x51F CALLDATASIZE PUSH1 0x4 PUSH2 0x1BA2 JUMP JUMPDEST PUSH2 0xCF9 JUMP JUMPDEST CALLVALUE DUP1 ISZERO PUSH2 0x530 JUMPI PUSH1 0x0 DUP1 REVERT JUMPDEST POP PUSH2 0x2E4 PUSH2 0x53F CALLDATASIZE PUSH1 0x4 PUSH2 0x1B29 JUMP JUMPDEST PUSH2 0xDC7 JUMP JUMPDEST CALLVALUE DUP1 ISZERO PUSH2 0x550 JUMPI PUSH1 0x0 DUP1 REVERT JUMPDEST POP PUSH2 0x24A PUSH2 0xE06 JUMP JUMPDEST PUSH2 0x2E4 PUSH2 0x567 CALLDATASIZE PUSH1 0x4 PUSH2 0x1D3A JUMP JUMPDEST PUSH2 0xE0F JUMP JUMPDEST CALLVALUE DUP1 ISZERO PUSH2 0x578 JUMPI PUSH1 0x0 DUP1 REVERT JUMPDEST POP PUSH2 0x28A PUSH2 0x587 CALLDATASIZE PUSH1 0x4 PUSH2 0x1D3A JUMP JUMPDEST PUSH2 0xF6B JUMP JUMPDEST CALLVALUE DUP1 ISZERO PUSH2 0x598 JUMPI PUSH1 0x0 DUP1 REVERT JUMPDEST POP PUSH2 0x2FB PUSH2 0xFEE JUMP JUMPDEST PUSH2 0x2E4 PUSH2 0x5AF CALLDATASIZE PUSH1 0x4 PUSH2 0x1D3A JUMP JUMPDEST PUSH2 0x101E JUMP JUMPDEST CALLVALUE DUP1 ISZERO PUSH2 0x5C0 JUMPI PUSH1 0x0 DUP1 REVERT JUMPDEST POP PUSH2 0x2E4 PUSH2 0x5CF CALLDATASIZE PUSH1 0x4 PUSH2 0x1D3A JUMP JUMPDEST PUSH2 0x114F JUMP JUMPDEST CALLVALUE DUP1 ISZERO PUSH2 0x5E0 JUMPI PUSH1 0x0 DUP1 REVERT JUMPDEST POP PUSH2 0x24A PUSH2 0x5EF CALLDATASIZE PUSH1 0x4 PUSH2 0x1ABC JUMP JUMPDEST PUSH2 0x1193 JUMP JUMPDEST CALLVALUE DUP1 ISZERO PUSH2 0x600 JUMPI PUSH1 0x0 DUP1 REVERT JUMPDEST POP PUSH2 0x2E4 PUSH2 0x60F CALLDATASIZE PUSH1 0x4 PUSH2 0x1BF4 JUMP JUMPDEST PUSH2 0x11C1 JUMP JUMPDEST CALLVALUE DUP1 ISZERO PUSH2 0x620 JUMPI PUSH1 0x0 DUP1 REVERT JUMPDEST POP PUSH2 0x2E4 PUSH2 0x62F CALLDATASIZE PUSH1 0x4 PUSH2 0x1CA2 JUMP JUMPDEST PUSH2 0x1276 JUMP JUMPDEST CALLVALUE DUP1 ISZERO PUSH2 0x640 JUMPI PUSH1 0x0 DUP1 REVERT JUMPDEST POP PUSH2 0x2E4 PUSH2 0x64F CALLDATASIZE PUSH1 0x4 PUSH2 0x1AA2 JUMP JUMPDEST PUSH2 0x12C8 JUMP JUMPDEST PUSH1 0x0 PUSH1 0x1 PUSH1 0x1 PUSH1 0xE0 SHL SUB NOT DUP3 AND PUSH4 0x80AC58CD PUSH1 0xE0 SHL EQ DUP1 PUSH2 0x685 JUMPI POP PUSH1 0x1 PUSH1 0x1 PUSH1 0xE0 SHL SUB NOT DUP3 AND PUSH4 0x5B5E139F PUSH1 0xE0 SHL EQ JUMPDEST DUP1 PUSH2 0x694 JUMPI POP PUSH2 0x694 DUP3 PUSH2 0x1336 JUMP JUMPDEST SWAP1 POP JUMPDEST SWAP2 SWAP1 POP JUMP JUMPDEST CALLER PUSH1 0x0 SWAP1 DUP2 MSTORE PUSH1 0xB PUSH1 0x20 MSTORE PUSH1 0x40 SWAP1 KECCAK256 SLOAD PUSH1 0xFF AND SWAP1 JUMP JUMPDEST PUSH1 0x60 PUSH1 0x1 DUP1 SLOAD PUSH2 0x6C1 SWAP1 PUSH2 0x2559 JUMP JUMPDEST DUP1 PUSH1 0x1F ADD PUSH1 0x20 DUP1 SWAP2 DIV MUL PUSH1 0x20 ADD PUSH1 0x40 MLOAD SWAP1 DUP2 ADD PUSH1 0x40 MSTORE DUP1 SWAP3 SWAP2 SWAP1 DUP2 DUP2 MSTORE PUSH1 0x20 ADD DUP3 DUP1 SLOAD PUSH2 0x6ED SWAP1 PUSH2 0x2559 JUMP JUMPDEST DUP1 ISZERO PUSH2 0x73A JUMPI DUP1 PUSH1 0x1F LT PUSH2 0x70F JUMPI PUSH2 0x100 DUP1 DUP4 SLOAD DIV MUL DUP4 MSTORE SWAP2 PUSH1 0x20 ADD SWAP2 PUSH2 0x73A JUMP JUMPDEST DUP3 ADD SWAP2 SWAP1 PUSH1 0x0 MSTORE PUSH1 0x20 PUSH1 0x0 KECCAK256 SWAP1 JUMPDEST DUP2 SLOAD DUP2 MSTORE SWAP1 PUSH1 0x1 ADD SWAP1 PUSH1 0x20 ADD DUP1 DUP4 GT PUSH2 0x71D JUMPI DUP3 SWAP1 SUB PUSH1 0x1F AND DUP3 ADD SWAP2 JUMPDEST POP POP POP POP POP SWAP1 POP SWAP1 JUMP JUMPDEST PUSH1 0x0 PUSH2 0x74F DUP3 PUSH2 0x134F JUMP JUMPDEST PUSH2 0x774 JUMPI PUSH1 0x40 MLOAD PUSH3 0x461BCD PUSH1 0xE5 SHL DUP2 MSTORE PUSH1 0x4 ADD PUSH2 0x76B SWAP1 PUSH2 0x2181 JUMP JUMPDEST PUSH1 0x40 MLOAD DUP1 SWAP2 SUB SWAP1 REVERT JUMPDEST POP PUSH1 0x0 SWAP1 DUP2 MSTORE PUSH1 0x5 PUSH1 0x20 MSTORE PUSH1 0x40 SWAP1 KECCAK256 SLOAD PUSH1 0x1 PUSH1 0x1 PUSH1 0xA0 SHL SUB AND SWAP1 JUMP JUMPDEST PUSH1 0x0 PUSH2 0x79B DUP3 PUSH2 0x96E JUMP JUMPDEST SWAP1 POP DUP1 PUSH1 0x1 PUSH1 0x1 PUSH1 0xA0 SHL SUB AND DUP4 PUSH1 0x1 PUSH1 0x1 PUSH1 0xA0 SHL SUB AND EQ ISZERO PUSH2 0x7CF JUMPI PUSH1 0x40 MLOAD PUSH3 0x461BCD PUSH1 0xE5 SHL DUP2 MSTORE PUSH1 0x4 ADD PUSH2 0x76B SWAP1 PUSH2 0x22C9 JUMP JUMPDEST DUP1 PUSH1 0x1 PUSH1 0x1 PUSH1 0xA0 SHL SUB AND PUSH2 0x7E1 PUSH2 0x136C JUMP JUMPDEST PUSH1 0x1 PUSH1 0x1 PUSH1 0xA0 SHL SUB AND EQ DUP1 PUSH2 0x7FD JUMPI POP PUSH2 0x7FD DUP2 PUSH2 0x5EF PUSH2 0x136C JUMP JUMPDEST PUSH2 0x819 JUMPI PUSH1 0x40 MLOAD PUSH3 0x461BCD PUSH1 0xE5 SHL DUP2 MSTORE PUSH1 0x4 ADD PUSH2 0x76B SWAP1 PUSH2 0x1FE2 JUMP JUMPDEST PUSH2 0x823 DUP4 DUP4 PUSH2 0x1370 JUMP JUMPDEST POP POP POP JUMP JUMPDEST PUSH1 0x9 SLOAD DUP2 JUMP JUMPDEST PUSH2 0x836 PUSH2 0x136C JUMP JUMPDEST PUSH1 0x1 PUSH1 0x1 PUSH1 0xA0 SHL SUB AND PUSH2 0x847 PUSH2 0xC41 JUMP JUMPDEST PUSH1 0x1 PUSH1 0x1 PUSH1 0xA0 SHL SUB AND EQ PUSH2 0x86D JUMPI PUSH1 0x40 MLOAD PUSH3 0x461BCD PUSH1 0xE5 SHL DUP2 MSTORE PUSH1 0x4 ADD PUSH2 0x76B SWAP1 PUSH2 0x21CD JUMP JUMPDEST PUSH1 0xA DUP1 SLOAD SWAP2 ISZERO ISZERO PUSH2 0x100 MUL PUSH2 0xFF00 NOT SWAP1 SWAP3 AND SWAP2 SWAP1 SWAP2 OR SWAP1 SSTORE JUMP JUMPDEST PUSH1 0xE SLOAD DUP2 JUMP JUMPDEST PUSH2 0x89E PUSH2 0x898 PUSH2 0x136C JUMP JUMPDEST DUP3 PUSH2 0x13DE JUMP JUMPDEST PUSH2 0x8BA JUMPI PUSH1 0x40 MLOAD PUSH3 0x461BCD PUSH1 0xE5 SHL DUP2 MSTORE PUSH1 0x4 ADD PUSH2 0x76B SWAP1 PUSH2 0x230A JUMP JUMPDEST PUSH2 0x823 DUP4 DUP4 DUP4 PUSH2 0x1463 JUMP JUMPDEST PUSH2 0x8CD PUSH2 0x136C JUMP JUMPDEST PUSH1 0x1 PUSH1 0x1 PUSH1 0xA0 SHL SUB AND PUSH2 0x8DE PUSH2 0xC41 JUMP JUMPDEST PUSH1 0x1 PUSH1 0x1 PUSH1 0xA0 SHL SUB AND EQ PUSH2 0x904 JUMPI PUSH1 0x40 MLOAD PUSH3 0x461BCD PUSH1 0xE5 SHL DUP2 MSTORE PUSH1 0x4 ADD PUSH2 0x76B SWAP1 PUSH2 0x21CD JUMP JUMPDEST PUSH2 0x90C PUSH2 0xC41 JUMP JUMPDEST PUSH1 0x1 PUSH1 0x1 PUSH1 0xA0 SHL SUB AND PUSH2 0x8FC SELFBALANCE SWAP1 DUP2 ISZERO MUL SWAP1 PUSH1 0x40 MLOAD PUSH1 0x0 PUSH1 0x40 MLOAD DUP1 DUP4 SUB DUP2 DUP6 DUP9 DUP9 CALL SWAP4 POP POP POP POP ISZERO DUP1 ISZERO PUSH2 0x944 JUMPI RETURNDATASIZE PUSH1 0x0 DUP1 RETURNDATACOPY RETURNDATASIZE PUSH1 0x0 REVERT JUMPDEST POP JUMP JUMPDEST PUSH1 0xF SLOAD DUP2 JUMP JUMPDEST PUSH2 0x823 DUP4 DUP4 DUP4 PUSH1 0x40 MLOAD DUP1 PUSH1 0x20 ADD PUSH1 0x40 MSTORE DUP1 PUSH1 0x0 DUP2 MSTORE POP PUSH2 0xDC7 JUMP JUMPDEST PUSH1 0xD SLOAD DUP2 JUMP JUMPDEST PUSH1 0x0 DUP2 DUP2 MSTORE PUSH1 0x3 PUSH1 0x20 MSTORE PUSH1 0x40 DUP2 KECCAK256 SLOAD PUSH1 0x1 PUSH1 0x1 PUSH1 0xA0 SHL SUB AND DUP1 PUSH2 0x694 JUMPI PUSH1 0x40 MLOAD PUSH3 0x461BCD PUSH1 0xE5 SHL DUP2 MSTORE PUSH1 0x4 ADD PUSH2 0x76B SWAP1 PUSH2 0x2089 JUMP JUMPDEST PUSH2 0x9AB PUSH2 0x136C JUMP JUMPDEST PUSH1 0x1 PUSH1 0x1 PUSH1 0xA0 SHL SUB AND PUSH2 0x9BC PUSH2 0xC41 JUMP JUMPDEST PUSH1 0x1 PUSH1 0x1 PUSH1 0xA0 SHL SUB AND EQ PUSH2 0x9E2 JUMPI PUSH1 0x40 MLOAD PUSH3 0x461BCD PUSH1 0xE5 SHL DUP2 MSTORE PUSH1 0x4 ADD PUSH2 0x76B SWAP1 PUSH2 0x21CD JUMP JUMPDEST PUSH1 0x8 SSTORE JUMP JUMPDEST PUSH1 0xC DUP1 SLOAD PUSH2 0x9F4 SWAP1 PUSH2 0x2559 JUMP JUMPDEST DUP1 PUSH1 0x1F ADD PUSH1 0x20 DUP1 SWAP2 DIV MUL PUSH1 0x20 ADD PUSH1 0x40 MLOAD SWAP1 DUP2 ADD PUSH1 0x40 MSTORE DUP1 SWAP3 SWAP2 SWAP1 DUP2 DUP2 MSTORE PUSH1 0x20 ADD DUP3 DUP1 SLOAD PUSH2 0xA20 SWAP1 PUSH2 0x2559 JUMP JUMPDEST DUP1 ISZERO PUSH2 0xA6D JUMPI DUP1 PUSH1 0x1F LT PUSH2 0xA42 JUMPI PUSH2 0x100 DUP1 DUP4 SLOAD DIV MUL DUP4 MSTORE SWAP2 PUSH1 0x20 ADD SWAP2 PUSH2 0xA6D JUMP JUMPDEST DUP3 ADD SWAP2 SWAP1 PUSH1 0x0 MSTORE PUSH1 0x20 PUSH1 0x0 KECCAK256 SWAP1 JUMPDEST DUP2 SLOAD DUP2 MSTORE SWAP1 PUSH1 0x1 ADD SWAP1 PUSH1 0x20 ADD DUP1 DUP4 GT PUSH2 0xA50 JUMPI DUP3 SWAP1 SUB PUSH1 0x1F AND DUP3 ADD SWAP2 JUMPDEST POP POP POP POP POP DUP2 JUMP JUMPDEST PUSH1 0x0 PUSH1 0x1 PUSH1 0x1 PUSH1 0xA0 SHL SUB DUP3 AND PUSH2 0xA9D JUMPI PUSH1 0x40 MLOAD PUSH3 0x461BCD PUSH1 0xE5 SHL DUP2 MSTORE PUSH1 0x4 ADD PUSH2 0x76B SWAP1 PUSH2 0x203F JUMP JUMPDEST POP PUSH1 0x1 PUSH1 0x1 PUSH1 0xA0 SHL SUB AND PUSH1 0x0 SWAP1 DUP2 MSTORE PUSH1 0x4 PUSH1 0x20 MSTORE PUSH1 0x40 SWAP1 KECCAK256 SLOAD SWAP1 JUMP JUMPDEST PUSH2 0xAC1 PUSH2 0x136C JUMP JUMPDEST PUSH1 0x1 PUSH1 0x1 PUSH1 0xA0 SHL SUB AND PUSH2 0xAD2 PUSH2 0xC41 JUMP JUMPDEST PUSH1 0x1 PUSH1 0x1 PUSH1 0xA0 SHL SUB AND EQ PUSH2 0xAF8 JUMPI PUSH1 0x40 MLOAD PUSH3 0x461BCD PUSH1 0xE5 SHL DUP2 MSTORE PUSH1 0x4 ADD PUSH2 0x76B SWAP1 PUSH2 0x21CD JUMP JUMPDEST PUSH2 0xB02 PUSH1 0x0 PUSH2 0x1590 JUMP JUMPDEST JUMP JUMPDEST PUSH2 0xB0C PUSH2 0x136C JUMP JUMPDEST PUSH1 0x1 PUSH1 0x1 PUSH1 0xA0 SHL SUB AND PUSH2 0xB1D PUSH2 0xC41 JUMP JUMPDEST PUSH1 0x1 PUSH1 0x1 PUSH1 0xA0 SHL SUB AND EQ PUSH2 0xB43 JUMPI PUSH1 0x40 MLOAD PUSH3 0x461BCD PUSH1 0xE5 SHL DUP2 MSTORE PUSH1 0x4 ADD PUSH2 0x76B SWAP1 PUSH2 0x21CD JUMP JUMPDEST PUSH1 0x0 DUP2 MLOAD GT PUSH2 0xB64 JUMPI PUSH1 0x40 MLOAD PUSH3 0x461BCD PUSH1 0xE5 SHL DUP2 MSTORE PUSH1 0x4 ADD PUSH2 0x76B SWAP1 PUSH2 0x235B JUMP JUMPDEST PUSH1 0xD SLOAD DUP2 MLOAD GT ISZERO PUSH2 0xB87 JUMPI PUSH1 0x40 MLOAD PUSH3 0x461BCD PUSH1 0xE5 SHL DUP2 MSTORE PUSH1 0x4 ADD PUSH2 0x76B SWAP1 PUSH2 0x2392 JUMP JUMPDEST PUSH2 0x2710 DUP2 MLOAD PUSH1 0x9 SLOAD PUSH2 0xB99 SWAP2 SWAP1 PUSH2 0x24CB JUMP JUMPDEST GT ISZERO PUSH2 0xBB7 JUMPI PUSH1 0x40 MLOAD PUSH3 0x461BCD PUSH1 0xE5 SHL DUP2 MSTORE PUSH1 0x4 ADD PUSH2 0x76B SWAP1 PUSH2 0x23F9 JUMP JUMPDEST PUSH1 0x0 JUMPDEST DUP2 MLOAD DUP2 LT ISZERO PUSH2 0xC1F JUMPI PUSH2 0xC0D DUP3 DUP3 DUP2 MLOAD DUP2 LT PUSH2 0xBE6 JUMPI PUSH4 0x4E487B71 PUSH1 0xE0 SHL PUSH1 0x0 MSTORE PUSH1 0x32 PUSH1 0x4 MSTORE PUSH1 0x24 PUSH1 0x0 REVERT JUMPDEST PUSH1 0x20 MUL PUSH1 0x20 ADD ADD MLOAD DUP3 PUSH1 0x9 SLOAD PUSH1 0x1 PUSH2 0xBFE SWAP2 SWAP1 PUSH2 0x24CB JUMP JUMPDEST PUSH2 0xC08 SWAP2 SWAP1 PUSH2 0x24CB JUMP JUMPDEST PUSH2 0x15E0 JUMP JUMPDEST DUP1 PUSH2 0xC17 DUP2 PUSH2 0x2594 JUMP JUMPDEST SWAP2 POP POP PUSH2 0xBBA JUMP JUMPDEST POP DUP1 MLOAD PUSH1 0x9 PUSH1 0x0 DUP3 DUP3 SLOAD PUSH2 0xC33 SWAP2 SWAP1 PUSH2 0x24CB JUMP JUMPDEST SWAP1 SWAP2 SSTORE POP POP POP JUMP JUMPDEST PUSH1 0x7 SLOAD DUP2 JUMP JUMPDEST PUSH1 0x0 SLOAD PUSH1 0x1 PUSH1 0x1 PUSH1 0xA0 SHL SUB AND SWAP1 JUMP JUMPDEST PUSH1 0x60 PUSH1 0x2 DUP1 SLOAD PUSH2 0x6C1 SWAP1 PUSH2 0x2559 JUMP JUMPDEST PUSH1 0xA SLOAD PUSH2 0x100 SWAP1 DIV PUSH1 0xFF AND DUP2 JUMP JUMPDEST PUSH1 0x8 SLOAD DUP2 JUMP JUMPDEST PUSH1 0xA SLOAD PUSH1 0x0 SWAP1 PUSH1 0xFF AND ISZERO ISZERO PUSH1 0x1 EQ PUSH2 0xC9D JUMPI PUSH1 0x40 MLOAD PUSH3 0x461BCD PUSH1 0xE5 SHL DUP2 MSTORE PUSH1 0x4 ADD PUSH2 0x76B SWAP1 PUSH2 0x2202 JUMP JUMPDEST POP PUSH1 0x1 SWAP1 JUMP JUMPDEST PUSH2 0xCAB PUSH2 0x136C JUMP JUMPDEST PUSH1 0x1 PUSH1 0x1 PUSH1 0xA0 SHL SUB AND PUSH2 0xCBC PUSH2 0xC41 JUMP JUMPDEST PUSH1 0x1 PUSH1 0x1 PUSH1 0xA0 SHL SUB AND EQ PUSH2 0xCE2 JUMPI PUSH1 0x40 MLOAD PUSH3 0x461BCD PUSH1 0xE5 SHL DUP2 MSTORE PUSH1 0x4 ADD PUSH2 0x76B SWAP1 PUSH2 0x21CD JUMP JUMPDEST DUP1 MLOAD PUSH2 0xCF5 SWAP1 PUSH1 0xC SWAP1 PUSH1 0x20 DUP5 ADD SWAP1 PUSH2 0x198A JUMP JUMPDEST POP POP JUMP JUMPDEST PUSH2 0xD01 PUSH2 0x136C JUMP JUMPDEST PUSH1 0x1 PUSH1 0x1 PUSH1 0xA0 SHL SUB AND DUP3 PUSH1 0x1 PUSH1 0x1 PUSH1 0xA0 SHL SUB AND EQ ISZERO PUSH2 0xD32 JUMPI PUSH1 0x40 MLOAD PUSH3 0x461BCD PUSH1 0xE5 SHL DUP2 MSTORE PUSH1 0x4 ADD PUSH2 0x76B SWAP1 PUSH2 0x1F2F JUMP JUMPDEST DUP1 PUSH1 0x6 PUSH1 0x0 PUSH2 0xD3F PUSH2 0x136C JUMP JUMPDEST PUSH1 0x1 PUSH1 0x1 PUSH1 0xA0 SHL SUB SWAP1 DUP2 AND DUP3 MSTORE PUSH1 0x20 DUP1 DUP4 ADD SWAP4 SWAP1 SWAP4 MSTORE PUSH1 0x40 SWAP2 DUP3 ADD PUSH1 0x0 SWAP1 DUP2 KECCAK256 SWAP2 DUP8 AND DUP1 DUP3 MSTORE SWAP2 SWAP1 SWAP4 MSTORE SWAP2 KECCAK256 DUP1 SLOAD PUSH1 0xFF NOT AND SWAP3 ISZERO ISZERO SWAP3 SWAP1 SWAP3 OR SWAP1 SWAP2 SSTORE PUSH2 0xD83 PUSH2 0x136C JUMP JUMPDEST PUSH1 0x1 PUSH1 0x1 PUSH1 0xA0 SHL SUB AND PUSH32 0x17307EAB39AB6107E8899845AD3D59BD9653F200F220920489CA2B5937696C31 DUP4 PUSH1 0x40 MLOAD PUSH2 0xDBB SWAP2 SWAP1 PUSH2 0x1DFE JUMP JUMPDEST PUSH1 0x40 MLOAD DUP1 SWAP2 SUB SWAP1 LOG3 POP POP JUMP JUMPDEST PUSH2 0xDD8 PUSH2 0xDD2 PUSH2 0x136C JUMP JUMPDEST DUP4 PUSH2 0x13DE JUMP JUMPDEST PUSH2 0xDF4 JUMPI PUSH1 0x40 MLOAD PUSH3 0x461BCD PUSH1 0xE5 SHL DUP2 MSTORE PUSH1 0x4 ADD PUSH2 0x76B SWAP1 PUSH2 0x230A JUMP JUMPDEST PUSH2 0xE00 DUP5 DUP5 DUP5 DUP5 PUSH2 0x15FA JUMP JUMPDEST POP POP POP POP JUMP JUMPDEST PUSH1 0xA SLOAD PUSH1 0xFF AND DUP2 JUMP JUMPDEST PUSH1 0xA SLOAD PUSH1 0xFF AND ISZERO ISZERO PUSH1 0x1 EQ PUSH2 0xE36 JUMPI PUSH1 0x40 MLOAD PUSH3 0x461BCD PUSH1 0xE5 SHL DUP2 MSTORE PUSH1 0x4 ADD PUSH2 0x76B SWAP1 PUSH2 0x246F JUMP JUMPDEST PUSH2 0xE3E PUSH2 0x69C JUMP JUMPDEST ISZERO ISZERO PUSH1 0x1 EQ PUSH2 0xE5F JUMPI PUSH1 0x40 MLOAD PUSH3 0x461BCD PUSH1 0xE5 SHL DUP2 MSTORE PUSH1 0x4 ADD PUSH2 0x76B SWAP1 PUSH2 0x23C2 JUMP JUMPDEST PUSH1 0x0 DUP2 GT PUSH2 0xE7F JUMPI PUSH1 0x40 MLOAD PUSH3 0x461BCD PUSH1 0xE5 SHL DUP2 MSTORE PUSH1 0x4 ADD PUSH2 0x76B SWAP1 PUSH2 0x235B JUMP JUMPDEST PUSH1 0xD SLOAD DUP2 GT ISZERO PUSH2 0xEA1 JUMPI PUSH1 0x40 MLOAD PUSH3 0x461BCD PUSH1 0xE5 SHL DUP2 MSTORE PUSH1 0x4 ADD PUSH2 0x76B SWAP1 PUSH2 0x2392 JUMP JUMPDEST PUSH2 0x2710 DUP2 PUSH1 0x9 SLOAD PUSH2 0xEB2 SWAP2 SWAP1 PUSH2 0x24CB JUMP JUMPDEST GT ISZERO PUSH2 0xED0 JUMPI PUSH1 0x40 MLOAD PUSH3 0x461BCD PUSH1 0xE5 SHL DUP2 MSTORE PUSH1 0x4 ADD PUSH2 0x76B SWAP1 PUSH2 0x211C JUMP JUMPDEST PUSH1 0x8 SLOAD CALLVALUE LT ISZERO PUSH2 0xEF2 JUMPI PUSH1 0x40 MLOAD PUSH3 0x461BCD PUSH1 0xE5 SHL DUP2 MSTORE PUSH1 0x4 ADD PUSH2 0x76B SWAP1 PUSH2 0x1FB2 JUMP JUMPDEST PUSH1 0xE SLOAD DUP2 PUSH2 0xEFF CALLER PUSH2 0xA75 JUMP JUMPDEST PUSH2 0xF09 SWAP2 SWAP1 PUSH2 0x24CB JUMP JUMPDEST GT ISZERO PUSH2 0xF27 JUMPI PUSH1 0x40 MLOAD PUSH3 0x461BCD PUSH1 0xE5 SHL DUP2 MSTORE PUSH1 0x4 ADD PUSH2 0x76B SWAP1 PUSH2 0x2429 JUMP JUMPDEST PUSH1 0x0 JUMPDEST DUP2 DUP2 LT ISZERO PUSH2 0xF58 JUMPI PUSH2 0xF46 CALLER DUP3 PUSH1 0x9 SLOAD PUSH1 0x1 PUSH2 0xBFE SWAP2 SWAP1 PUSH2 0x24CB JUMP JUMPDEST DUP1 PUSH2 0xF50 DUP2 PUSH2 0x2594 JUMP JUMPDEST SWAP2 POP POP PUSH2 0xF2A JUMP JUMPDEST POP DUP1 PUSH1 0x9 PUSH1 0x0 DUP3 DUP3 SLOAD PUSH2 0xC33 SWAP2 SWAP1 PUSH2 0x24CB JUMP JUMPDEST PUSH1 0x60 PUSH2 0xF76 DUP3 PUSH2 0x134F JUMP JUMPDEST PUSH2 0xF92 JUMPI PUSH1 0x40 MLOAD PUSH3 0x461BCD PUSH1 0xE5 SHL DUP2 MSTORE PUSH1 0x4 ADD PUSH2 0x76B SWAP1 PUSH2 0x227A JUMP JUMPDEST PUSH1 0x0 PUSH2 0xF9C PUSH2 0x162D JUMP JUMPDEST SWAP1 POP PUSH1 0x0 DUP2 MLOAD GT PUSH2 0xFBC JUMPI PUSH1 0x40 MLOAD DUP1 PUSH1 0x20 ADD PUSH1 0x40 MSTORE DUP1 PUSH1 0x0 DUP2 MSTORE POP PUSH2 0xFE7 JUMP JUMPDEST DUP1 PUSH2 0xFC6 DUP5 PUSH2 0x163C JUMP JUMPDEST PUSH1 0x40 MLOAD PUSH1 0x20 ADD PUSH2 0xFD7 SWAP3 SWAP2 SWAP1 PUSH2 0x1D7E JUMP JUMPDEST PUSH1 0x40 MLOAD PUSH1 0x20 DUP2 DUP4 SUB SUB DUP2 MSTORE SWAP1 PUSH1 0x40 MSTORE JUMPDEST SWAP4 SWAP3 POP POP POP JUMP JUMPDEST PUSH1 0xA SLOAD PUSH1 0x0 SWAP1 PUSH1 0xFF PUSH2 0x100 SWAP1 SWAP2 DIV AND ISZERO ISZERO PUSH1 0x1 EQ PUSH2 0xC9D JUMPI PUSH1 0x40 MLOAD PUSH3 0x461BCD PUSH1 0xE5 SHL DUP2 MSTORE PUSH1 0x4 ADD PUSH2 0x76B SWAP1 PUSH2 0x2202 JUMP JUMPDEST PUSH1 0xA SLOAD PUSH1 0xFF PUSH2 0x100 SWAP1 SWAP2 DIV AND ISZERO ISZERO PUSH1 0x1 EQ PUSH2 0x104B JUMPI PUSH1 0x40 MLOAD PUSH3 0x461BCD PUSH1 0xE5 SHL DUP2 MSTORE PUSH1 0x4 ADD PUSH2 0x76B SWAP1 PUSH2 0x246F JUMP JUMPDEST PUSH1 0x0 DUP2 GT PUSH2 0x106B JUMPI PUSH1 0x40 MLOAD PUSH3 0x461BCD PUSH1 0xE5 SHL DUP2 MSTORE PUSH1 0x4 ADD PUSH2 0x76B SWAP1 PUSH2 0x235B JUMP JUMPDEST PUSH1 0xD SLOAD DUP2 GT ISZERO PUSH2 0x108D JUMPI PUSH1 0x40 MLOAD PUSH3 0x461BCD PUSH1 0xE5 SHL DUP2 MSTORE PUSH1 0x4 ADD PUSH2 0x76B SWAP1 PUSH2 0x2392 JUMP JUMPDEST PUSH2 0x2710 DUP2 PUSH1 0x9 SLOAD PUSH2 0x109E SWAP2 SWAP1 PUSH2 0x24CB JUMP JUMPDEST GT ISZERO PUSH2 0x10BC JUMPI PUSH1 0x40 MLOAD PUSH3 0x461BCD PUSH1 0xE5 SHL DUP2 MSTORE PUSH1 0x4 ADD PUSH2 0x76B SWAP1 PUSH2 0x211C JUMP JUMPDEST DUP1 PUSH1 0x7 SLOAD PUSH2 0x10CA SWAP2 SWAP1 PUSH2 0x24F7 JUMP JUMPDEST CALLVALUE LT ISZERO PUSH2 0x10E9 JUMPI PUSH1 0x40 MLOAD PUSH3 0x461BCD PUSH1 0xE5 SHL DUP2 MSTORE PUSH1 0x4 ADD PUSH2 0x76B SWAP1 PUSH2 0x1FB2 JUMP JUMPDEST PUSH1 0xF SLOAD DUP2 PUSH2 0x10F6 CALLER PUSH2 0xA75 JUMP JUMPDEST PUSH2 0x1100 SWAP2 SWAP1 PUSH2 0x24CB JUMP JUMPDEST GT ISZERO PUSH2 0x111E JUMPI PUSH1 0x40 MLOAD PUSH3 0x461BCD PUSH1 0xE5 SHL DUP2 MSTORE PUSH1 0x4 ADD PUSH2 0x76B SWAP1 PUSH2 0x20D2 JUMP JUMPDEST PUSH1 0x0 JUMPDEST DUP2 DUP2 LT ISZERO PUSH2 0xF58 JUMPI PUSH2 0x113D CALLER DUP3 PUSH1 0x9 SLOAD PUSH1 0x1 PUSH2 0xBFE SWAP2 SWAP1 PUSH2 0x24CB JUMP JUMPDEST DUP1 PUSH2 0x1147 DUP2 PUSH2 0x2594 JUMP JUMPDEST SWAP2 POP POP PUSH2 0x1121 JUMP JUMPDEST PUSH2 0x1157 PUSH2 0x136C JUMP JUMPDEST PUSH1 0x1 PUSH1 0x1 PUSH1 0xA0 SHL SUB AND PUSH2 0x1168 PUSH2 0xC41 JUMP JUMPDEST PUSH1 0x1 PUSH1 0x1 PUSH1 0xA0 SHL SUB AND EQ PUSH2 0x118E JUMPI PUSH1 0x40 MLOAD PUSH3 0x461BCD PUSH1 0xE5 SHL DUP2 MSTORE PUSH1 0x4 ADD PUSH2 0x76B SWAP1 PUSH2 0x21CD JUMP JUMPDEST PUSH1 0x7 SSTORE JUMP JUMPDEST PUSH1 0x1 PUSH1 0x1 PUSH1 0xA0 SHL SUB SWAP2 DUP3 AND PUSH1 0x0 SWAP1 DUP2 MSTORE PUSH1 0x6 PUSH1 0x20 SWAP1 DUP2 MSTORE PUSH1 0x40 DUP1 DUP4 KECCAK256 SWAP4 SWAP1 SWAP5 AND DUP3 MSTORE SWAP2 SWAP1 SWAP2 MSTORE KECCAK256 SLOAD PUSH1 0xFF AND SWAP1 JUMP JUMPDEST PUSH2 0x11C9 PUSH2 0x136C JUMP JUMPDEST PUSH1 0x1 PUSH1 0x1 PUSH1 0xA0 SHL SUB AND PUSH2 0x11DA PUSH2 0xC41 JUMP JUMPDEST PUSH1 0x1 PUSH1 0x1 PUSH1 0xA0 SHL SUB AND EQ PUSH2 0x1200 JUMPI PUSH1 0x40 MLOAD PUSH3 0x461BCD PUSH1 0xE5 SHL DUP2 MSTORE PUSH1 0x4 ADD PUSH2 0x76B SWAP1 PUSH2 0x21CD JUMP JUMPDEST PUSH1 0x0 JUMPDEST DUP2 MLOAD DUP2 LT ISZERO PUSH2 0xCF5 JUMPI PUSH1 0x1 PUSH1 0xB PUSH1 0x0 DUP5 DUP5 DUP2 MLOAD DUP2 LT PUSH2 0x1232 JUMPI PUSH4 0x4E487B71 PUSH1 0xE0 SHL PUSH1 0x0 MSTORE PUSH1 0x32 PUSH1 0x4 MSTORE PUSH1 0x24 PUSH1 0x0 REVERT JUMPDEST PUSH1 0x20 SWAP1 DUP2 MUL SWAP2 SWAP1 SWAP2 ADD DUP2 ADD MLOAD PUSH1 0x1 PUSH1 0x1 PUSH1 0xA0 SHL SUB AND DUP3 MSTORE DUP2 ADD SWAP2 SWAP1 SWAP2 MSTORE PUSH1 0x40 ADD PUSH1 0x0 KECCAK256 DUP1 SLOAD PUSH1 0xFF NOT AND SWAP2 ISZERO ISZERO SWAP2 SWAP1 SWAP2 OR SWAP1 SSTORE DUP1 PUSH2 0x126E DUP2 PUSH2 0x2594 JUMP JUMPDEST SWAP2 POP POP PUSH2 0x1203 JUMP JUMPDEST PUSH2 0x127E PUSH2 0x136C JUMP JUMPDEST PUSH1 0x1 PUSH1 0x1 PUSH1 0xA0 SHL SUB AND PUSH2 0x128F PUSH2 0xC41 JUMP JUMPDEST PUSH1 0x1 PUSH1 0x1 PUSH1 0xA0 SHL SUB AND EQ PUSH2 0x12B5 JUMPI PUSH1 0x40 MLOAD PUSH3 0x461BCD PUSH1 0xE5 SHL DUP2 MSTORE PUSH1 0x4 ADD PUSH2 0x76B SWAP1 PUSH2 0x21CD JUMP JUMPDEST PUSH1 0xA DUP1 SLOAD PUSH1 0xFF NOT AND SWAP2 ISZERO ISZERO SWAP2 SWAP1 SWAP2 OR SWAP1 SSTORE JUMP JUMPDEST PUSH2 0x12D0 PUSH2 0x136C JUMP JUMPDEST PUSH1 0x1 PUSH1 0x1 PUSH1 0xA0 SHL SUB AND PUSH2 0x12E1 PUSH2 0xC41 JUMP JUMPDEST PUSH1 0x1 PUSH1 0x1 PUSH1 0xA0 SHL SUB AND EQ PUSH2 0x1307 JUMPI PUSH1 0x40 MLOAD PUSH3 0x461BCD PUSH1 0xE5 SHL DUP2 MSTORE PUSH1 0x4 ADD PUSH2 0x76B SWAP1 PUSH2 0x21CD JUMP JUMPDEST PUSH1 0x1 PUSH1 0x1 PUSH1 0xA0 SHL SUB DUP2 AND PUSH2 0x132D JUMPI PUSH1 0x40 MLOAD PUSH3 0x461BCD PUSH1 0xE5 SHL DUP2 MSTORE PUSH1 0x4 ADD PUSH2 0x76B SWAP1 PUSH2 0x1E6E JUMP JUMPDEST PUSH2 0x944 DUP2 PUSH2 0x1590 JUMP JUMPDEST PUSH1 0x1 PUSH1 0x1 PUSH1 0xE0 SHL SUB NOT DUP2 AND PUSH4 0x1FFC9A7 PUSH1 0xE0 SHL EQ SWAP2 SWAP1 POP JUMP JUMPDEST PUSH1 0x0 SWAP1 DUP2 MSTORE PUSH1 0x3 PUSH1 0x20 MSTORE PUSH1 0x40 SWAP1 KECCAK256 SLOAD PUSH1 0x1 PUSH1 0x1 PUSH1 0xA0 SHL SUB AND ISZERO ISZERO SWAP1 JUMP JUMPDEST CALLER SWAP1 JUMP JUMPDEST PUSH1 0x0 DUP2 DUP2 MSTORE PUSH1 0x5 PUSH1 0x20 MSTORE PUSH1 0x40 SWAP1 KECCAK256 DUP1 SLOAD PUSH1 0x1 PUSH1 0x1 PUSH1 0xA0 SHL SUB NOT AND PUSH1 0x1 PUSH1 0x1 PUSH1 0xA0 SHL SUB DUP5 AND SWAP1 DUP2 OR SWAP1 SWAP2 SSTORE DUP2 SWAP1 PUSH2 0x13A5 DUP3 PUSH2 0x96E JUMP JUMPDEST PUSH1 0x1 PUSH1 0x1 PUSH1 0xA0 SHL SUB AND PUSH32 0x8C5BE1E5EBEC7D5BD14F71427D1E84F3DD0314C0F7B2291E5B200AC8C7C3B925 PUSH1 0x40 MLOAD PUSH1 0x40 MLOAD DUP1 SWAP2 SUB SWAP1 LOG4 POP POP JUMP JUMPDEST PUSH1 0x0 PUSH2 0x13E9 DUP3 PUSH2 0x134F JUMP JUMPDEST PUSH2 0x1405 JUMPI PUSH1 0x40 MLOAD PUSH3 0x461BCD PUSH1 0xE5 SHL DUP2 MSTORE PUSH1 0x4 ADD PUSH2 0x76B SWAP1 PUSH2 0x1F66 JUMP JUMPDEST PUSH1 0x0 PUSH2 0x1410 DUP4 PUSH2 0x96E JUMP JUMPDEST SWAP1 POP DUP1 PUSH1 0x1 PUSH1 0x1 PUSH1 0xA0 SHL SUB AND DUP5 PUSH1 0x1 PUSH1 0x1 PUSH1 0xA0 SHL SUB AND EQ DUP1 PUSH2 0x144B JUMPI POP DUP4 PUSH1 0x1 PUSH1 0x1 PUSH1 0xA0 SHL SUB AND PUSH2 0x1440 DUP5 PUSH2 0x744 JUMP JUMPDEST PUSH1 0x1 PUSH1 0x1 PUSH1 0xA0 SHL SUB AND EQ JUMPDEST DUP1 PUSH2 0x145B JUMPI POP PUSH2 0x145B DUP2 DUP6 PUSH2 0x1193 JUMP JUMPDEST SWAP5 SWAP4 POP POP POP POP JUMP JUMPDEST DUP3 PUSH1 0x1 PUSH1 0x1 PUSH1 0xA0 SHL SUB AND PUSH2 0x1476 DUP3 PUSH2 0x96E JUMP JUMPDEST PUSH1 0x1 PUSH1 0x1 PUSH1 0xA0 SHL SUB AND EQ PUSH2 0x149C JUMPI PUSH1 0x40 MLOAD PUSH3 0x461BCD PUSH1 0xE5 SHL DUP2 MSTORE PUSH1 0x4 ADD PUSH2 0x76B SWAP1 PUSH2 0x2231 JUMP JUMPDEST PUSH1 0x1 PUSH1 0x1 PUSH1 0xA0 SHL SUB DUP3 AND PUSH2 0x14C2 JUMPI PUSH1 0x40 MLOAD PUSH3 0x461BCD PUSH1 0xE5 SHL DUP2 MSTORE PUSH1 0x4 ADD PUSH2 0x76B SWAP1 PUSH2 0x1EEB JUMP JUMPDEST PUSH2 0x14CD DUP4 DUP4 DUP4 PUSH2 0x823 JUMP JUMPDEST PUSH2 0x14D8 PUSH1 0x0 DUP3 PUSH2 0x1370 JUMP JUMPDEST PUSH1 0x1 PUSH1 0x1 PUSH1 0xA0 SHL SUB DUP4 AND PUSH1 0x0 SWAP1 DUP2 MSTORE PUSH1 0x4 PUSH1 0x20 MSTORE PUSH1 0x40 DUP2 KECCAK256 DUP1 SLOAD PUSH1 0x1 SWAP3 SWAP1 PUSH2 0x1501 SWAP1 DUP5 SWAP1 PUSH2 0x2516 JUMP JUMPDEST SWAP1 SWAP2 SSTORE POP POP PUSH1 0x1 PUSH1 0x1 PUSH1 0xA0 SHL SUB DUP3 AND PUSH1 0x0 SWAP1 DUP2 MSTORE PUSH1 0x4 PUSH1 0x20 MSTORE PUSH1 0x40 DUP2 KECCAK256 DUP1 SLOAD PUSH1 0x1 SWAP3 SWAP1 PUSH2 0x152F SWAP1 DUP5 SWAP1 PUSH2 0x24CB JUMP JUMPDEST SWAP1 SWAP2 SSTORE POP POP PUSH1 0x0 DUP2 DUP2 MSTORE PUSH1 0x3 PUSH1 0x20 MSTORE PUSH1 0x40 DUP1 DUP3 KECCAK256 DUP1 SLOAD PUSH1 0x1 PUSH1 0x1 PUSH1 0xA0 SHL SUB NOT AND PUSH1 0x1 PUSH1 0x1 PUSH1 0xA0 SHL SUB DUP7 DUP2 AND SWAP2 DUP3 OR SWAP1 SWAP3 SSTORE SWAP2 MLOAD DUP5 SWAP4 SWAP2 DUP8 AND SWAP2 PUSH32 0xDDF252AD1BE2C89B69C2B068FC378DAA952BA7F163C4A11628F55A4DF523B3EF SWAP2 LOG4 POP POP POP JUMP JUMPDEST PUSH1 0x0 DUP1 SLOAD PUSH1 0x1 PUSH1 0x1 PUSH1 0xA0 SHL SUB DUP4 DUP2 AND PUSH1 0x1 PUSH1 0x1 PUSH1 0xA0 SHL SUB NOT DUP4 AND DUP2 OR DUP5 SSTORE PUSH1 0x40 MLOAD SWAP2 SWAP1 SWAP3 AND SWAP3 DUP4 SWAP2 PUSH32 0x8BE0079C531659141344CD1FD0A4F28419497F9722A3DAAFE3B4186F6B6457E0 SWAP2 SWAP1 LOG3 POP POP JUMP JUMPDEST PUSH2 0xCF5 DUP3 DUP3 PUSH1 0x40 MLOAD DUP1 PUSH1 0x20 ADD PUSH1 0x40 MSTORE DUP1 PUSH1 0x0 DUP2 MSTORE POP PUSH2 0x1757 JUMP JUMPDEST PUSH2 0x1605 DUP5 DUP5 DUP5 PUSH2 0x1463 JUMP JUMPDEST PUSH2 0x1611 DUP5 DUP5 DUP5 DUP5 PUSH2 0x178A JUMP JUMPDEST PUSH2 0xE00 JUMPI PUSH1 0x40 MLOAD PUSH3 0x461BCD PUSH1 0xE5 SHL DUP2 MSTORE PUSH1 0x4 ADD PUSH2 0x76B SWAP1 PUSH2 0x1E1C JUMP JUMPDEST PUSH1 0x60 PUSH1 0xC DUP1 SLOAD PUSH2 0x6C1 SWAP1 PUSH2 0x2559 JUMP JUMPDEST PUSH1 0x60 DUP2 PUSH2 0x1661 JUMPI POP PUSH1 0x40 DUP1 MLOAD DUP1 DUP3 ADD SWAP1 SWAP2 MSTORE PUSH1 0x1 DUP2 MSTORE PUSH1 0x3 PUSH1 0xFC SHL PUSH1 0x20 DUP3 ADD MSTORE PUSH2 0x697 JUMP JUMPDEST DUP2 PUSH1 0x0 JUMPDEST DUP2 ISZERO PUSH2 0x168B JUMPI DUP1 PUSH2 0x1675 DUP2 PUSH2 0x2594 JUMP JUMPDEST SWAP2 POP PUSH2 0x1684 SWAP1 POP PUSH1 0xA DUP4 PUSH2 0x24E3 JUMP JUMPDEST SWAP2 POP PUSH2 0x1665 JUMP JUMPDEST PUSH1 0x0 DUP2 PUSH8 0xFFFFFFFFFFFFFFFF DUP2 GT ISZERO PUSH2 0x16B4 JUMPI PUSH4 0x4E487B71 PUSH1 0xE0 SHL PUSH1 0x0 MSTORE PUSH1 0x41 PUSH1 0x4 MSTORE PUSH1 0x24 PUSH1 0x0 REVERT JUMPDEST PUSH1 0x40 MLOAD SWAP1 DUP1 DUP3 MSTORE DUP1 PUSH1 0x1F ADD PUSH1 0x1F NOT AND PUSH1 0x20 ADD DUP3 ADD PUSH1 0x40 MSTORE DUP1 ISZERO PUSH2 0x16DE JUMPI PUSH1 0x20 DUP3 ADD DUP2 DUP1 CALLDATASIZE DUP4 CALLDATACOPY ADD SWAP1 POP JUMPDEST POP SWAP1 POP JUMPDEST DUP5 ISZERO PUSH2 0x145B JUMPI PUSH2 0x16F3 PUSH1 0x1 DUP4 PUSH2 0x2516 JUMP JUMPDEST SWAP2 POP PUSH2 0x1700 PUSH1 0xA DUP7 PUSH2 0x25AF JUMP JUMPDEST PUSH2 0x170B SWAP1 PUSH1 0x30 PUSH2 0x24CB JUMP JUMPDEST PUSH1 0xF8 SHL DUP2 DUP4 DUP2 MLOAD DUP2 LT PUSH2 0x172E JUMPI PUSH4 0x4E487B71 PUSH1 0xE0 SHL PUSH1 0x0 MSTORE PUSH1 0x32 PUSH1 0x4 MSTORE PUSH1 0x24 PUSH1 0x0 REVERT JUMPDEST PUSH1 0x20 ADD ADD SWAP1 PUSH1 0x1 PUSH1 0x1 PUSH1 0xF8 SHL SUB NOT AND SWAP1 DUP2 PUSH1 0x0 BYTE SWAP1 MSTORE8 POP PUSH2 0x1750 PUSH1 0xA DUP7 PUSH2 0x24E3 JUMP JUMPDEST SWAP5 POP PUSH2 0x16E2 JUMP JUMPDEST PUSH2 0x1761 DUP4 DUP4 PUSH2 0x18A5 JUMP JUMPDEST PUSH2 0x176E PUSH1 0x0 DUP5 DUP5 DUP5 PUSH2 0x178A JUMP JUMPDEST PUSH2 0x823 JUMPI PUSH1 0x40 MLOAD PUSH3 0x461BCD PUSH1 0xE5 SHL DUP2 MSTORE PUSH1 0x4 ADD PUSH2 0x76B SWAP1 PUSH2 0x1E1C JUMP JUMPDEST PUSH1 0x0 PUSH2 0x179E DUP5 PUSH1 0x1 PUSH1 0x1 PUSH1 0xA0 SHL SUB AND PUSH2 0x1984 JUMP JUMPDEST ISZERO PUSH2 0x189A JUMPI DUP4 PUSH1 0x1 PUSH1 0x1 PUSH1 0xA0 SHL SUB AND PUSH4 0x150B7A02 PUSH2 0x17BA PUSH2 0x136C JUMP JUMPDEST DUP8 DUP7 DUP7 PUSH1 0x40 MLOAD DUP6 PUSH4 0xFFFFFFFF AND PUSH1 0xE0 SHL DUP2 MSTORE PUSH1 0x4 ADD PUSH2 0x17DC SWAP5 SWAP4 SWAP3 SWAP2 SWAP1 PUSH2 0x1DC1 JUMP JUMPDEST PUSH1 0x20 PUSH1 0x40 MLOAD DUP1 DUP4 SUB DUP2 PUSH1 0x0 DUP8 DUP1 EXTCODESIZE ISZERO DUP1 ISZERO PUSH2 0x17F6 JUMPI PUSH1 0x0 DUP1 REVERT JUMPDEST POP GAS CALL SWAP3 POP POP POP DUP1 ISZERO PUSH2 0x1826 JUMPI POP PUSH1 0x40 DUP1 MLOAD PUSH1 0x1F RETURNDATASIZE SWAP1 DUP2 ADD PUSH1 0x1F NOT AND DUP3 ADD SWAP1 SWAP3 MSTORE PUSH2 0x1823 SWAP2 DUP2 ADD SWAP1 PUSH2 0x1CD8 JUMP JUMPDEST PUSH1 0x1 JUMPDEST PUSH2 0x1880 JUMPI RETURNDATASIZE DUP1 DUP1 ISZERO PUSH2 0x1854 JUMPI PUSH1 0x40 MLOAD SWAP2 POP PUSH1 0x1F NOT PUSH1 0x3F RETURNDATASIZE ADD AND DUP3 ADD PUSH1 0x40 MSTORE RETURNDATASIZE DUP3 MSTORE RETURNDATASIZE PUSH1 0x0 PUSH1 0x20 DUP5 ADD RETURNDATACOPY PUSH2 0x1859 JUMP JUMPDEST PUSH1 0x60 SWAP2 POP JUMPDEST POP DUP1 MLOAD PUSH2 0x1878 JUMPI PUSH1 0x40 MLOAD PUSH3 0x461BCD PUSH1 0xE5 SHL DUP2 MSTORE PUSH1 0x4 ADD PUSH2 0x76B SWAP1 PUSH2 0x1E1C JUMP JUMPDEST DUP1 MLOAD DUP2 PUSH1 0x20 ADD REVERT JUMPDEST PUSH1 0x1 PUSH1 0x1 PUSH1 0xE0 SHL SUB NOT AND PUSH4 0xA85BD01 PUSH1 0xE1 SHL EQ SWAP1 POP PUSH2 0x145B JUMP JUMPDEST POP PUSH1 0x1 SWAP5 SWAP4 POP POP POP POP JUMP JUMPDEST PUSH1 0x1 PUSH1 0x1 PUSH1 0xA0 SHL SUB DUP3 AND PUSH2 0x18CB JUMPI PUSH1 0x40 MLOAD PUSH3 0x461BCD PUSH1 0xE5 SHL DUP2 MSTORE PUSH1 0x4 ADD PUSH2 0x76B SWAP1 PUSH2 0x214C JUMP JUMPDEST PUSH2 0x18D4 DUP2 PUSH2 0x134F JUMP JUMPDEST ISZERO PUSH2 0x18F1 JUMPI PUSH1 0x40 MLOAD PUSH3 0x461BCD PUSH1 0xE5 SHL DUP2 MSTORE PUSH1 0x4 ADD PUSH2 0x76B SWAP1 PUSH2 0x1EB4 JUMP JUMPDEST PUSH2 0x18FD PUSH1 0x0 DUP4 DUP4 PUSH2 0x823 JUMP JUMPDEST PUSH1 0x1 PUSH1 0x1 PUSH1 0xA0 SHL SUB DUP3 AND PUSH1 0x0 SWAP1 DUP2 MSTORE PUSH1 0x4 PUSH1 0x20 MSTORE PUSH1 0x40 DUP2 KECCAK256 DUP1 SLOAD PUSH1 0x1 SWAP3 SWAP1 PUSH2 0x1926 SWAP1 DUP5 SWAP1 PUSH2 0x24CB JUMP JUMPDEST SWAP1 SWAP2 SSTORE POP POP PUSH1 0x0 DUP2 DUP2 MSTORE PUSH1 0x3 PUSH1 0x20 MSTORE PUSH1 0x40 DUP1 DUP3 KECCAK256 DUP1 SLOAD PUSH1 0x1 PUSH1 0x1 PUSH1 0xA0 SHL SUB NOT AND PUSH1 0x1 PUSH1 0x1 PUSH1 0xA0 SHL SUB DUP7 AND SWAP1 DUP2 OR SWAP1 SWAP2 SSTORE SWAP1 MLOAD DUP4 SWAP3 SWAP1 PUSH32 0xDDF252AD1BE2C89B69C2B068FC378DAA952BA7F163C4A11628F55A4DF523B3EF SWAP1 DUP3 SWAP1 LOG4 POP POP JUMP JUMPDEST EXTCODESIZE ISZERO ISZERO SWAP1 JUMP JUMPDEST DUP3 DUP1 SLOAD PUSH2 0x1996 SWAP1 PUSH2 0x2559 JUMP JUMPDEST SWAP1 PUSH1 0x0 MSTORE PUSH1 0x20 PUSH1 0x0 KECCAK256 SWAP1 PUSH1 0x1F ADD PUSH1 0x20 SWAP1 DIV DUP2 ADD SWAP3 DUP3 PUSH2 0x19B8 JUMPI PUSH1 0x0 DUP6 SSTORE PUSH2 0x19FE JUMP JUMPDEST DUP3 PUSH1 0x1F LT PUSH2 0x19D1 JUMPI DUP1 MLOAD PUSH1 0xFF NOT AND DUP4 DUP1 ADD OR DUP6 SSTORE PUSH2 0x19FE JUMP JUMPDEST DUP3 DUP1 ADD PUSH1 0x1 ADD DUP6 SSTORE DUP3 ISZERO PUSH2 0x19FE JUMPI SWAP2 DUP3 ADD JUMPDEST DUP3 DUP2 GT ISZERO PUSH2 0x19FE JUMPI DUP3 MLOAD DUP3 SSTORE SWAP2 PUSH1 0x20 ADD SWAP2 SWAP1 PUSH1 0x1 ADD SWAP1 PUSH2 0x19E3 JUMP JUMPDEST POP PUSH2 0x1A0A SWAP3 SWAP2 POP PUSH2 0x1A0E JUMP JUMPDEST POP SWAP1 JUMP JUMPDEST JUMPDEST DUP1 DUP3 GT ISZERO PUSH2 0x1A0A JUMPI PUSH1 0x0 DUP2 SSTORE PUSH1 0x1 ADD PUSH2 0x1A0F JUMP JUMPDEST PUSH1 0x0 PUSH8 0xFFFFFFFFFFFFFFFF DUP4 GT ISZERO PUSH2 0x1A3D JUMPI PUSH2 0x1A3D PUSH2 0x25EF JUMP JUMPDEST PUSH2 0x1A50 PUSH1 0x1F DUP5 ADD PUSH1 0x1F NOT AND PUSH1 0x20 ADD PUSH2 0x24A1 JUMP JUMPDEST SWAP1 POP DUP3 DUP2 MSTORE DUP4 DUP4 DUP4 ADD GT ISZERO PUSH2 0x1A64 JUMPI PUSH1 0x0 DUP1 REVERT JUMPDEST DUP3 DUP3 PUSH1 0x20 DUP4 ADD CALLDATACOPY PUSH1 0x0 PUSH1 0x20 DUP5 DUP4 ADD ADD MSTORE SWAP4 SWAP3 POP POP POP JUMP JUMPDEST DUP1 CALLDATALOAD PUSH1 0x1 PUSH1 0x1 PUSH1 0xA0 SHL SUB DUP2 AND DUP2 EQ PUSH2 0x697 JUMPI PUSH1 0x0 DUP1 REVERT JUMPDEST DUP1 CALLDATALOAD DUP1 ISZERO ISZERO DUP2 EQ PUSH2 0x697 JUMPI PUSH1 0x0 DUP1 REVERT JUMPDEST PUSH1 0x0 PUSH1 0x20 DUP3 DUP5 SUB SLT ISZERO PUSH2 0x1AB3 JUMPI DUP1 DUP2 REVERT JUMPDEST PUSH2 0xFE7 DUP3 PUSH2 0x1A7B JUMP JUMPDEST PUSH1 0x0 DUP1 PUSH1 0x40 DUP4 DUP6 SUB SLT ISZERO PUSH2 0x1ACE JUMPI DUP1 DUP2 REVERT JUMPDEST PUSH2 0x1AD7 DUP4 PUSH2 0x1A7B JUMP JUMPDEST SWAP2 POP PUSH2 0x1AE5 PUSH1 0x20 DUP5 ADD PUSH2 0x1A7B JUMP JUMPDEST SWAP1 POP SWAP3 POP SWAP3 SWAP1 POP JUMP JUMPDEST PUSH1 0x0 DUP1 PUSH1 0x0 PUSH1 0x60 DUP5 DUP7 SUB SLT ISZERO PUSH2 0x1B02 JUMPI DUP1 DUP2 REVERT JUMPDEST PUSH2 0x1B0B DUP5 PUSH2 0x1A7B JUMP JUMPDEST SWAP3 POP PUSH2 0x1B19 PUSH1 0x20 DUP6 ADD PUSH2 0x1A7B JUMP JUMPDEST SWAP2 POP PUSH1 0x40 DUP5 ADD CALLDATALOAD SWAP1 POP SWAP3 POP SWAP3 POP SWAP3 JUMP JUMPDEST PUSH1 0x0 DUP1 PUSH1 0x0 DUP1 PUSH1 0x80 DUP6 DUP8 SUB SLT ISZERO PUSH2 0x1B3E JUMPI DUP1 DUP2 REVERT JUMPDEST PUSH2 0x1B47 DUP6 PUSH2 0x1A7B JUMP JUMPDEST SWAP4 POP PUSH2 0x1B55 PUSH1 0x20 DUP7 ADD PUSH2 0x1A7B JUMP JUMPDEST SWAP3 POP PUSH1 0x40 DUP6 ADD CALLDATALOAD SWAP2 POP PUSH1 0x60 DUP6 ADD CALLDATALOAD PUSH8 0xFFFFFFFFFFFFFFFF DUP2 GT ISZERO PUSH2 0x1B77 JUMPI DUP2 DUP3 REVERT JUMPDEST DUP6 ADD PUSH1 0x1F DUP2 ADD DUP8 SGT PUSH2 0x1B87 JUMPI DUP2 DUP3 REVERT JUMPDEST PUSH2 0x1B96 DUP8 DUP3 CALLDATALOAD PUSH1 0x20 DUP5 ADD PUSH2 0x1A23 JUMP JUMPDEST SWAP2 POP POP SWAP3 SWAP6 SWAP2 SWAP5 POP SWAP3 POP JUMP JUMPDEST PUSH1 0x0 DUP1 PUSH1 0x40 DUP4 DUP6 SUB SLT ISZERO PUSH2 0x1BB4 JUMPI DUP2 DUP3 REVERT JUMPDEST PUSH2 0x1BBD DUP4 PUSH2 0x1A7B JUMP JUMPDEST SWAP2 POP PUSH2 0x1AE5 PUSH1 0x20 DUP5 ADD PUSH2 0x1A92 JUMP JUMPDEST PUSH1 0x0 DUP1 PUSH1 0x40 DUP4 DUP6 SUB SLT ISZERO PUSH2 0x1BDD JUMPI DUP2 DUP3 REVERT JUMPDEST PUSH2 0x1BE6 DUP4 PUSH2 0x1A7B JUMP JUMPDEST SWAP5 PUSH1 0x20 SWAP4 SWAP1 SWAP4 ADD CALLDATALOAD SWAP4 POP POP POP JUMP JUMPDEST PUSH1 0x0 PUSH1 0x20 DUP1 DUP4 DUP6 SUB SLT ISZERO PUSH2 0x1C06 JUMPI DUP2 DUP3 REVERT JUMPDEST DUP3 CALLDATALOAD PUSH8 0xFFFFFFFFFFFFFFFF DUP1 DUP3 GT ISZERO PUSH2 0x1C1D JUMPI DUP4 DUP5 REVERT JUMPDEST DUP2 DUP6 ADD SWAP2 POP DUP6 PUSH1 0x1F DUP4 ADD SLT PUSH2 0x1C30 JUMPI DUP4 DUP5 REVERT JUMPDEST DUP2 CALLDATALOAD DUP2 DUP2 GT ISZERO PUSH2 0x1C42 JUMPI PUSH2 0x1C42 PUSH2 0x25EF JUMP JUMPDEST DUP4 DUP2 MUL SWAP2 POP PUSH2 0x1C52 DUP5 DUP4 ADD PUSH2 0x24A1 JUMP JUMPDEST DUP2 DUP2 MSTORE DUP5 DUP2 ADD SWAP1 DUP5 DUP7 ADD DUP5 DUP7 ADD DUP8 ADD DUP11 LT ISZERO PUSH2 0x1C6C JUMPI DUP8 DUP9 REVERT JUMPDEST DUP8 SWAP6 POP JUMPDEST DUP4 DUP7 LT ISZERO PUSH2 0x1C95 JUMPI PUSH2 0x1C81 DUP2 PUSH2 0x1A7B JUMP JUMPDEST DUP4 MSTORE PUSH1 0x1 SWAP6 SWAP1 SWAP6 ADD SWAP5 SWAP2 DUP7 ADD SWAP2 DUP7 ADD PUSH2 0x1C70 JUMP JUMPDEST POP SWAP9 SWAP8 POP POP POP POP POP POP POP POP JUMP JUMPDEST PUSH1 0x0 PUSH1 0x20 DUP3 DUP5 SUB SLT ISZERO PUSH2 0x1CB3 JUMPI DUP1 DUP2 REVERT JUMPDEST PUSH2 0xFE7 DUP3 PUSH2 0x1A92 JUMP JUMPDEST PUSH1 0x0 PUSH1 0x20 DUP3 DUP5 SUB SLT ISZERO PUSH2 0x1CCD JUMPI DUP1 DUP2 REVERT JUMPDEST DUP2 CALLDATALOAD PUSH2 0xFE7 DUP2 PUSH2 0x2605 JUMP JUMPDEST PUSH1 0x0 PUSH1 0x20 DUP3 DUP5 SUB SLT ISZERO PUSH2 0x1CE9 JUMPI DUP1 DUP2 REVERT JUMPDEST DUP2 MLOAD PUSH2 0xFE7 DUP2 PUSH2 0x2605 JUMP JUMPDEST PUSH1 0x0 PUSH1 0x20 DUP3 DUP5 SUB SLT ISZERO PUSH2 0x1D05 JUMPI DUP1 DUP2 REVERT JUMPDEST DUP2 CALLDATALOAD PUSH8 0xFFFFFFFFFFFFFFFF DUP2 GT ISZERO PUSH2 0x1D1B JUMPI DUP2 DUP3 REVERT JUMPDEST DUP3 ADD PUSH1 0x1F DUP2 ADD DUP5 SGT PUSH2 0x1D2B JUMPI DUP2 DUP3 REVERT JUMPDEST PUSH2 0x145B DUP5 DUP3 CALLDATALOAD PUSH1 0x20 DUP5 ADD PUSH2 0x1A23 JUMP JUMPDEST PUSH1 0x0 PUSH1 0x20 DUP3 DUP5 SUB SLT ISZERO PUSH2 0x1D4B JUMPI DUP1 DUP2 REVERT JUMPDEST POP CALLDATALOAD SWAP2 SWAP1 POP JUMP JUMPDEST PUSH1 0x0 DUP2 MLOAD DUP1 DUP5 MSTORE PUSH2 0x1D6A DUP2 PUSH1 0x20 DUP7 ADD PUSH1 0x20 DUP7 ADD PUSH2 0x252D JUMP JUMPDEST PUSH1 0x1F ADD PUSH1 0x1F NOT AND SWAP3 SWAP1 SWAP3 ADD PUSH1 0x20 ADD SWAP3 SWAP2 POP POP JUMP JUMPDEST PUSH1 0x0 DUP4 MLOAD PUSH2 0x1D90 DUP2 DUP5 PUSH1 0x20 DUP9 ADD PUSH2 0x252D JUMP JUMPDEST DUP4 MLOAD SWAP1 DUP4 ADD SWAP1 PUSH2 0x1DA4 DUP2 DUP4 PUSH1 0x20 DUP9 ADD PUSH2 0x252D JUMP JUMPDEST ADD SWAP5 SWAP4 POP POP POP POP JUMP JUMPDEST PUSH1 0x1 PUSH1 0x1 PUSH1 0xA0 SHL SUB SWAP2 SWAP1 SWAP2 AND DUP2 MSTORE PUSH1 0x20 ADD SWAP1 JUMP JUMPDEST PUSH1 0x1 PUSH1 0x1 PUSH1 0xA0 SHL SUB DUP6 DUP2 AND DUP3 MSTORE DUP5 AND PUSH1 0x20 DUP3 ADD MSTORE PUSH1 0x40 DUP2 ADD DUP4 SWAP1 MSTORE PUSH1 0x80 PUSH1 0x60 DUP3 ADD DUP2 SWAP1 MSTORE PUSH1 0x0 SWAP1 PUSH2 0x1DF4 SWAP1 DUP4 ADD DUP5 PUSH2 0x1D52 JUMP JUMPDEST SWAP7 SWAP6 POP POP POP POP POP POP JUMP JUMPDEST SWAP1 ISZERO ISZERO DUP2 MSTORE PUSH1 0x20 ADD SWAP1 JUMP JUMPDEST PUSH1 0x0 PUSH1 0x20 DUP3 MSTORE PUSH2 0xFE7 PUSH1 0x20 DUP4 ADD DUP5 PUSH2 0x1D52 JUMP JUMPDEST PUSH1 0x20 DUP1 DUP3 MSTORE PUSH1 0x32 SWAP1 DUP3 ADD MSTORE PUSH32 0x4552433732313A207472616E7366657220746F206E6F6E204552433732315265 PUSH1 0x40 DUP3 ADD MSTORE PUSH18 0x31B2B4BB32B91034B6B83632B6B2B73A32B9 PUSH1 0x71 SHL PUSH1 0x60 DUP3 ADD MSTORE PUSH1 0x80 ADD SWAP1 JUMP JUMPDEST PUSH1 0x20 DUP1 DUP3 MSTORE PUSH1 0x26 SWAP1 DUP3 ADD MSTORE PUSH32 0x4F776E61626C653A206E6577206F776E657220697320746865207A65726F2061 PUSH1 0x40 DUP3 ADD MSTORE PUSH6 0x646472657373 PUSH1 0xD0 SHL PUSH1 0x60 DUP3 ADD MSTORE PUSH1 0x80 ADD SWAP1 JUMP JUMPDEST PUSH1 0x20 DUP1 DUP3 MSTORE PUSH1 0x1C SWAP1 DUP3 ADD MSTORE PUSH32 0x4552433732313A20746F6B656E20616C7265616479206D696E74656400000000 PUSH1 0x40 DUP3 ADD MSTORE PUSH1 0x60 ADD SWAP1 JUMP JUMPDEST PUSH1 0x20 DUP1 DUP3 MSTORE PUSH1 0x24 SWAP1 DUP3 ADD MSTORE PUSH32 0x4552433732313A207472616E7366657220746F20746865207A65726F20616464 PUSH1 0x40 DUP3 ADD MSTORE PUSH4 0x72657373 PUSH1 0xE0 SHL PUSH1 0x60 DUP3 ADD MSTORE PUSH1 0x80 ADD SWAP1 JUMP JUMPDEST PUSH1 0x20 DUP1 DUP3 MSTORE PUSH1 0x19 SWAP1 DUP3 ADD MSTORE PUSH32 0x4552433732313A20617070726F766520746F2063616C6C657200000000000000 PUSH1 0x40 DUP3 ADD MSTORE PUSH1 0x60 ADD SWAP1 JUMP JUMPDEST PUSH1 0x20 DUP1 DUP3 MSTORE PUSH1 0x2C SWAP1 DUP3 ADD MSTORE PUSH32 0x4552433732313A206F70657261746F7220717565727920666F72206E6F6E6578 PUSH1 0x40 DUP3 ADD MSTORE PUSH12 0x34B9BA32B73A103A37B5B2B7 PUSH1 0xA1 SHL PUSH1 0x60 DUP3 ADD MSTORE PUSH1 0x80 ADD SWAP1 JUMP JUMPDEST PUSH1 0x20 DUP1 DUP3 MSTORE PUSH1 0x16 SWAP1 DUP3 ADD MSTORE PUSH22 0x1A5B98DBDC9C9958DD08195D1A195C88185B5BDD5B9D PUSH1 0x52 SHL PUSH1 0x40 DUP3 ADD MSTORE PUSH1 0x60 ADD SWAP1 JUMP JUMPDEST PUSH1 0x20 DUP1 DUP3 MSTORE PUSH1 0x38 SWAP1 DUP3 ADD MSTORE PUSH32 0x4552433732313A20617070726F76652063616C6C6572206973206E6F74206F77 PUSH1 0x40 DUP3 ADD MSTORE PUSH32 0x6E6572206E6F7220617070726F76656420666F7220616C6C0000000000000000 PUSH1 0x60 DUP3 ADD MSTORE PUSH1 0x80 ADD SWAP1 JUMP JUMPDEST PUSH1 0x20 DUP1 DUP3 MSTORE PUSH1 0x2A SWAP1 DUP3 ADD MSTORE PUSH32 0x4552433732313A2062616C616E636520717565727920666F7220746865207A65 PUSH1 0x40 DUP3 ADD MSTORE PUSH10 0x726F2061646472657373 PUSH1 0xB0 SHL PUSH1 0x60 DUP3 ADD MSTORE PUSH1 0x80 ADD SWAP1 JUMP JUMPDEST PUSH1 0x20 DUP1 DUP3 MSTORE PUSH1 0x29 SWAP1 DUP3 ADD MSTORE PUSH32 0x4552433732313A206F776E657220717565727920666F72206E6F6E6578697374 PUSH1 0x40 DUP3 ADD MSTORE PUSH9 0x32B73A103A37B5B2B7 PUSH1 0xB9 SHL PUSH1 0x60 DUP3 ADD MSTORE PUSH1 0x80 ADD SWAP1 JUMP JUMPDEST PUSH1 0x20 DUP1 DUP3 MSTORE PUSH1 0x2A SWAP1 DUP3 ADD MSTORE PUSH32 0x313020746F6B656E73207065722077616C6C657420616C6C6F77656420696E20 PUSH1 0x40 DUP3 ADD MSTORE PUSH10 0x7075626C696373616C65 PUSH1 0xB0 SHL PUSH1 0x60 DUP3 ADD MSTORE PUSH1 0x80 ADD SWAP1 JUMP JUMPDEST PUSH1 0x20 DUP1 DUP3 MSTORE PUSH1 0x16 SWAP1 DUP3 ADD MSTORE PUSH22 0x139BDD08195B9BDD59DA081D1BDAD95B9CC81B19599D PUSH1 0x52 SHL PUSH1 0x40 DUP3 ADD MSTORE PUSH1 0x60 ADD SWAP1 JUMP JUMPDEST PUSH1 0x20 DUP1 DUP3 MSTORE DUP2 DUP2 ADD MSTORE PUSH32 0x4552433732313A206D696E7420746F20746865207A65726F2061646472657373 PUSH1 0x40 DUP3 ADD MSTORE PUSH1 0x60 ADD SWAP1 JUMP JUMPDEST PUSH1 0x20 DUP1 DUP3 MSTORE PUSH1 0x2C SWAP1 DUP3 ADD MSTORE PUSH32 0x4552433732313A20617070726F76656420717565727920666F72206E6F6E6578 PUSH1 0x40 DUP3 ADD MSTORE PUSH12 0x34B9BA32B73A103A37B5B2B7 PUSH1 0xA1 SHL PUSH1 0x60 DUP3 ADD MSTORE PUSH1 0x80 ADD SWAP1 JUMP JUMPDEST PUSH1 0x20 DUP1 DUP3 MSTORE DUP2 DUP2 ADD MSTORE PUSH32 0x4F776E61626C653A2063616C6C6572206973206E6F7420746865206F776E6572 PUSH1 0x40 DUP3 ADD MSTORE PUSH1 0x60 ADD SWAP1 JUMP JUMPDEST PUSH1 0x20 DUP1 DUP3 MSTORE PUSH1 0x15 SWAP1 DUP3 ADD MSTORE PUSH21 0x29B0B632903737BA1029BA30B93A32B2102CB2BA17 PUSH1 0x59 SHL PUSH1 0x40 DUP3 ADD MSTORE PUSH1 0x60 ADD SWAP1 JUMP JUMPDEST PUSH1 0x20 DUP1 DUP3 MSTORE PUSH1 0x29 SWAP1 DUP3 ADD MSTORE PUSH32 0x4552433732313A207472616E73666572206F6620746F6B656E20746861742069 PUSH1 0x40 DUP3 ADD MSTORE PUSH9 0x39903737BA1037BBB7 PUSH1 0xB9 SHL PUSH1 0x60 DUP3 ADD MSTORE PUSH1 0x80 ADD SWAP1 JUMP JUMPDEST PUSH1 0x20 DUP1 DUP3 MSTORE PUSH1 0x2F SWAP1 DUP3 ADD MSTORE PUSH32 0x4552433732314D657461646174613A2055524920717565727920666F72206E6F PUSH1 0x40 DUP3 ADD MSTORE PUSH15 0x3732BC34B9BA32B73A103A37B5B2B7 PUSH1 0x89 SHL PUSH1 0x60 DUP3 ADD MSTORE PUSH1 0x80 ADD SWAP1 JUMP JUMPDEST PUSH1 0x20 DUP1 DUP3 MSTORE PUSH1 0x21 SWAP1 DUP3 ADD MSTORE PUSH32 0x4552433732313A20617070726F76616C20746F2063757272656E74206F776E65 PUSH1 0x40 DUP3 ADD MSTORE PUSH1 0x39 PUSH1 0xF9 SHL PUSH1 0x60 DUP3 ADD MSTORE PUSH1 0x80 ADD SWAP1 JUMP JUMPDEST PUSH1 0x20 DUP1 DUP3 MSTORE PUSH1 0x31 SWAP1 DUP3 ADD MSTORE PUSH32 0x4552433732313A207472616E736665722063616C6C6572206973206E6F74206F PUSH1 0x40 DUP3 ADD MSTORE PUSH17 0x1DDB995C881B9BDC88185C1C1C9BDD9959 PUSH1 0x7A SHL PUSH1 0x60 DUP3 ADD MSTORE PUSH1 0x80 ADD SWAP1 JUMP JUMPDEST PUSH1 0x20 DUP1 DUP3 MSTORE PUSH1 0x17 SWAP1 DUP3 ADD MSTORE PUSH32 0x6D696E74206174206C65617374206F6E6520746F6B656E000000000000000000 PUSH1 0x40 DUP3 ADD MSTORE PUSH1 0x60 ADD SWAP1 JUMP JUMPDEST PUSH1 0x20 DUP1 DUP3 MSTORE PUSH1 0x16 SWAP1 DUP3 ADD MSTORE PUSH22 0x6D617820706572207472616E73616374696F6E20323 PUSH1 0x54 SHL PUSH1 0x40 DUP3 ADD MSTORE PUSH1 0x60 ADD SWAP1 JUMP JUMPDEST PUSH1 0x20 DUP1 DUP3 MSTORE PUSH1 0x1C SWAP1 DUP3 ADD MSTORE PUSH32 0x596F7520617265206E6F7420696E2050726573616C65204C6973742E00000000 PUSH1 0x40 DUP3 ADD MSTORE PUSH1 0x60 ADD SWAP1 JUMP JUMPDEST PUSH1 0x20 DUP1 DUP3 MSTORE PUSH1 0x16 SWAP1 DUP3 ADD MSTORE PUSH22 0x1B9BDD08195B9BDD59DA081D1BDAD95B9CC81B19599D PUSH1 0x52 SHL PUSH1 0x40 DUP3 ADD MSTORE PUSH1 0x60 ADD SWAP1 JUMP JUMPDEST PUSH1 0x20 DUP1 DUP3 MSTORE PUSH1 0x26 SWAP1 DUP3 ADD MSTORE PUSH32 0x3520746F6B656E73207065722077616C6C657420616C6C6F77656420696E2070 PUSH1 0x40 DUP3 ADD MSTORE PUSH6 0x726573616C65 PUSH1 0xD0 SHL PUSH1 0x60 DUP3 ADD MSTORE PUSH1 0x80 ADD SWAP1 JUMP JUMPDEST PUSH1 0x20 DUP1 DUP3 MSTORE PUSH1 0xF SWAP1 DUP3 ADD MSTORE PUSH15 0x29B0B6329034B9902830BAB9B2B217 PUSH1 0x89 SHL PUSH1 0x40 DUP3 ADD MSTORE PUSH1 0x60 ADD SWAP1 JUMP JUMPDEST SWAP1 DUP2 MSTORE PUSH1 0x20 ADD SWAP1 JUMP JUMPDEST PUSH1 0x40 MLOAD DUP2 DUP2 ADD PUSH8 0xFFFFFFFFFFFFFFFF DUP2 GT DUP3 DUP3 LT OR ISZERO PUSH2 0x24C3 JUMPI PUSH2 0x24C3 PUSH2 0x25EF JUMP JUMPDEST PUSH1 0x40 MSTORE SWAP2 SWAP1 POP JUMP JUMPDEST PUSH1 0x0 DUP3 NOT DUP3 GT ISZERO PUSH2 0x24DE JUMPI PUSH2 0x24DE PUSH2 0x25C3 JUMP JUMPDEST POP ADD SWAP1 JUMP JUMPDEST PUSH1 0x0 DUP3 PUSH2 0x24F2 JUMPI PUSH2 0x24F2 PUSH2 0x25D9 JUMP JUMPDEST POP DIV SWAP1 JUMP JUMPDEST PUSH1 0x0 DUP2 PUSH1 0x0 NOT DIV DUP4 GT DUP3 ISZERO ISZERO AND ISZERO PUSH2 0x2511 JUMPI PUSH2 0x2511 PUSH2 0x25C3 JUMP JUMPDEST POP MUL SWAP1 JUMP JUMPDEST PUSH1 0x0 DUP3 DUP3 LT ISZERO PUSH2 0x2528 JUMPI PUSH2 0x2528 PUSH2 0x25C3 JUMP JUMPDEST POP SUB SWAP1 JUMP JUMPDEST PUSH1 0x0 JUMPDEST DUP4 DUP2 LT ISZERO PUSH2 0x2548 JUMPI DUP2 DUP2 ADD MLOAD DUP4 DUP3 ADD MSTORE PUSH1 0x20 ADD PUSH2 0x2530 JUMP JUMPDEST DUP4 DUP2 GT ISZERO PUSH2 0xE00 JUMPI POP POP PUSH1 0x0 SWAP2 ADD MSTORE JUMP JUMPDEST PUSH1 0x2 DUP2 DIV PUSH1 0x1 DUP3 AND DUP1 PUSH2 0x256D JUMPI PUSH1 0x7F DUP3 AND SWAP2 POP JUMPDEST PUSH1 0x20 DUP3 LT DUP2 EQ ISZERO PUSH2 0x258E JUMPI PUSH4 0x4E487B71 PUSH1 0xE0 SHL PUSH1 0x0 MSTORE PUSH1 0x22 PUSH1 0x4 MSTORE PUSH1 0x24 PUSH1 0x0 REVERT JUMPDEST POP SWAP2 SWAP1 POP JUMP JUMPDEST PUSH1 0x0 PUSH1 0x0 NOT DUP3 EQ ISZERO PUSH2 0x25A8 JUMPI PUSH2 0x25A8 PUSH2 0x25C3 JUMP JUMPDEST POP PUSH1 0x1 ADD SWAP1 JUMP JUMPDEST PUSH1 0x0 DUP3 PUSH2 0x25BE JUMPI PUSH2 0x25BE PUSH2 0x25D9 JUMP JUMPDEST POP MOD SWAP1 JUMP JUMPDEST PUSH4 0x4E487B71 PUSH1 0xE0 SHL PUSH1 0x0 MSTORE PUSH1 0x11 PUSH1 0x4 MSTORE PUSH1 0x24 PUSH1 0x0 REVERT JUMPDEST PUSH4 0x4E487B71 PUSH1 0xE0 SHL PUSH1 0x0 MSTORE PUSH1 0x12 PUSH1 0x4 MSTORE PUSH1 0x24 PUSH1 0x0 REVERT JUMPDEST PUSH4 0x4E487B71 PUSH1 0xE0 SHL PUSH1 0x0 MSTORE PUSH1 0x41 PUSH1 0x4 MSTORE PUSH1 0x24 PUSH1 0x0 REVERT JUMPDEST PUSH1 0x1 PUSH1 0x1 PUSH1 0xE0 SHL SUB NOT DUP2 AND DUP2 EQ PUSH2 0x944 JUMPI PUSH1 0x0 DUP1 REVERT INVALID LOG2 PUSH5 0x6970667358 0x22 SLT KECCAK256 SWAP15 PUSH17 0xBA7D532A5E89E9A1BC9B4B782444A89C30 MSTORE8 0xD0 CODESIZE 0xC2 0xCD 0xDE 0xBE SWAP5 LOG4 0xE7 JUMPDEST MULMOD GASPRICE PUSH5 0x736F6C6343 STOP ADDMOD STOP STOP CALLER "
				},
				"gasEstimates": {
					"creation": {
						"codeDepositCost": "1961800",
						"executionCost": "infinite",
						"totalCost": "infinite"
					},
					"external": {
						"Presale_status()": "1085",
						"addPresaleList(address[])": "infinite",
						"approve(address,uint256)": "infinite",
						"balanceOf(address)": "1399",
						"baseURI()": "infinite",
						"buy(uint256)": "infinite",
						"buy_presale(uint256)": "infinite",
						"checkPresale()": "1177",
						"getApproved(uint256)": "2268",
						"isApprovedForAll(address,address)": "infinite",
						"is_presale_active()": "1186",
						"is_sale_active()": "1244",
						"maxPerTransaction()": "1140",
						"maxPerWalletPresale()": "1140",
						"maxPerWalletPublicsale()": "1096",
						"name()": "infinite",
						"owner()": "1138",
						"ownerOf(uint256)": "1411",
						"pre_Sale_status(bool)": "22169",
						"presale_price()": "1073",
						"publicSale_status(bool)": "22163",
						"public_sale_status()": "1163",
						"renounceOwnership()": "23615",
						"safeTransferFrom(address,address,uint256)": "infinite",
						"safeTransferFrom(address,address,uint256,bytes)": "infinite",
						"sendGifts(address[])": "infinite",
						"setApprovalForAll(address,bool)": "infinite",
						"setBaseUri(string)": "infinite",
						"supportsInterface(bytes4)": "627",
						"symbol()": "infinite",
						"tokenPrice()": "1074",
						"tokenURI(uint256)": "infinite",
						"totalSupply()": "1096",
						"transferFrom(address,address,uint256)": "infinite",
						"transferOwnership(address)": "23831",
						"update_preSale_price(uint256)": "21199",
						"update_public_price(uint256)": "21198",
						"withdraw()": "infinite"
					},
					"internal": {
						"_baseURI()": "infinite"
					}
				},
				"methodIdentifiers": {
					"Presale_status()": "ba6dd6f0",
					"addPresaleList(address[])": "ebb31510",
					"approve(address,uint256)": "095ea7b3",
					"balanceOf(address)": "70a08231",
					"baseURI()": "6c0360eb",
					"buy(uint256)": "d96a094a",
					"buy_presale(uint256)": "bb2841c5",
					"checkPresale()": "02689663",
					"getApproved(uint256)": "081812fc",
					"isApprovedForAll(address,address)": "e985e9c5",
					"is_presale_active()": "996953fc",
					"is_sale_active()": "cd7de458",
					"maxPerTransaction()": "4b980d67",
					"maxPerWalletPresale()": "230a9b8d",
					"maxPerWalletPublicsale()": "4235f70b",
					"name()": "06fdde03",
					"owner()": "8da5cb5b",
					"ownerOf(uint256)": "6352211e",
					"pre_Sale_status(bool)": "ef5f1985",
					"presale_price()": "969745e8",
					"publicSale_status(bool)": "1cef37e4",
					"public_sale_status()": "95ea5e67",
					"renounceOwnership()": "715018a6",
					"safeTransferFrom(address,address,uint256)": "42842e0e",
					"safeTransferFrom(address,address,uint256,bytes)": "b88d4fde",
					"sendGifts(address[])": "7c8255db",
					"setApprovalForAll(address,bool)": "a22cb465",
					"setBaseUri(string)": "a0bcfc7f",
					"supportsInterface(bytes4)": "01ffc9a7",
					"symbol()": "95d89b41",
					"tokenPrice()": "7ff9b596",
					"tokenURI(uint256)": "c87b56dd",
					"totalSupply()": "18160ddd",
					"transferFrom(address,address,uint256)": "23b872dd",
					"transferOwnership(address)": "f2fde38b",
					"update_preSale_price(uint256)": "63adc5a5",
					"update_public_price(uint256)": "e2a70eaf",
					"withdraw()": "3ccfd60b"
				}
			},
			"userdoc": {
				"kind": "user",
				"methods": {},
				"version": 1
			}
		}
	}
}